:020000040800F2
:100000004815002001010008293200082B320008A1
:100010002F32000833320008373200080000000099
:100020000000000000000000000000003B3200085B
:100030003D320008000000003F3200084132000855
:100040001B0100081B0100081B0100081B01000820
:100050001B0100081B0100081B0100081B01000810
:100060001B0100081B0100081B0100081B01000800
:100070001B0100081B0100081B0100081B010008F0
:100080001B0100081B0100081B0100081B010008E0
:100090001B0100081B0100081B0100081B010008D0
:1000A0001B0100081B0100081B0100081B010008C0
:1000B000792E00081B0100081B0100081B01000825
:1000C0001B0100081B0100081B0100081B010008A0
:1000D0001B010008BB2B00083F2D00081B01000876
:1000E0001B0100081B0100081B010008DFF80CD0F1
:1000F00003F0A8FB00480047392F000848150020EE
:100100000648804706480047FEE7FEE7FEE7FEE7B1
:10011000FEE7FEE7FEE7FEE7FEE7FEE74D1E00080E
:10012000ED00000831490143314A1160704770B554
:10013000002100230F22C4780CB32D4C246804F452
:10014000E064C4F5E064210AC1F10403CA404478C4
:1001500004FA03F18478144021430901254C067800
:10016000A155047804F01F050124AC4005786D11F9
:100170004FF0E02606EB8505C5F8004109E004785C
:1001800004F01F050124AC401B4D0678761145F89C
:10019000264070BD194A0A400243154B1B1F1A60C6
:1001A000704739B1124A121D12680243104B1B1DD1
:1001B0001A6006E00E4A121D126882430C4B1B1D8A
:1001C0001A607047042808D14FF0E021096941F016
:1001D00004014FF0E022116107E04FF0E0210969CE
:1001E00021F004014FF0E022116170470000FA0590
:1001F0000CED00E000E400E080E100E080FFFF1F84
:1002000001684FF6FE7211400160002101604160FB
:100210008160C1608C49884208D18B49083949689E
:1002200041F00F01884A083A51608AE0864914314A
:10023000884208D184490839496841F0F001824A6E
:10024000083A51607DE080492831884208D17E49D2
:100250000839496841F470617B4A083A516070E09E
:1002600079493C31884208D177490839496841F4D5
:100270007041754A083A516063E0734950318842D1
:1002800008D171490839496841F470216E4A083A29
:10029000516056E06C496431884208D16A49083996
:1002A000496841F47001684A083A516049E066497A
:1002B0007831884208D164490839496841F0706151
:1002C000614A083A51603CE06049884206D1011F0A
:1002D000096841F00F01021F116032E05B491431DF
:1002E000884208D15949091F096841F0F001574A6D
:1002F000121F116025E055492831884208D1534921
:10030000091F096841F47061504A121F116018E01A
:100310004E493C31884208D14C49091F096841F4D3
:1003200070414A4A121F11600BE04849503188421F
:1003300007D14649091F096841F47021434A121F39
:100340001160704710B50022026847F6F0739A43B7
:100350000C6A8B6823430C6923434C6923438C69E3
:100360002343CC6923434C6A23438C6A23431A43B7
:100370000260CB6843600B6883604B68C36010BD4C
:100380000021016041608160C16001614161816162
:10039000C161016241628162704721B1026842F02D
:1003A0000102026004E002684FF6FE731A40026028
:1003B00070471AB103680B43036002E003688B4384
:1003C00003607047416070470146486880B27047DB
:1003D00001460020002211F0805F03D01B4B083B38
:1003E0001A6802E0184B083B1A680A4201D0012043
:1003F00000E00020704710F0805F03D01349091F10
:10040000086002E010490839486070470146002042
:10041000002211F0805F03D00C4B083B1A6802E009
:10042000094B083B1A680A4201D0012000E0002075
:10043000704710F0805F03D00449091F086002E094
:10044000014908394860704708000240080402402A
:1004500010B50446CA48844208D10121042000F0A6
:1004600027FB0021042000F023FB46E0C54884421E
:1004700008D10121082000F01BFB0021082000F01A
:1004800017FB3AE0C048844208D10121102000F057
:100490000FFB0021102000F00BFB2EE0BB48844234
:1004A00008D10121202000F003FB0021202000F0D2
:1004B000FFFA22E0B648844208D10121402000F032
:1004C000F7FA0021402000F0F3FA16E0B148844228
:1004D00008D10121802000F0EBFA0021802000F0FB
:1004E000E7FA0AE0AC48844207D10121801500F008
:1004F000DFFA0021A01500F0DBFA10BD10B50121D4
:10050000084600F0D5FA0021012000F0D1FA10BD14
:100510002DE9F0410246002500260020002300249A
:10052000002791F803C00CF00F0591F803C01CF0F0
:10053000100F03D091F802C04CEA050591F800C0F5
:10054000BCF1000F31D0146800202BE04FF0010CFB
:100550000CFA00F3B1F800C00CEA03069E4220D169
:1005600083004FF00F0C0CFA03F7BC4305FA03FCB1
:100570004CEA040491F803C0BCF1280F06D14FF0F7
:10058000010C0CFA00FCC2F814C00AE091F803C098
:10059000BCF1480F05D14FF0010C0CFA00FCC2F879
:1005A00010C0401C0828D1D31460B1F800C0BCF1C1
:1005B000FF0F34DD546800202EE000F1080C4FF0EE
:1005C000010808FA0CF3B1F800C00CEA03069E42D9
:1005D00021D183004FF00F0C0CFA03F7BC4305FA4E
:1005E00003FC4CEA040491F803C0BCF1280F05D1C8
:1005F00000F1080C08FA0CF8C2F8148091F803C056
:10060000BCF1480F07D100F1080C4FF0010808FABF
:100610000CF8C2F81080401C0828CED35460BDE806
:10062000F0814FF6FF710180022181700421C170B9
:1006300070470246002093680B4201D0012000E081
:10064000002070470146886880B27047024600204B
:10065000D3680B4201D0012000E000207047014622
:10066000C86880B2704701617047416170470AB144
:10067000016100E041617047C16070474FF4803212
:100680000A438261816182618269826970470246A0
:100690000020424B18684FF68073184040EA021061
:1006A00008433E4B186070473D49C8617047F0B53C
:1006B0000A46002300240021002500F00046B6F180
:1006C000004F02D1354EF16901E0344E7168C0F33C
:1006D000034583B200F44016B6F5401F08D121F05F
:1006E00070612E4E766826F070662C4F7E6012E0A8
:1006F00000F48016B6F5801F06D1032606FA05F42D
:10070000A14341F0706106E0460D360103FA06F69A
:10071000B14341F0706122B1460D360103FA06F68D
:10072000314300F00046B6F1004F02D11B4EF1619B
:1007300001E01A4E7160F0BD30B500228B071C0F2E
:100740000F2303FA04F2154B08338C1053F82430AE
:100750009343124C08348D1044F8253023468C10F6
:1007600053F824308C07240F00FA04F423430B4C75
:1007700008348D1044F8253030BD0A4908607047B0
:1007800000080140000C014000100140001401402D
:1007900000180140001C0140002001400000014001
:1007A00000002042DC002042DD48006840F00100EB
:1007B000DB49086008464068DA490840D849486083
:1007C00008460068D8490840D549086008460068CE
:1007D00020F4802008600846406820F4FE0048604D
:1007E0004FF41F0088607047CD49096821F48031BB
:1007F000CB4A11601146096821F480211160B0F5DF
:10080000803F03D0B0F5802F0ED106E0C4490968BF
:1008100041F48031C24A116007E0C149096841F4DE
:10082000A021BF4A116000E000BF00BF704710B5B3
:1008300001460022002300204A11012A02D1B84CAF
:10084000236806E0022A02D1B54C236A01E0B44CC9
:10085000636A01F01F02012494401C4201D0012070
:1008600000E0002010BD38B50020009000240025D5
:1008700000BF3120FFF7DBFF05460098401C0090C9
:100880000098B0F5A06F01D0002DF2D03120FFF715
:10089000CEFF08B1012400E00024204638BD014607
:1008A00000209F4A106820F0F80040EAC100106064
:1008B00070479E490860704702460020984B586870
:1008C00020F47C1042EA01031843954B58607047AE
:1008D00096490866704701460020914A506820F00A
:1008E00003000843506070478D48406800F00C00DA
:1008F0007047014600208A4A506820F0F000084303
:100900005060704701460020854A506820F4E0603E
:1009100008435060704701460020814A506820F427
:10092000605040EAC1005060704729B17C4A527A59
:1009300002437B4B5A7204E0794A527A8243784BE5
:100940005A7270477A490860704701460020744A1D
:10095000506820F440400843506070470021754AB9
:1009600011706F4A82F82010012802D0042808D1A3
:1009700003E001216F4A117004E005216D4A1170F6
:1009800000E000BF00BF70476B49086070476449D2
:10099000096A0143624A1162704767494439086035
:1009A000704730B500210022002400235C4D6D68A3
:1009B00005F00C0121B1042905D0082923D105E057
:1009C0005E4D056022E05D4D05601FE0544D6D6891
:1009D00005F47012524D6D6805F48034022505EB64
:1009E00092421CB9564D554305600BE04C4D6D6865
:1009F00015F4003F03D0524D5543056002E04F4DC2
:100A00005543056002E04D4D056000BF00BF444DF9
:100A10006D6805F0F00109094A4D6B5C0568DD4021
:100A200045603F4D6D6805F4E061090A454D6B5C1A
:100A30004568DD4085603A4D6D6805F46051C90A2E
:100A4000404D6B5C4568DD40C560354D6D6805F413
:100A50004041890B3C4D6B5CC568B5FBF3F5056106
:100A600030BD29B12E4A526902432D4B5A6104E030
:100A70002B4A526982432A4B5A61704729B1284A4E
:100A800092690243264B9A6104E0254A92698243A7
:100A9000234B9A61704729B1214AD2690243204B06
:100AA000DA6104E01E4AD26982431D4BDA61704765
:100AB00029B11B4AD2680243194BDA6004E0184A94
:100AC000D2688243164BDA60704729B1144A126922
:100AD0000243134B1A6104E0114A12698243104B1E
:100AE0001A61704714494039086070470F49C8645B
:100AF00070470B49C87170470948406A40F08070E0
:100B000007494862704701460020054A92680A4238
:100B100001D0012000E00020704701498872704731
:100B2000001002400000FFF8FFFFF6FE0000424206
:100B3000D8004242201002408004424200127A0053
:100B400000093D00000000201000002010B5044600
:100B5000FE48844208D10121C014FFF7A9FF0021FB
:100B6000E014FFF7A5FFC4E0B4F1804F08D10121E4
:100B70000846FFF7AAFF00210120FFF7A6FFB8E013
:100B8000F348844208D101210220FFF79EFF002193
:100B90000220FFF79AFFACE0EE48844208D1012121
:100BA0000420FFF792FF00210420FFF78EFFA0E052
:100BB000E948844208D101210820FFF786FF00217F
:100BC0000820FFF782FF94E0E448844208D1012125
:100BD0001020FFF77AFF00211020FFF776FF88E052
:100BE000DF48844208D101212020FFF76EFF002159
:100BF0002020FFF76AFF7CE0DA48844208D1012117
:100C00004014FFF755FF00216014FFF751FF70E01B
:100C1000D548844209D10121C804FFF749FF0021CA
:100C20004FF40020FFF744FF63E0D048844209D12D
:100C300001210805FFF73CFF00214FF48010FFF76A
:100C400037FF56E0CA48844209D101214805FFF721
:100C50002FFF00214FF40010FFF72AFF49E0C5489D
:100C6000844208D101214020FFF72FFF00214020BE
:100C7000FFF72BFF3DE0C048844208D101218020CE
:100C8000FFF723FF00218020FFF71FFF31E0BB4863
:100C9000844208D101218015FFF717FF0021A0151C
:100CA000FFF713FF25E0B648844209D1012108046B
:100CB000FFF7FEFE00214FF48030FFF7F9FE18E049
:100CC000B048844209D101214804FFF7F1FE002118
:100CD0004FF40030FFF7ECFE0BE0AB48844208D144
:100CE00001218804FFF7E4FE00214FF48020FFF784
:100CF000DFFE10BD00220288944B98420ED0994B23
:100D000098420BD0B0F1804F08D0914B984205D05B
:100D1000904B984202D0904B984204D14FF68F737B
:100D20001A404B881A438D4B984207D08C4B9842FF
:100D300004D04FF6FF431A40CB881A4302808B88B9
:100D400083850B880385814B98420BD0854B984255
:100D500008D08B4B984205D08A4B984202D08A4BE0
:100D6000984201D10B7A038601238382704770B5C4
:100D7000002400220023058C4FF6FE7635400584C2
:100D8000028C8388048B4FF68F752C40B51E2C4047
:100D90000D882C43751E2A400D892A434D882A430D
:100DA0006A4DA8420BD06F4DA84208D0744DA8429E
:100DB00005D0744DA84202D0734DA84213D14FF60E
:100DC000F7752A404D892A434FF6FB752A408D88D6
:100DD0002A434FF6FF652B404FF6FF552B408D8978
:100DE0002B43CD892B4383800483CD888586028461
:100DF00070BD70B5002400220023058C4FF6EF76FD
:100E000035400584028C8388048B48F6FF752C409E
:100E10004FF6FF452C400D884FF6FF7606EA052574
:100E20002C434FF6DF752A400D8906EA05152A4343
:100E30004D8806EA05152A43444DA84202D0494D83
:100E4000A8421DD14FF67F752A404D894FF6FF7697
:100E500006EA05152A434FF6BF752A408D8806EA33
:100E600005152A434FF6FF352B404FF2FF752B40F7
:100E70008D8906EA85052B43CD8906EA85052B4336
:100E800083800483CD880587028470BD70B50024FB
:100E900000220023058C4FF6FF6635400584028C46
:100EA0008388848B4FF68F752C404FF6FC752C4051
:100EB0000D882C434FF6FF552A400D894FF6FF76DB
:100EC00006EA05252A434D8806EA05252A431F4DD3
:100ED000A84202D0234DA8421DD14FF2FF752A40EF
:100EE0004D894FF6FF7606EA05252A434FF6FF3572
:100EF0002A408D8806EA05252A434EF6FF752B40C9
:100F00004DF6FF752B408D8906EA05152B43CD89DB
:100F100006EA05152B4383808483CD888587028468
:100F200070BD70B5002200230024058C4EF6FF76BC
:100F300035400584038C8488828B48F6FF752A40EF
:100F40004FF6FF452A400D8820E00000002C0140AC
:100F50000004004000080040000C00400010004069
:100F60000014004000340140004C0140005001409A
:100F70000054014000180040001C004000200040C8
:100F80000040014000440140004801404FF6FF7618
:100F900006EA05252A434DF6FF752B400D8906EA22
:100FA00005352B434D8806EA05352B43FA4DA842FB
:100FB00002D0FA4DA84208D14BF6FF752C408D891E
:100FC0004FF6FF7606EA85152C4384808283CD8810
:100FD000A0F84050038470BD828B4FF2FF331A405B
:100FE0008283828B4FF6FF7303EA01231A438283C5
:100FF0007047F0B50C461546002200210026078CEC
:101000004EF6FF7C07EA0C070784828B018C4FF6B3
:10101000FF7707EA043640F6FF473A404FF6FF777E
:1010200007EA05273A434FF6FF7707EA03373A43C3
:10103000D94FB8420ED0D94FB8420BD0B0F1804F43
:1010400008D0D74FB84205D0D64FB84202D0D64FBD
:10105000B84206D14DF6FF77394046F48057394300
:1010600005E047F6FF57394044F4805739438283FF
:101070000184F0BD828B4FF6F3731A408283828B1A
:101080000A4382837047F0B50C46154600220021C2
:101090000026078C4FF6FF6C07EA0C070784828B4B
:1010A000018C4FF6FF7707EA04264FF60C773A409B
:1010B0004FF6FF7707EA03172F433A43B64FB8427C
:1010C0000ED0B64FB8420BD0B0F1804F08D0B44F1D
:1010D000B84205D0B34FB84202D0B34FB84206D1A0
:1010E0004FF6FF57394046F48077394305E04FF219
:1010F000FF57394044F48077394382830184F0BD3F
:10110000028B4FF2FF331A400283028B4FF6FF73BC
:1011100003EA01231A4302837047F0B50C461546D3
:10112000002200210026078C4FF6EF7C07EA0C070F
:101130000784028B018C4FF6FF7707EA041640F60E
:10114000FF473A404FF6FF7707EA03373A434FF637
:10115000FF7707EA05273A438F4FB8420ED08F4FEB
:10116000B8420BD0B0F1804F08D08D4FB84205D0B7
:101170008C4FB84202D08C4FB84206D14FF6DF7781
:10118000394046F01007394305E04FF65F773940A4
:1011900044F01007394302830184F0BD028B4FF6FF
:1011A000F3731A400283028B0A4302837047F0B53F
:1011B0000C46154600220021068C4FF6FE773E4075
:1011C0000684028B018C4FF60C7632407E1C06EAB8
:1011D00003162E433243704EB0420ED06F4EB042D3
:1011E0000BD0B0F1804F08D06D4EB04205D06D4E9F
:1011F000B04202D06C4EB04206D14FF6FD7631407F
:1012000044F00106314305E04FF6F576314044F0F5
:101210000106314302830184F0BD70B505460C46DA
:101220005D4885420ED05D4885420BD0B5F1804FB8
:1012300008D05B48854205D05A48854202D05A48BA
:10124000854200D100E000BF208850B92389A288E0
:1012500061882846FFF7ABFFE1882846FFF79EFF2D
:1012600025E0208804280AD12389A288618828469D
:10127000FFF753FFE1882846FFF742FF17E0208879
:1012800008280AD12389A28861882846FFF7FBFE37
:10129000E1882846FFF7EEFE09E02389A2886188ED
:1012A0002846FFF7A6FEE1882846FFF795FE70BDA9
:1012B0002DE9F04105460C4600260127608808B953
:1012C000022600E00026A088012801D1022700E0C4
:1012D00001272088A0B92389A28861882846FFF7C2
:1012E00066FFE1882846FFF759FF23893A463146D1
:1012F0002846FFF712FFE1882846FFF701FF13E0B9
:101300002389A28861882846FFF707FFE1882846DD
:10131000FFF7F6FE23893A4631462846FFF747FF96
:10132000E1882846FFF73AFFBDE8F0810A884B883C
:101330001A438B881A43CB881A430B891A434B896B
:101340001A438B891A43A0F8442070474FF6FF7167
:10135000818000210180C18041800172704700219D
:10136000018041808180C180018141818181C18171
:101370007047002101804180012181800021C180CE
:10138000018170470021018041808180C1800181FD
:101390004181818170470000002C014000340140F0
:1013A0000004004000080040000C004021B1028809
:1013B00042F00102028004E002884FF6FE731A40F8
:1013C0000280704731B1B0F8442042F40042A0F8E6
:1013D000442005E0B0F84420C2F30E02A0F84420F7
:1013E00070471AB183890B43838102E083898B4361
:1013F000838170478182704741EA0203A0F8483038
:1014000070471AB183890B43838102E083898B4340
:101410008381704701894FF6F8721140018170474E
:101420000A46002101894FF68F731940114301814B
:10143000704730B504460D4629462046FFF7F0FFB9
:10144000208940F00700208130BD2DE9F04104469D
:101450000D4616461F46602D06D13B4601223146F9
:101460002046FFF75AFE05E03B4601223146204662
:10147000FFF79DFE29462046FFF7D2FF208940F066
:1014800007002081BDE8F08130B50C4600210189BC
:10149000C9B24FF6FF7505EA0325154325432943D5
:1014A000018130BD2DE9F04105460E4617469846AC
:1014B000002443463A4631462846FFF7E5FF2C898B
:1014C0004FF6F870044044F007044FF68F70044064
:1014D00044F070042C81BDE8F081F0B504460D465F
:1014E00016461F463B46324629462046FFF7CCFFAC
:1014F000208940F480402081F0BD018582827047C0
:101500000A46002101884FF68F731940114301806C
:101510007047F0B50C4615461E46002100220023F8
:101520000189028B038C4FF6F877394021434FF63F
:10153000FC473A4040F201173A434FF6DD773B4013
:101540004FF6FF7707EA06172F433B4301810283DB
:101550000384F0BD0A460021018B4FF68F731940BA
:101560001143018370470A460021018B48F6FF733F
:1015700019404FF6FF7303EA0223194301837047B2
:101580000A460021818B4FF68F73194011438183E6
:1015900070470A460021818B48F6FF7319404FF6C9
:1015A000FF7303EA022319438183704721B1028844
:1015B00042F08002028004E002884FF67F731A40F6
:1015C0000280704721B1828842F00402828004E0E8
:1015D00082884FF6FB731A408280704721B182885F
:1015E00042F00802828004E082884FF6F7731A40C6
:1015F0008280704721B1828842F00102828004E03B
:1016000082884FF6FE731A40828070470A46002196
:10161000018B4FF6F77319401143018370470A4657
:101620000021018B4FF2FF7319404FF6FF7303EA5D
:1016300002231943018370470A460021818B4FF62C
:10164000F77319401143818370470A460021818B4B
:101650004FF2FF7319404FF6FF7303EA0223194359
:10166000818370470A460021018B4FF6FB731940B6
:101670001143018370470A460021018B4FF6FF3367
:1016800019404FF6FF7303EA0223194301837047A1
:101690000A460021818B4FF6FB7319401143818369
:1016A00070470A460021818B4FF6FF3319404FF6F1
:1016B000FF7303EA02231943818370470A4600211E
:1016C000018B4FF67F7319401143018370470A461F
:1016D0000021018BC1F30E014FF6FF7303EA0223D1
:1016E0001943018370470A460021818B4FF67F73AF
:1016F00019401143818370470A460021818BC1F351
:101700000E014FF6FF7303EA0223194381837047EA
:101710000A460021018C4FF6FD73194011430184E4
:1017200070470A460021018C4FF6F77319401143A8
:10173000018470470A460021018C4FF6DF7319407F
:101740004FF6FF7303EA02131943018470470A46F8
:101750000021018C4FF67F7319404FF6FF7303EAA7
:1017600002131943018470470A460021018C4FF689
:10177000FF5319404FF6FF7303EA02231943018414
:1017800070470A460021018C4FF2FF7319404FF653
:10179000FF7303EA02231943018470470A460021BC
:1017A000018C4DF6FF7319404FF6FF7303EA0233C5
:1017B00019430184704730B5002301248C40A3B243
:1017C000048C9C430484048C02FA01F5ADB22C43D2
:1017D000048430BD30B5002304248C40A3B2048CB3
:1017E0009C430484048C02FA01F5ADB22C430484BA
:1017F00030BD70B50346002000241846183001257E
:101800008D40ACB21D8CA5431D8409B1082909D1B6
:1018100000EB6100056825F070050560056815435B
:1018200005600EE00D1FC5F34E052844056825F43C
:10183000E045056005684FF6FF7606EA0226354367
:10184000056070BD21B1028842F00202028004E00E
:1018500002884FF6FD731A400280704721B102885A
:1018600042F00402028004E002884FF6FB731A4043
:101870000280704721B1828842F08002828004E0B9
:1018800082884FF67F731A408280704702884FF635
:10189000F7731A40028002880A43028070478288E8
:1018A0004FF68F731A40828082880A438280704785
:1018B00002894FF6F8731A40028102890A430281B5
:1018C000704702894FF67F731A40028102890A43EA
:1018D0000281704781847047818570478186704797
:1018E0000187704781877047A0F8401070470288D1
:1018F0004FF6FF431A40028002880A430280704775
:101900000146888E70470146088F70470146888FD0
:1019100070470146B1F8400070470146888C704717
:101920000146088D704702460020138A0B4201D001
:10193000012000E000207047CA430282704730B5A2
:101940000246002000230024158A05EA0103958938
:1019500005EA010413B10CB1012000E0002030BD04
:10196000CA4302827047000010B50446FB48844217
:1019700009D101218803FFF79BF800214FF4804033
:10198000FFF796F832E0F648844209D10121480475
:10199000FFF79BF800214FF40030FFF796F825E0A1
:1019A000F048844209D101218804FFF78EF8002114
:1019B0004FF48020FFF789F818E0EB48844209D102
:1019C0000121C804FFF781F800214FF40020FFF740
:1019D0007CF80BE0E548844208D101210805FFF7B7
:1019E00074F800214FF48010FFF76FF810BD2DE957
:1019F000F04786B005460E460024A24600BFA14629
:101A00000027B08900B100BF2F462C8A4CF6FF702A
:101A10000440F08804432C82AC894EF6F310044055
:101A2000B08831890843718908430443AC81AC8A8A
:101A30004FF6FF400440B0890443AC8201A8FEF792
:101A4000B0FFC648874202D1DDF810A001E0DDF802
:101A50000CA0A88910F4004F08D00AEBCA0000EBD4
:101A60000A1031684900B0FBF1F807E00AEBCA0040
:101A700000EB0A1031688900B0FBF1F86420B8FB74
:101A8000F0F004012009642101FB1089A88910F4F9
:101A9000004F08D0322000EBC900B0FBF1F000F09D
:101AA0000700044308E0322000EB09106421B0FB7A
:101AB000F1F000F00F0004432C8106B0BDE8F08780
:101AC0004FF41651016000218180C18001810C21F9
:101AD000418100218181704710B502460020108AA3
:101AE0004FF2FF0318400B884C8823438C88234314
:101AF000CC8823431843108210BD0021018041800F
:101B00008180C180704721B1828942F40052828174
:101B100004E082894DF6FF731A4082817047F0B568
:101B200003460024002600250020A1F510676A3F27
:101B300000D100BF1846C1F3421401F01F0601276F
:101B400007FA06F5012C01D10C3004E0022C01D17A
:101B5000103000E014301AB107682F43076002E02C
:101B60000768AF430760F0BD1AB1838A0B438382D5
:101B700002E0838A8B4383827047028A4FF6F073B8
:101B80001A400282028A0A430282704782894FF217
:101B9000FF731A40828182890A438281704721B192
:101BA000828942F00202828104E082894FF6FD734D
:101BB0001A4082817047028A4FF6DF731A40028210
:101BC000028A0A430282704721B1028A42F48042AB
:101BD000028204E0028A4BF6FF731A4002827047C9
:101BE000C1F308028280704701468888C0F308006C
:101BF0007047818941F0010181817047028BD2B227
:101C00000283028B42EA012202837047028B02F4B4
:101C10007F420283028B0A430283704721B1828A8A
:101C200042F02002828204E0828A4FF6DF731A407B
:101C30008282704721B1828A42F01002828204E0DF
:101C4000828A4FF6EF731A408282704721B1828AEE
:101C500042F00802828204E0828A4FF6F7731A404B
:101C60008282704721B1828942F40042828103E07E
:101C70008289C2F30E028281704721B1828A42F4C6
:101C80000062828204E0828A4FF2FF731A408282ED
:101C90007047828A4FF6FB731A408282828A0A4317
:101CA0008282704721B1828A42F00202828204E07D
:101CB000828A4FF6FD731A408282704702460020E6
:101CC000B1F5007F00D100BF13880B4201D0012085
:101CD00000E00020704701F40072B2F5007F00D1EF
:101CE00000BFCA430280704770B50246002400233B
:101CF00000250020A1F510666A3E00D100BFC1F3A7
:101D0000421501F01F03012606FA03F3012D02D14B
:101D10009689334006E0022D02D1168A334001E055
:101D2000968A33400C12012606FA04F416883440D1
:101D300013B10CB1012000E0002070BD10B50022ED
:101D40000023A1F510646A3C00D100BF0A120124EF
:101D50009440A3B2DC43048010BD00000038014071
:101D60000044004000480040004C0040005000404B
:101D70000CB50020019000906B48006840F4803062
:101D80006949086000BF6848006800F400300090AE
:101D90000198401C0190009818B90198B0F5A06F07
:101DA000F1D16148006810F4003F02D0012000909A
:101DB00001E0002000900098012842D15B480068B3
:101DC00040F01000594908600846006820F0030000
:101DD00008600846006840F0020008605248406809
:101DE000514948600846406848600846406840F4E9
:101DF000806048600846406820F47C1048600846CF
:101E0000406840F4E81048600846006840F0807080
:101E1000086000BF4448006810F0007FFAD04248D4
:101E2000406820F00300404948600846406840F0A0
:101E30000200486000BF3C48406800F00C000828E1
:101E4000F9D10CBD10B5FFF793FF10BD10B53648A2
:101E5000006840F001003449086008464068344991
:101E600008403149486008460068324908402E4918
:101E700008600846006820F4802008600846406832
:101E800020F4FE0048604FF41F008860FFF7DAFF7F
:101E90004FF000602849086010BD10B500210020F7
:101EA0000022214B5B6803F00C0121B1042906D00C
:101EB000082928D107E0214B214C236027E01F4B44
:101EC0001F4C236023E0184B5B6803F47010164B23
:101ED0005B6803F48032022303EB904022B9194B74
:101EE0004343174C23600DE00F4B5B6813F4003F36
:101EF00004D0144B4343124C236003E00F4B434385
:101F00000F4C236003E00D4B0D4C236000BF00BF5E
:101F1000054B5B68C3F303130B4CE15C084B1B6878
:101F2000CB40074C236010BD00100240002002404F
:101F30000000FFF8FFFFF6FE08ED00E000127A0057
:101F40001400002000093D0018000020F0B58BB0FF
:101F500007460C4615461E4601210846FEF781FD40
:101F60003846FEF74DF90094019510200290039633
:101F70000020049080200590002006900790089093
:101F80004FF48050099000200A9069463846FEF7C9
:101F9000D9F90BB0F0BD70B504460D4600212046BE
:101FA000FEF7FBF929462046FEF70CFA01212046F0
:101FB000FEF7F3F970BD000070B506460C4600252B
:101FC0000020F84908804FF48061F74801F05DF97E
:101FD0003146F6A000F0DEFE00BF0AE0F5A1F248AF
:101FE00001F05EF900B106E0642000F08EFF681C8D
:101FF00085B2A542F2DB00BFA54201DB012070BD26
:102000000020FCE72DE9F04180460E460027002025
:10201000E44908804FF48061E34801F036F9E7A015
:1020200000F0B8FE00BF0AE0E2A1DF4801F038F995
:1020300000B106E0642000F068FF781C87B2B74268
:10204000F2DB00BFB74202DB0120BDE8F081DEA178
:10205000D54801F025F904469CB1DBA1601C01F0D4
:102060001FF905465DB1281B421E611C404601F068
:10207000F3F84146D5A001F037FE0020E5E7032044
:10208000E3E70220E1E72DE9F04106460F4614465A
:1020900000250020C34908804FF48061C24801F048
:1020A000F4F83A463146CFA000F074FE00BF0AE0D3
:1020B000D2A1BD4801F0F4F800B106E0642000F0C0
:1020C00024FF681C85B2A542F2DB00BFA54202DBFB
:1020D0000120BDE8F0810020FBE770B50446002038
:1020E000B04908804FF48061AF4801F0CEF8CCA031
:1020F00000F050FE00250AE0CCA1AB4801F0D0F87A
:1021000000B106E0642000F000FF681C85B2A54223
:10211000F2DB00BFA54201DB012070BD0020FCE71F
:1021200010B53220FFF7D9FF08B1012010BDC1A0C2
:1021300001F0DAFD3221C4A0FFF73EFF08B1022012
:10214000F4E7C4A001F0D0FDC9A001F0CDFDC82284
:10215000CEA1D1A0FFF797FF08B10320E6E7D0A0FA
:1021600001F0C2FD3221D348FFF74CFF08B1042033
:10217000DCE7D1A001F0B8FD3221D5A0FFF71CFFAC
:1021800008B10520D2E7D6A001F0AEFD3221DAA0D9
:10219000FFF712FF08B10620C8E7DAA001F0A4FD9E
:1021A0003221DFA0FFF708FF08B10720BEE70020BB
:1021B000BCE72DE9F04106460F46154600240020F5
:1021C000784908804FF48061774801F05EF83A461C
:1021D0003146D8A000F0DEFD00BF19E0DCA1724856
:1021E00001F05EF800B115E0DBA16F4801F058F88E
:1021F00010B10120BDE8F081D9A16B4801F050F881
:1022000008B10220F6E7642000F07FFE601C84B273
:10221000AC42E3DB00BFAC4201DB0320EAE7D5A020
:1022200001F062FD00205F4908804FF480615E4844
:1022300001F02BF8D9A000F0ADFD00240AE0DBA1ED
:10224000594801F02DF800B106E0642000F05DFE71
:10225000601C84B2AC42F2DB00BFAC4201DB042064
:10226000C8E70020C6E710B53220FFF736FF08B1F7
:10227000012010BD6FA001F037FD322172A0FFF7E1
:102280009BFE08B10220F4E772A001F02DFD78A0BA
:1022900001F02AFDC8227DA17FA0FFF7F4FE08B15E
:1022A0000320E6E77EA001F01FFD32218148FFF701
:1022B000A9FE08B10420DCE77FA001F015FD322162
:1022C000BDA0FFF779FE08B10520D2E7BEA001F05E
:1022D0000BFD3221C2A0FFF76FFE08B10620C8E750
:1022E000C2A001F001FDC8A001F0FEFC322241F2C3
:1022F000BA31CDA0FFF75DFF0446052C0DD2DFE813
:1023000004F0030406080A0007E00720B1E70820EC
:10231000AFE70920ADE70A20ABE700BF0020A8E740
:102320002DE9F04106460F4690461D460024002048
:102330001C4908804FF480611B4800F0A6FF43460B
:102340003A463146BCA000F025FD00BF0AE0C3A11B
:10235000154800F0A5FF00B106E0642000F0D5FDAF
:10236000601C84B2AC42F2DB00BFAC4202DB012055
:10237000BDE8F081BAA001F0B7FC0020094908804F
:102380004FF48061084800F080FF84A000F002FD57
:1023900000247CE185A1044800F082FF00B179E1CE
:1023A00070E100002A0000204805002025730D0A76
:1023B000000000000D0A4F4B0D0A000041542B4352
:1023C000494653520D0A0000220000004553503880
:1023D000323636B5C44950B5D8D6B7A3BA25730D31
:1023E0000A00000041542B43574A41503D222573B7
:1023F000222C222573220D0A00000000574946496D
:1024000020434F4E4E45435445440D0A57494649D3
:1024100020474F542049500D0A0D0A4F4B0D0A001A
:1024200041542B5253540D0A000000007265616440
:102430007900000045535038323636C8EDB8B4CE76
:10244000BBB3C9B9A60D0A0041542B43574D4F44A5
:10245000453D310045535038323636C9E8D6C3536E
:102460005441C4A3CABDB3C9B9A60D0A00000000F7
:1024700045535038323636C1ACBDD34150D6D02E3C
:102480002E2E202E2E2E0D0A00000000616C746985
:10249000756D3B323031380059442D7769666900DB
:1024A00045535038323636C1ACBDD34150B3C9B9AB
:1024B000A60D0A003404002045535038323636B297
:1024C000E9D1AF4950B5D8D6B7B3C9B9A60D0A00FE
:1024D00041542B4349504D4F44453D3000000000CE
:1024E00045535038323636B9D8B1D5CDB8B4ABB380
:1024F000C9B9A60D0A00000041542B4349504D555F
:10250000583D310045535038323636BFAAC6F4B66E
:10251000E0C2B7C1ACBDD3B3C9B9A60D0A00000073
:1025200041542B4349505345525645523D312C3569
:102530003035300041542B43495053544152543D9F
:1025400022544350222C222573222C25640D0A008C
:10255000434F4E4E45435400434C4F5345440000B7
:10256000414C524541445920434F4E4E45435445FA
:102570004400000045535038323636C1ACBDD3B7A5
:10258000FECEF1C6F7B3C9B9A6A3ACD7BCB1B8BDEE
:10259000F8C8EBCDB8B4AB0D0A00000041542B4392
:1025A000495053454E440D0A000000000D0A4F4BA0
:1025B0000D0A0D0A3E00000041542B4349504D4F77
:1025C00044453D310000000045535038323636BF97
:1025D000AAC6F4CDB8B4ABB3C9B9A60D0A000000C1
:1025E00041542B4349504D55583D300045535038C8
:1025F000323636B9D8B1D5B6E0C2B7C1ACBDD3B367
:10260000C9B9A60D0A00000045535038323636C10C
:10261000ACBDD3B7FECEF1C6F7D6D02E2E2E202ECF
:102620002E2E0D0A000000003139322E3136382EA0
:10263000312E31323200000041542B434950535463
:102640004152543D22554450222C222573222C25E0
:10265000642C25642C300D0A000000004F4B000054
:1026600045535038323636C9E8D6C3554450B3C9FD
:10267000B9A6A3ACD7BCB1B8BDF8C8EBCDB8B4AB64
:102680000D0A0000642000F040FC601C84B2AC42E3
:10269000FFF680AE00BFAC4201DB022068E60020FE
:1026A00066E610B53220FFF718FD08B1012010BD15
:1026B000AFF2802001F018FB3221AFF27420FFF757
:1026C0007BFC08B10220F2E7AFF2782001F00CFBAE
:1026D000AFF2642001F008FBC822AFF25021AFF244
:1026E0004820FFF7D0FC08B10320E0E7AFF250200C
:1026F00001F0FAFA3221CA48FFF784FC08B104203D
:10270000D5E7AFF24C2001F0EFFA3221AFF25810CA
:10271000FFF752FC08B10520C9E7AFF2541001F0F1
:10272000E3FA3221AFF24810FFF746FC08B1062069
:10273000BDE7AFF2481001F0D7FABAA001F0D4FA21
:102740004FF4FA7341F2BA321146AFF22410FFF798
:10275000E7FD044624B1012C03D0022C05D102E090
:1027600003E00720A3E70820A1E700BF00209EE7C1
:1027700000B587B00020049005900690019002906B
:102780000390AFF23421AE4800F08AFDA0B101AB56
:1027900004AAACA1AA4800F09DFD04A9ACA001F0D8
:1027A000A3FA0020B04908804FF48061A44800F0EB
:1027B0006CFD012007B000BDAFF26421A04800F01D
:1027C0006FFD98B101AB04AA9EA19D4800F082FD67
:1027D00004A9A6A001F088FA0020A34908804FF4BC
:1027E0008061974800F051FD0220E3E70020E1E717
:1027F0002DE9FF4107460D46164600200190029044
:102800000390A0A18E4800F04BFD00B3052000F01E
:102810007CFB334601AA9DA18948009500F05AFD32
:102820009FA1874800F03CFD044624B1621C9DA195
:10283000384601F069FA00208B4908804FF4806126
:102840007F4800F022FD012004B0BDE8F0810020A7
:10285000FAE72DE9F0470746884691461D460024D1
:102860000020814908804FF48061754800F00DFD1B
:102870004A4639468CA000F08DFA00BF0BE0AFF25B
:10288000CC216F4800F00CFD00B106E0642000F0A0
:102890003CFB601C84B2AC42F1DB00BFAC4202DB0B
:1028A0000120BDE8F08700206F4908804FF4806167
:1028B000634800F0EAFC002606E018F806107FA046
:1028C00000F068FA701C86B24E45F6DB002421E069
:1028D0007BA15B4800F0E4FC40B100206249088025
:1028E0004FF48061564800F0D0FC15E076A15448C2
:1028F00000F0D6FC48B100205B4908804FF48061AD
:102900004F4800F0C2FC0220CBE7642000F0FDFA43
:10291000601C84B2AC42DBDB00BFAC4201DB0320B5
:10292000BFE70020BDE770B50446002500204E49F2
:1029300008804FF48061424800F0A7FC67A000F0D7
:1029400029FA00BF0BE0AFF294513D4800F0A8FC1B
:1029500000B106E0642000F0D8FA681C85B2A542F8
:10296000F1DB00BFA54209DB5EA001F0BDF966A066
:1029700000F010FA4FF47A7000F0C7FA70BD10B58D
:102980000246012906D0022908D0032913D00429C0
:1029900043D125E01378303B98B23EE01378303BCA
:1029A00003EB83034FF6FF7404EA43005378303B94
:1029B000034498B231E01378303B03EBC30404EBDB
:1029C00003134FF6FF7404EA83009378303B03EB64
:1029D000830300EB4300D378303B034498B21CE000
:1029E0001378303B03EB4304C4EBC3134FF6FF747F
:1029F00004EAC3005378303B03EBC30404EB031336
:102A000000EB83009378303B03EB830300EB430040
:102A1000D378303B034498B200BF00BF10BD000024
:102A20003404002045535038323636C9E8D6C355F1
:102A30004450D6D02E2E2E202E2E2E0D0A00000011
:102A400048050020255B5E2C5D2C255B5E2C5D001F
:102A5000D3D0BFCDBBA7B6CBBDD3C8EBA3AC494445
:102A60003D25730D0A0000002A000020D3D0BFCD01
:102A7000BBA7B6CBB6CFBFAAA3AC49443D25730DC7
:102A80000A0000002B49504400000000255B5E2C2A
:102A90005D2C255B5E2C5D2C255B5E3A5D000000A5
:102AA0003A0000002573000041542B434950534520
:102AB0004E443D25642C25640D0A0000256300006A
:102AC00053454E44204F4B006C696E6B2069732058
:102AD0006E6F742076616C696400000041540D0AC9
:102AE0000000000045535038323636B4A6D3DACD54
:102AF000B8B4ABD7B4CCACA3ACD7BCB1B8CDCBB326
:102B0000F6CDB8B4AB0D0A002B2B2B0008B54FF453
:102B1000E060FDF707FB25208DF8000003208DF80D
:102B200001008DF8020001208DF803006846FDF7D2
:102B3000FEFA08BD10B586B00446012144F2040037
:102B4000FDF79CFF4348FEF70FFF4FF40070ADF810
:102B5000140003208DF8160018208DF8170005A921
:102B60003D48FDF7D5FC4FF48060ADF8140004201B
:102B70008DF8170005A93848FDF7CAFC019400201C
:102B8000ADF80800ADF80A00ADF80C00ADF8100083
:102B90000C20ADF80E0001A92E48FEF728FF0122F7
:102BA00040F225512B48FEF7BAFF01212948FEF7D4
:102BB000AAFFFFF7ABFF06B010BD10B540F22551DC
:102BC0002448FFF791F810B32248FFF70DF8C4B27C
:102BD0002248008810F4004F2BD12048008810F4C0
:102BE000804F0CD00A2C03D000201C49088020E024
:102BF0001A48008840F400401849088019E00D2C5C
:102C000006D11648008840F480401449088010E03E
:102C100012480088C0F30D0011490C540F48008879
:102C2000401C0E49088008460088FF2801DD00206E
:102C3000088010BD70B504460D46E1B20548FEF7A8
:102C4000CFFF00BF40210348FFF738F80028F9D034
:102C5000204670BD003801400008014028000020D7
:102C60004804002008B54FF4E060FDF75BFA262029
:102C70008DF8000002208DF801008DF8020001207F
:102C80008DF803006846FDF752FA08BD10B586B00E
:102C9000044601210420FDF7F1FE01214804FDF75F
:102CA000FAFE4A48FEF760FE0420ADF81400032047
:102CB0008DF8160018208DF8170005A94448FDF777
:102CC00027FC0820ADF8140004208DF8170005A992
:102CD0003F48FDF71DFC01940020ADF80800ADF859
:102CE0000A00ADF80C00ADF810000C20ADF80E0095
:102CF00001A93648FEF77BFE01213448FEF703FFA9
:102D0000012280213148FEF72FFF4FF48063314AC2
:102D10002E49091D3048FFF719F9012240F22551CB
:102D20002A48FEF7FCFE41F61F41632000F071F8CF
:102D300000202A490880FFF795FF06B010BD10B5A6
:102D40002748007860B92148001D00882549234A9A
:102D50001288885421480088401C2049088018E0C7
:102D60001A48001D0088C1B21E481C4A12888154AE
:102D700000214FF08040FEF7ADFD1848008818B9DB
:102D800001218807FEF712FB14480088401C1349F4
:102D9000088010BD0FB438B505A800900D48009A02
:102DA000049900F0C5FF002000900A4800F08AFA5C
:102DB00084B221460848FFF7EEF800BF0A480068D1
:102DC0000028FBD138BC5DF814FB00000044004033
:102DD0000008014048090020800002402A0000202D
:102DE0002C000020480500208400024008B54FF464
:102DF000E060FDF797F91C208DF8000001208DF8A8
:102E000001008DF802008DF803006846FDF78FF988
:102E100008BD3EB505460C4601210846FDF73BFEC0
:102E20004FF08040FDF792FE4FF08040FEF7F2FA3F
:102E3000ADF80450ADF800400020ADF80600ADF844
:102E4000020069464FF08040FDF754FF01218807DA
:102E5000FEF772FD00214FF08040FEF7A7FB012234
:102E600011469007FEF7BDFA00214FF08040FEF7B3
:102E70009DFAFFF7BBFF3EBD10B50848008840F43F
:102E800000400649088000214FF08040FEF78EFA8E
:102E900001218807FEF764FD10BD00002A00002014
:102EA00030B500BF1F4800681F4AB0FBF2F1B1F116
:102EB000807F01D301201DE021F07F40401E4FF0B4
:102EC000E022506150170F22002807DA13071D0E69
:102ED000164B00F00F04241F1D5503E013071C0EB2
:102EE000134B1C5400BF00204FF0E02290610720DC
:102EF000106100200028D5D130BD0E49088000BFE8
:102F00000C4909880029FBD1704700B5024603E04F
:102F10004FF47A70FFF7F1FF1000A2F101018AB2BD
:102F2000F6D100BD1400002040420F0018ED00E073
:102F300000E400E02E000020FFF7B2FF40F2DC507A
:102F4000FFF7E3FF4FF41650FFF7F4FD4FF4E130C5
:102F5000FFF79CFE0A20FFF7E6FC40A000F0C4FE4D
:102F6000FFF79FFB0646092E32D2DFE806F005097F
:102F70000E13181D22272C0040A000F0B5FE27E0FC
:102F800049A000F0B1FE00F05BF850A000F0ACFEEC
:102F900000F056F857A000F0A7FE00F051F85EA030
:102FA00000F0A2FE00F04CF864A000F09DFE00F0DE
:102FB00047F86BA000F098FE00F042F872A000F015
:102FC00093FE00F03DF879A000F08EFE00F038F896
:102FD00000BF01207E49087000207E4908804FF420
:102FE00080617D4800F051F929E07A48008810F4AA
:102FF000004F18D077480088C0F30E042246764967
:10300000764800F029F90020724908807349085574
:1030100073A000F069FE714975A000F065FE6F496C
:1030200076A0FFF7B7FEB5F57A7F03DB002574A025
:10303000FFF7B0FE0120FFF768FF681C85B2D4E7F8
:103040007748006800F4E06076490843001D744941
:103050000860BFF3408F00BFFEE700000D0A455334
:103060005038323636D7BCB1B8C1ACBDD35443505A
:10307000B7FECEF1C6F7210D0A00000045535038C7
:10308000323636C9E8D6C3554450B3C9B9A6A3AC45
:10309000B2A2B3C9B9A6BDF8C8EBCDB8B4ABC4A34E
:1030A000CABD0D0A0000000045535038323636C8FC
:1030B000EDBCFEB8B4CEBBCAA7B0DC2120D7BCB1F2
:1030C000B8D6D8C6F4CFB5CDB30D0A0045535038A5
:1030D000323636C9E8D6C3535441C4A3CABDCAA7C1
:1030E000B0DC2120D7BCB1B8D6D8C6F4CFB5CDB3AB
:1030F0000D0A000045535038323636C1ACBDD341BD
:1031000050CAA7B0DC212CD7BCB1B8D6D8C6F4CFF2
:10311000B5CDB30D0A00000045535038323636B5F0
:10312000C44950BBF1C8A1CAA7B0DC212CD7BCB19F
:10313000B8D6D8C6F4CFB5CDB30D0A004553503834
:10314000323636BFAAC6F4CDB8B4ABCAA7B0DC21BC
:103150002CD7BCB1B8D6D8C6F4CFB5CDB30D0A00C4
:1031600045535038323636B9D8B1D5B6E0C2B7C1BA
:10317000ACBDD3CAA7B0DC212CD7BCB1B8D6D8C659
:10318000F4CFB5CDB30D0A0045535038323636C9A9
:10319000E8D6C3554450CAA7B0DC212CD7BCB1B87F
:1031A000D6D8C6F4CFB5CDB30D0A0000455350387C
:1031B000323636BDF8C8EBCDB8B4ABCAA7B0DC2107
:1031C0002CD7BCB1B8D6D8C6F4CFB5CDB30D0A0054
:1031D0002C0000202A00002048050020480D002077
:1031E000D3D0CAFDBEDDB7A2C0B40D0A00000000F6
:1031F000CAFDBEDD3A25730D0A00000025730000EC
:10320000CED2CAC7554450B1BEB5D8D6F7BBFAA383
:10321000ACC7EBB7A2CBCDCAFDBEDD210D0A0000C5
:103220000CED00E00000FA05704700BFFEE700BFAC
:10323000FEE700BFFEE700BFFEE77047704770473C
:103240000448008820B103480088401E01490880D6
:10325000704700002E00002040EA01039B0703D0C6
:1032600009E008C9121F08C0042AFAD203E011F8C5
:10327000013B00F8013B521EF9D27047D2B201E087
:1032800000F8012B491EFBD270470022F6E710B56B
:1032900013460A4604461946FFF7F0FF204610BDC4
:1032A00030B505462A460B4612F8010B13F8014BC0
:1032B00008B1A042F8D01CB1002802D06D1CF1E783
:1032C000284630BD421C10F8011B0029FBD1801A92
:1032D000704700000FB400B58DB010A909900B9095
:1032E00000914FF0FF300A9000200C9005480690A6
:1032F000054807906A4609A80F9900F0C1F80DB07B
:103300005DF814FB9D340008BB3400082DE9FF5F15
:10331000D2E901A74FF00008916999461446DDF8FB
:1033200038B0464601988847054659EA0B0005D053
:1033300009E0A169761C019888470546216A28465C
:1033400088470028F5D1681C03D05FEACA7005D011
:1033500015E04FF0FF3004B0BDE8F09F2068011D7C
:103360002160D0F800800AE05FEACA7001D108F855
:10337000015B7F1EA169761C019888470546002FD6
:103380001ADD681C18D0B9F1000F0DD0E81705EB55
:10339000D060421120F01F0059F822102A1A012093
:1033A00090400142E0D107E0BBF1000FDCD1216A7F
:1033B000284688470028D7D0E169019888470AF055
:1033C000010050EA0B0002D1002188F80010A0682B
:1033D000B84203DDBBF1000F03D017B16FF001005D
:1033E000B9E73046B7E730B50B460146002020224A
:1033F000012409E021FA02F59D4205D303FA02F502
:10340000491B04FA02F52844151EA2F10102F1DC61
:1034100030BD2DE9F05F0546002092469B46884668
:103420000646814640241BE0284641464746224640
:1034300000F029FA53465A46C01A914110D311465A
:103440001846224600F010FA2D1A67EB01084F4685
:1034500022460120002100F007FA17EB00094E4137
:10346000201EA4F10104DFDC484631462A464346CB
:10347000BDE8F09F02681144137801601846704758
:10348000D160044951610449116200211161114662
:1034900000F020BA75340008CB380008426842B109
:1034A000016811F8013B23B1521EC0E90012184611
:1034B00070470121C160881E704742685AB1C368D5
:1034C000016843B983688B4205D0491E521CC0E98C
:1034D0000012002070474FF0FF3070472DE9FE4F7B
:1034E000804681EA0300C00F0C46009021F00041A5
:1034F00023F00045B8EB0200A94105D24046214621
:1035000090461C460B46024623F00040104304D16F
:103510004046214603B0BDE8F08F270DC7F30A00EF
:10352000C3F30A510290401A0190402866DAC3F3AF
:10353000130040F4801B0098924620B10023D2EB88
:10354000030A63EB0B0B01985946C0F14002504649
:1035500000F08AF906460D4650465946019A00F099
:10356000A2F910EB08006141002487EA115284EAB5
:10357000E7731A433BD0009A3AB3019A012A4FEA03
:10358000075210DC001B61EB02014FF0004202EA1F
:103590000752CDE90042001C41F5801132462B460E
:1035A00000F03BFBB6E7001B61EB0201001C41F59C
:1035B000801300185B412018A2F5001747EB0301A8
:1035C00040EAD570B6196D4111E06D084FEA360634
:1035D00045EAC0754FEA0752001B61EB0201001C6F
:1035E00041F5801149084FEA300000195141324637
:1035F0002B4603B0BDE8F04F00F002BB009801225B
:1036000040000023D0EB020263EBE07300982146F8
:103610004FEAE074B8EB000061EB0401E9E783F0E6
:1036200000435BE781F0004158E72DE9FE4F81EA56
:10363000030404F0004421F0004100944FF0000B1B
:1036400023F0004350EA010402D052EA030404D1FB
:103650000020014603B0BDE8F08FC3F30A54C1F364
:103660000A552C44A4F2F3340194A0FB0254C1F394
:10367000130141F48011C3F3130343F4801301FBDE
:10368000024400FB034E840A970A44EA815447EA45
:103690008357A4FB076802958D0A05FB07854FEA4F
:1036A000932C04FB0C542705029D4FEA065847EA69
:1036B0001637B5EB08056EEB070C870E920E47EA3E
:1036C000811742EA8312A7FB0201B6EB0B0164EB00
:1036D00000042B0D43EA0C335E1844EB1C50DA4611
:1036E0005146E7FB0201C5F313044FEA0B3343EAEB
:1036F00014534FEA0432019C43EA0603A4F10C047C
:103700000294009CCDE900B400F087FAA2E72DE90D
:10371000F04D81EA030404F0004B21F0004514460B
:103720004FF0000A23F0004150EA050220D054EA8D
:1037300001021DD0C5F30A570246C5F31303C1F3B6
:103740001300C1F30A5640F4801543F48013A7EB2D
:103750000608101BD64608F2FD3873EB050002D3AD
:1037600008F1010801E092185B41B8F1000F03DA9B
:1037700000200146BDE8F08D00204FF48011064680
:1037800084460EE0171B73EB050705D3121B63EB92
:10379000050306434CEA010C49084FEA3000921831
:1037A0005B4150EA0107EDD152EA030012D082EAF0
:1037B000040083EA0501084303D100224FF00043CF
:1037C00008E0101BAB4102D20122002302E06FF09F
:1037D000010253101AEB06004CEB085110EB0A00E3
:1037E00041EB0B01BDE8F04D00F00ABAC1F30A52FB
:1037F000C1F3130140F2FF3341F480119A4202DA1F
:1038000000200146704740F233439A42A2F233420D
:1038100002DC524200F037B800F026B830B500297B
:1038200004DB4FF00044404264EB0101002B04DB59
:103830004FF00044524264EB0303994208BF9042A8
:1038400030BD0000064C074D06E0E06840F0010383
:1038500094E8070098471034AC42F6D3FCF74AFCD2
:103860003C4700085C470008202A04DB203A00FAA5
:1038700002F1002070479140C2F1200320FA03F3C7
:10388000194390407047202A04DB203A21FA02F0C5
:103890000021704721FA02F3D040C2F1200291408A
:1038A000084319467047202A06DBCB17203A41FA15
:1038B00002F043EAE07306E041FA02F3D040C2F1BD
:1038C00020029140084319467047C0B24FF4F051AE
:1038D00000F0F6B92DE9F34F8BB04FF0000801F17D
:1038E0000C000C464FF0010B46460DF1080A019002
:1038F000626901210198904705002DD0252D2CD01B
:10390000216A8847C0B16269012101989047216A04
:1039100088470028F7D1411E62690198904700E06E
:10392000761CA1690B988847216A88470028F7D13F
:10393000E1690B988847DBE7A1690B988847074640
:10394000A84201D1761CD3E7E1690B9888477F1C18
:1039500002D1B8F1000F6FD045E1002762693D4602
:103960003946019890472A2804D1626901210198BB
:1039700090470125DFF88492626901210198904700
:10398000A0F130010A290AD24F45E5DC07EB870197
:1039900000EB4107303FDFD445F01005ECE7E906C6
:1039A00001D46FF000476C280AD04C2814D0682846
:1039B00015D06A280DD074281CD07A281AD01DE0A2
:1039C00062690121019890476C2802D045F00405F6
:1039D00014E045F002050DE045F020050AE06269BB
:1039E000012101989047682802D045F0080505E0BC
:1039F00045F400656269012101989047C4E90157C7
:103A000065283DD019DC582879D00CDC452837D002
:103A100004DC252826D0412831D131E046282FD09A
:103A200047282CD12CE05B287FD0612828D0632840
:103A30007BD0642823D159E0CFE06F2847D008DC41
:103A400066281DD067281BD0692821D06E2816D182
:103A500027E0702844D0732867D0752846D078288E
:103A60000DD14CE0A1690B988847054625283FF405
:103A700069AFE1690B9888476D1C3FF46AAFB2E00B
:103A800023466A466FF001000B99AFF300809DE07A
:103A900045F040006060A80723464FF0000235D48F
:103AA0003DE0206800F1040121600068290501D58E
:103AB00006701DE7290701D5068019E7A90704D577
:103AC0004FEAE671C0E9006112E7066010E745F0D1
:103AD00040006060A80723464FF0080216D41EE09D
:103AE00040F60E0125EA0100606016E045F0400056
:103AF0006060A80723464FF00A0207D40FE045F0A4
:103B000040006060A80708D5234610226FF001002E
:103B10000B99AFF3008059E007E0234610226FF0C5
:103B200001000B99AFF3008050E04FF000094F46C1
:103B30004B46632802D05B2806D040E0E80601D45B
:103B40000120A06001273AE06269012101989047B5
:103B50005E2805D14FF001096269494601989047F6
:103B6000216939B900210B46524642F82130491CDF
:103B70000829FADBB0B3216969B9C11700EBD1613B
:103B80004B110AEB830221F01F01411A0120136837
:103B900088400343136062690121019890475D28C2
:103BA000E8D1B9F1000F09D00020514651F820208A
:103BB000D24341F82020401C0828F7DB02AB224604
:103BC00000976FF001000B99FFF7A0FB00280CDABB
:103BD000401C08D1BBF1000F05D04FF0FF300DB0F5
:103BE000BDE8F08FFFE74046F9E7E90701D108F1AA
:103BF000010806444FF0000B7AE60000CCCCCC0C58
:103C000010B5002B08DA401C41F1000192185B410D
:103C10001A4301D120F0010010BD2DE9F04D92466C
:103C20009B4611B1B1FA81F202E0B0FA80F2203283
:103C30009046FFF719FE04460F4640EA0A0041EAA3
:103C40000B0153465A46084303D120463946BDE886
:103C5000F08D114653EA010015D0C8F140025046DC
:103C6000FFF711FE05460E46504659464246FFF7FD
:103C7000FBFD084301D0012000E00020054346EA97
:103C8000E0762C4337430A984FEA4453A0EB0800F0
:103C90004FEAD4240A304FF0000244EA47544FEA76
:103CA000D72502D500200146D1E701051019694149
:103CB000DDE9084500196941BDE8F04DA0E70000C5
:103CC0007F2801D9002208E0064A02EB5002C00713
:103CD000127800D1120902F00F0201209040084032
:103CE00070470000FA4600080FB4054B10B503A951
:103CF000044A029800F0ECF810BC5DF814FB0000D8
:103D0000352C0008300000200FB4084B10B504A972
:103D100002AA039800F0DCF8044602A9002000F093
:103D2000E2FC204610BC5DF814FB0000E7460008EA
:103D300037B514460846064B6A46214600F030F96E
:103D400004466946002000F0D3FC20463EBD00003A
:103D5000F146000802E008C8121F08C1002AFAD183
:103D600070477047002001E001C1121F002AFBD1FB
:103D7000704700002DE9FF5FDDE90220010DDDF84D
:103D800038B0024310D10F9801244CA2012808D06A
:103D9000002100980F9BC0E90021C0E90243BDE863
:103DA000FF9F6FEA0B01F4E7A1F2FF3144F61050D8
:103DB00041430D140F9801280ED0A5EB0B00401CB9
:103DC0004FF000043E4EDFF8FC90B0F1000AA04630
:103DD00005DACAF1000717E0CBF10000F0E707466B
:103DE00012E0F80707D02246334640464946FFF71F
:103DF0001CFC804689462246334610461946FFF78A
:103E000014FC04460E467F10002FEAD1DDE90201C2
:103E1000BAF1000F42464B4602DAFFF706FC01E01A
:103E2000FFF775FC04460E460022274BFFF7F6FC11
:103E300003D84FF0FF30014607E00022234B204615
:103E40003146FFF74BFBFFF7D1FC102409E0002CB3
:103E50000ADB0A220023FFF7DCFA019B30321A55F5
:103E6000641E50EA0102F2D1641C019AC4F11103EC
:103E700014440F9A012A09D00122084301D15B455D
:103E80000FDD4FF0000205F101050DE0084303D1FD
:103E9000A3EB0B056D1E09E000204FF0110B0F90F6
:103EA00088E701DA00226D1E002A83D000980F995E
:103EB000C0E90231C0E9004571E7000030000000B0
:103EC000000024400000F03F0000F0430000E03F0D
:103ED0002DE9F84F9946924688460546002759E055
:103EE000252801D0514623E0002315F8011F18466C
:103EF0002E2915D115F8011F04232A290DD06FF0A2
:103F00002F022978A1F13004092C09D800EB800098
:103F100002EB400008446D1CF3E758F8040B6D1CDD
:103F20002A7872B3632A08D0732A10D051461046FB
:103F30004A46904707F101072BE018F8042B8DF84B
:103F4000002000218DF801106E46012103E058F891
:103F5000046B4FF0FF315A074FF0000401D409E021
:103F6000641C84420BDA8C42FADB325D002AF7D102
:103F700005E0641C8C42FCDB305D0028F9D127444D
:103F800005E00AE016F8010B51464A469047641EC8
:103F9000F8D26D1C28780028A2D13846BDE8F88FE9
:103FA0002DE9FF4F95B09B4689460646002512E253
:103FB000252878D10024761CF94A2746012105944A
:103FC0003378203B01FA03F0104202D00443761C00
:103FD000F6E730782A2811D06FF02F033078A0F15F
:103FE0003002092A16D8059A44F0020402EB820234
:103FF00003EB42021044761C0590EFE759F8042BBE
:104000000592002A03DA504244F40054059044F02B
:104010000204761C30782E2816D116F8010F44F0D1
:1040200004042A280DD06FF02F023078A0F130035D
:10403000092B09D807EB870302EB4303C718761C4B
:10404000F3E759F8047B761C30786C280FD006DC37
:104050004C2817D068280DD06A2814D104E07428A1
:1040600010D07A280FD10DE044F400140AE044F493
:10407000801401E044F440147278824202D1761C2C
:1040800004F58014761C307866280BD013DC582891
:1040900077D009DC002875D04528F6D04628F4D022
:1040A00047281AD19FE118E0632835D0642879D0D9
:1040B000652812D197E1702873D008DC6728F1D009
:1040C00069286FD06E280DD06F2806D1B5E073280F
:1040D0002CD0752875D0782874D05A4617999047F7
:1040E0006D1C76E1C4F30250022809D003280DD0DC
:1040F000D9F8001004280DD00D6009F1040968E119
:10410000D9F80010EA17C1E90052F6E7D9F8001013
:104110000D80F2E70D70F0E719F8041B8DF8001020
:1041200000208DF80100EA46012003E059F804ABB5
:104130004FF0FF3061074FF0000102D40DE008F1AD
:1041400001018846B9420FDA8045F8DB1AF80810F9
:104150000029F4D108E008F1010188468142FADB28
:104160001AF808100029F6D105985B46A0EB08075D
:1041700021463846179A00F09EFA284400EB0805BD
:1041800007E04DE02BE10DE01AF8010B5A461799B4
:104190009047B8F10108F7D25B4621463846179A96
:1041A00014E142E00A220092C4F302524FF0000AE6
:1041B000022A08D059F804CB032A4FEAEC710AD03E
:1041C0000DE029E02AE009F1070121F00702F2E8F9
:1041D00002C1914609E00FFA8CFC4FEAEC71042A07
:1041E00003D14FFA8CFC4FEAEC71002907DA0A463A
:1041F0000021DCF1000C61EB02012D2202E022051E
:1042000004D52B228DF80420012203E0E20701D01F
:104210002022F7E7904653E00A2102E010220DE049
:1042200010214FF0000A00910BE010224FF0000A1D
:1042300044F004040827009203E008224FF0000A2B
:104240000092C4F30252022A05D059F804CB00218F
:10425000032A08D009E009F1070121F00702F2E87A
:1042600002C1914605E01FFA8CFC042A01D10CF032
:10427000FF0C4FF00008220722D5702827D0009BA2
:1042800083F0100353EA0A0309D15CEA010206D065
:1042900030228DF804208DF8050002229046009B04
:1042A00083F0080353EA0A030AD15CEA010201D150
:1042B000620705D530228DF804204FF001087F1EDB
:1042C000582809D037A003900EA8029013E040228E
:1042D0008DF804200122E1E737A0F4E75346604659
:1042E000009AFFF796F884460398825C0298A0F142
:1042F0000100029002705CEA0100EFD1029806A969
:10430000A1EB000000F1200A600702D524F48034FC
:1043100000E00127574502DDA7EB0A0000E000207E
:1043200000EB0A01009005984144A0EB01000590C4
:10433000E00306D45B462146179A059800F0BBF9C6
:104340000544002706E001A85A46C05D179990472A
:104350006D1C7F1C4745F6DBE0030CD55B46214610
:10436000179A059800F0A7F9054404E030205A4652
:10437000179990476D1C0099481E00900029F5DCA4
:1043800008E0029802995A460078491C0291179950
:1043900090476D1CBAF10001AAF1010AF1DC6BE152
:1043A000092801003031323334353637383961620B
:1043B00063646566000000003031323334353637CF
:1043C00038394142434445460000000000F060F99E
:1043D000054406F10106307800287FF4E9AD19B0F4
:1043E0002846BDE8F08F620700D4062709F10702CE
:1043F00022F0070CFCE80223E14603F000485FEAE4
:10440000080C02D00FF27C2C0DE05FEA045C02D5B0
:104410000FF2742C07E05FEAC47C02D00FF26C2C20
:1044200001E0AFF2700C4FF0FF3823F00043CDF8FD
:1044300050C065280CD006DC452809D046281DD080
:1044400047283ED13EE0662818D0672839D139E0A8
:104450000021112F01DB112000E0781CCDE90001C3
:1044600006A90EA8FFF786FCDDE90F010E9A03915D
:104470000021009207F1010A04914EE04FF0004044
:104480000097CDE9011006A90EA8FFF773FCDDE93E
:104490000F0203920E9B11990022DDF80CA00093ED
:1044A000049219B907F1010100EB010AB7EB0A0008
:1044B00004D4C0F1FF3007F1010A0490AAEB070011
:1044C000019046E0012F00DA01270021112F01DDC4
:1044D000112000E03846CDE9000106A90EA8FFF73B
:1044E00049FCDDE90F010E9A03910021049100922D
:1044F000BA4621070CD40399514500DA8A46BAF12D
:10450000010F05DD009AAAF10101515C302908D0A4
:10451000B84202DA10F1040F06DA0121CDE90110E8
:1045200017E0AAF10101E9E7002805DC049901443C
:104530000491AAEB000102E0411C514500DD8A46CE
:104540000499A0EB010000F1010001904FF0004040
:104550000290200704D40198504501DBCDF8048077
:1045600000208DF84F0002980DF14F07B0F1004F79
:1045700025D02B200E9002984FF0020800280CDA6C
:10458000404202902D200E9007E00A210298FEF78B
:104590002AFF3031029007F8011DB8F10001A8F19F
:1045A0000108F2DC02980028EFD1791E0E980870FD
:1045B000307800F0200040F0450007F8020D12A806
:1045C000A0EB070000F107081498007800B1012063
:1045D00000EB0A01019801EBE07105984144A0EB62
:1045E0000100A0F101000590E00306D45B462146DE
:1045F000179A059800F05FF805441498007820B1E8
:104600005A461799904705F10105E00323D55B460B
:104610002146179A059800F04EF805441BE00498CF
:10462000002807DBDDE90301884203DD0098405CD8
:10463000179901E0179930205A46904704986D1C4D
:10464000401C04900198401E019004D12E205A462F
:10465000179990476D1CBAF10001AAF1010ADEDC3E
:1046600005E017F8010B5A46179990476D1CB8F1F1
:104670000001A8F10108F4DC5B462146179A059871
:10468000A4E600002D0000002B0000002000000028
:104690002DE9F041044600251E461746880405D43E
:1046A00006E039462020B04705F10105641EF8D523
:1046B0002846BDE8F0812DE9F041044600251E465C
:1046C0009046C80301D5302700E02027880405D58F
:1046D00006E041463846B04705F10105641EF8D5AD
:1046E0002846BDE8F0810A68531C0B6010707047C3
:1046F0000A68531C0B6010707047DDDDDDDDDCBB2C
:10470000BBDDDDDDDDDDDDDDDDDD988888888888E9
:10471000888877777777778888888555555666664D
:1047200066666666666666688888833333322222E8
:104730002222222222222228888D00005C470008A3
:104740000000002034000000543D0008904700089D
:104750003400002014150000643D00080000000033
:104760000102030401020304060708090204060803
:1047700000A24A040000000000000000010203043F
:10478000060708090000000000000000000000000B
:04000005080000ED02
:00000001FF
