:020000040800F2
:10000000881D002001010008C5560008C7560008D9
:10001000CB560008CF560008D35600080000000059
:10002000000000000000000000000000D75600089B
:10003000D956000800000000DB560008DD56000815
:100040001B0100081B0100081B010008B94700083C
:100050001B0100081B0100081B0100081B01000810
:100060001B0100081B0100081B0100081B01000800
:100070001B0100081B0100081B0100081B010008F0
:100080001B0100081B0100081B0100081B010008E0
:100090001B0100081B0100081B0100086F4300083A
:1000A0001B0100081B0100081B0100081B010008C0
:1000B000A93200081B0100081B0100081B010008F1
:1000C0001B0100081B0100081B0100081B010008A0
:1000D0001B010008EF2F0008733100081B01000806
:1000E000294300081B0100081B010008DFF80CD0A1
:1000F00005F0EEFF004800474D500008881D002025
:100100000648804706480047FEE7FEE7FEE7FEE7B1
:10011000FEE7FEE7FEE7FEE7FEE7FEE74B2200080C
:10012000ED00000831490143314A1160704770B554
:10013000002100230F22C47804B32D4C246804F45A
:10014000E064C4F5E064210AC1F10403CA404478C4
:1001500004FA03F18478144021430901254C067800
:10016000A155047804F01F050124AC4005786D11F9
:10017000AD0005F1E025C5F8004109E0047804F080
:100180001F050124AC401C4D0678761145F8264029
:1001900070BD1A4A0A400243154B1B1F1A60704774
:1001A00039B1134A121D12680243114B1B1D1A600C
:1001B00006E00F4A121D126882430D4B1B1D1A6088
:1001C0007047042808D14FF0E021096941F004018B
:1001D0004FF0E022116107E04FF0E021096921F0C2
:1001E00004014FF0E0221161704700000000FA05A1
:1001F0000CED00E000E400E080E100E080FFFF1F84
:1002000010B5012000F0CCFD002000F0C9FD10BDAC
:100210002A49086070472949091F08607047274923
:1002200084310860704701460020254A10884FF647
:100230007F4210400843224A108070470146002048
:100240001F4A10884FF68072104008431C4A1080E5
:10025000704708B500220092194A2C3A0092009A81
:1002600002440092009A116008BD08B501460020C2
:10027000009013482C380090009808440090009893
:10028000008808BD0D489C300068C0B270470C481B
:100290000830008840F001000949083108807047A3
:1002A0000648A0300068C0B2704705480830008892
:1002B00040F00200024908310880704704860D4270
:1002C0002C6C004001684FF6FE7211400160002165
:1002D000016041608160C1608D49884208D18C49CC
:1002E0000839496841F00F01894A083A51608AE0AB
:1002F00087491431884208D185490839496841F055
:10030000F001834A083A51607DE0814928318842F2
:1003100008D17F490839496841F470617C4A083A3C
:10032000516070E07A493C31884208D178490839F7
:10033000496841F47041764A083A516063E0744973
:100340005031884208D172490839496841F4702116
:100350006F4A083A516056E06D496431884208D1CD
:100360006B490839496841F47001694A083A51609B
:1003700049E067497831884208D1654908394968B8
:1003800041F07061624A083A51603CE0614988423C
:1003900006D1011F096841F00F01021F116032E010
:1003A0005C491431884208D15A49091F096841F053
:1003B000F001584A121F116025E056492831884241
:1003C00008D15449091F096841F47061514A121F4C
:1003D000116018E04F493C31884208D14D49091F4E
:1003E000096841F470414B4A121F11600BE0494902
:1003F0005031884207D14749091F096841F47021EB
:10040000444A121F1160704710B50022026847F677
:10041000F0739A430C6A8B6823430C6923434C693D
:1004200023438C692343CC6923434C6A23438C6A5E
:1004300023431A430260CB6843600B6883604B68B8
:10044000C36010BD0021016041608160C160016135
:1004500041618161C161016241628162704721B184
:10046000026842F00102026004E002684FF6FE7387
:100470001A40026070471AB103680B43036002E040
:1004800003688B43036070474160704701464868CA
:1004900080B2704701460020002201F080531BB15A
:1004A0001C4B083B1A6802E0194B083B1A6802EA29
:1004B00001030BB1012000E00020704700F08051E3
:1004C00019B11449091F086002E011490839486050
:1004D000704701460020002201F080531BB10D4BF4
:1004E000083B1A6802E00A4B083B1A6802EA01035B
:1004F0000BB1012000E00020704700F0805119B1DD
:100500000449091F086002E0014908394860704742
:100510000800024008040240002044490860091D08
:100520000860091D0860091D086041483F491431F1
:100530000860704700213D498279002A3AD00A4676
:10054000126803689A430B461A600A1D1268036812
:100550009A430B1D1A60027911440A6803681A4312
:100560000A60324A0832126803689A432F4B0833F4
:100570001A601A1D126803689A432C4B0C331A60D8
:100580004279102A0ED11A1F126803681A43274BAA
:1005900008331A601A1D126803681A43234B0C3380
:1005A0001A600DE02149427911440A6803681A4330
:1005B0000A6005E0027911440A6803689A430A60F8
:1005C00070470021016001710C214171002181718E
:1005D00070471649103109680143144A10321160FE
:1005E000704701460020114A143212680A400AB1CD
:1005F000012000E0002070470C491431086070476A
:10060000014600200022094B1B6803EA0102074B48
:1006100014331B680B4013B10AB1012000E0002025
:10062000704702491431086070470000000401401F
:10063000FFFF0F0010B50446CC48844208D10121C9
:10064000042000F093FB0021042000F08FFB46E023
:10065000C748844208D10121082000F087FB00210F
:10066000082000F083FB3AE0C248844208D101210F
:10067000102000F07BFB0021102000F077FB2EE023
:10068000BD48844208D10121202000F06FFB0021E9
:10069000202000F06BFB22E0B848844208D1012101
:1006A000402000F063FB0021402000F05FFB16E0DB
:1006B000B348844208D10121802000F057FB00217B
:1006C000802000F053FB0AE0AE48844207D10121AC
:1006D000801500F04BFB0021A01500F047FB10BD7A
:1006E00010B50121084600F041FB0021012000F077
:1006F0003DFB10BD2DE9F0410246002500260020FB
:1007000000230024002791F803C00CF00F0591F896
:1007100003C00CF0100CBCF1000F03D091F802C024
:100720004CEA050591F800C0BCF1000F31D0146807
:1007300000202BE04FF0010C0CFA00F3B1F800C0E0
:100740000CEA03069E4220D183004FF00F0C0CFAF6
:1007500003F7BC4305FA03FC4CEA040491F803C018
:10076000BCF1280F06D14FF0010C0CFA00FCC2F8C6
:1007700014C00AE091F803C0BCF1480F05D14FF056
:10078000010C0CFA00FCC2F810C0401C0828D1D3A0
:100790001460B1F800C0BCF1FF0F34DD54680020D4
:1007A0002EE000F1080C4FF0010808FA0CF3B1F844
:1007B00000C00CEA03069E4221D183004FF00F0CCB
:1007C0000CFA03F7BC4305FA03FC4CEA040491F865
:1007D00003C0BCF1280F05D100F1080C08FA0CF891
:1007E000C2F8148091F803C0BCF1480F07D100F1A2
:1007F000080C4FF0010808FA0CF8C2F81080401CF1
:100800000828CED35460BDE8F0814FF6FF71018017
:10081000022181700421C170704702460020936854
:100820000B400BB1012000E00020704701468868B2
:1008300080B2704702460020D3680B400BB1012004
:1008400000E0002070470146C86880B2704701612F
:100850007047416170470AB1016100E04161704732
:10086000C16070474FF480320A43826181618261C6
:1008700082698269704702460020434B18684FF630
:100880008073184040EA021008433F4B18607047DD
:100890003E49C8617047F0B50A4600230024002194
:1008A000002500F00046B6F1004F02D1364EF16946
:1008B00001E0354E7168C0F3034583B200F4401681
:1008C000B6F5401F08D121F070612F4E766826F0F2
:1008D00070662D4F7E6012E000F48016B6F5801F22
:1008E00006D1032606FA05F4A14341F0706106E043
:1008F000460D360103FA06F6B14341F0706122B1AC
:10090000460D360103FA06F6314300F00046B6F113
:10091000004F02D11C4EF16101E01B4E7160F0BD31
:1009200030B500228B071C0F0F2303FA04F2164B7D
:1009300008338C1053F824309343134C08348D1033
:1009400044F8253023468C1053F824308C07240FAC
:1009500000FA04F423430C4C08348D1044F825307D
:1009600030BD0A49DC3108607047000000080140D2
:10097000000C01400010014000140140001801402B
:10098000001C014000200140000001400000204206
:1009900010B50121080700F0F6F900214FF0805052
:1009A00000F0F1F910BD2A49086270472849086132
:1009B000704701460020274A106820F0E0000843F5
:1009C000106070472249A0310860704710B5024698
:1009D0000020204B186820F00300104318601E4BC5
:1009E0001B6843F004031C4C2360012901D130BF74
:1009F00000E020BF184B1B6823F00403164C236053
:100A000010BD1448006840F0040012490860084610
:100A1000006840F0020008600F48006840F00400E1
:100A20000D49086000BF00BF30BF7047014600207D
:100A3000084A52680A400AB1012000E000207047CD
:100A40000449096841EA8001024A116070470000C8
:100A500000000E420070004010ED00E0DF4800682A
:100A600040F00100DD49086008464068DC49084064
:100A7000DA49486008460068DA490840D749086002
:100A80000846006820F4802008600846406820F48A
:100A9000FE0048604FF41F0088607047CF49096826
:100AA00021F48031CD4A11601146096821F480217A
:100AB0001160B0F5803F03D0B0F5802F0ED106E075
:100AC000C649096841F48031C44A116007E0C3494E
:100AD000096841F4A021C14A116000E000BF00BFD5
:100AE000704710B501460022002300204A11012A58
:100AF00002D1BA4C236806E0022A02D1B74C236A1D
:100B000001E0B64C636A01F01F02012494401C40CE
:100B10000CB1012000E0002010BD38B5002000908D
:100B20000024002500BF3120FFF7DBFF05460098B9
:100B3000401C00900098B0F5A06F01D0002DF2D0BD
:100B40003120FFF7CEFF08B1012400E00024204649
:100B500038BD01460020A14A106820F0F80040EAA4
:100B6000C10010607047A04908607047024600202D
:100B70009A4B586820F47C1042EA01031843974BC3
:100B80005860704798490866704701460020934AAC
:100B9000506820F003000843506070478F48406859
:100BA00000F00C007047014600208C4A506820F08D
:100BB000F00008435060704701460020874A5068A3
:100BC00020F4E06008435060704701460020834AEB
:100BD000506820F4605040EAC1005060704729B16D
:100BE0007E4A527A02437D4B5A7204E07B4A527A23
:100BF00082437A4B5A7270477B49D83108607047FC
:100C000001460020754A506820F440400843506077
:100C100070470021714A20321170704A82F820100A
:100C2000012802D004280AD104E001216B4A2032B5
:100C3000117005E00521694A2032117000E000BF03
:100C400000BF70476949086070476449096A0143F9
:100C5000624A11627047654944390860704730B58F
:100C600000210022002400235C4D6D6805F00C017A
:100C700021B1042905D0082923D105E05C4D056088
:100C800022E05B4D05601FE0544D6D6805F4701265
:100C9000524D6D6805F48034022505EB92421CB973
:100CA000544D554305600BE04C4D6D6805F400351F
:100CB0001DB1504D5543056002E04D4D5543056053
:100CC00002E04B4D056000BF00BF444D6D6805F06C
:100CD000F0010909484D6B5C0568DD4045603F4DFA
:100CE0006D6805F4E061090A434D6B5C4568DD40C1
:100CF00085603A4D6D6805F46051C90A3E4D6B5CE4
:100D00004568DD40C560354D6D6805F44041890B8F
:100D10003A4D6B5CC568B5FBF3F5056130BD29B193
:100D20002E4A526902432D4B5A6104E02B4A526904
:100D300082432A4B5A61704729B1284A926902437B
:100D4000264B9A6104E0254A92698243234B9A61BB
:100D5000704729B1214AD2690243204BDA6104E08D
:100D60001E4AD26982431D4BDA61704729B11B4A82
:100D7000D2680243194BDA6004E0184AD268824311
:100D8000164BDA60704729B1144A12690243134BBB
:100D90001A6104E0114A12698243104B1A617047CC
:100DA00012494039086070470F49C86470470B49C1
:100DB000C87170470948406A40F08070074948622E
:100DC000704701460020054A92680A400AB1012096
:100DD00000E000207047014988727047001002400F
:100DE0000000FFF8FFFFF6FE00004242800442428E
:100DF00000127A0000093D000000002010000020D1
:100E000029B1504A128802434E4B1A8004E04D4AE1
:100E1000128882434B4B1A8070474A48001D008855
:100E200040F010004749091D088070474548001DE3
:100E300000884FF6EF7108404249091D088070474D
:100E4000002140481C300188001F008841EA004012
:100E5000704700B50246FFF7E0FF100C3949183122
:100E60000880091D0A80FFF7E1FF00BD00B50246BA
:100E7000FFF7D3FFC2F30340324908310880091D50
:100E80000A80FFF7D3FF00BD00B50246FFF7C5FF9C
:100E9000100C2C4920310880091D0A80FFF7C6FF7D
:100EA00000BD00202749103109880907080B254992
:100EB000143109880843704700BF2248001D00888C
:100EC00000F020000028F8D070471E48001D008860
:100ED0004FF6F77108401B49091D088000BF1948EB
:100EE000001D008800F008000028F8D07047014677
:100EF0000020144A121D12880A400AB1012000E0A5
:100F0000002070470F49091D098881430D4A121DB1
:100F100011807047014600200A4A121D12880A40BB
:100F2000D0B2084A12880A4012B108B1012000E08C
:100F3000002070470349091D09888143014A121D99
:100F4000118070470028004010B50446FE488442D6
:100F500008D10121C014FFF709FF0021E014FFF7B9
:100F600005FFC4E0B4F1804F08D101210846FFF726
:100F70000AFF00210120FFF706FFB8E0F348844292
:100F800008D101210220FFF7FEFE00210220FFF719
:100F9000FAFEACE0EE48844208D101210420FFF7BC
:100FA000F2FE00210420FFF7EEFEA0E0E9488442B3
:100FB00008D101210820FFF7E6FE00210820FFF7F5
:100FC000E2FE94E0E448844208D101211020FFF7BA
:100FD000DAFE00211020FFF7D6FE88E0DF488442C9
:100FE00008D101212020FFF7CEFE00212020FFF7AD
:100FF000CAFE7CE0DA48844208D101214014FFF7A0
:10100000B5FE00216014FFF7B1FE70E0D5488442C0
:1010100009D10121C804FFF7A9FE00214FF40020E7
:10102000FFF7A4FE63E0D048844209D101210805FE
:10103000FFF79CFE00214FF48010FFF797FE56E06B
:10104000CA48844209D101214805FFF78FFE0021DB
:101050004FF40010FFF78AFE49E0C548844208D1EA
:1010600001214020FFF78FFE00214020FFF78BFE7B
:101070003DE0C048844208D101218020FFF783FE73
:1010800000218020FFF77FFE31E0BB48844208D179
:1010900001218015FFF777FE0021A015FFF773FEF1
:1010A00025E0B648844209D101210804FFF75EFE1D
:1010B00000214FF48030FFF759FE18E0B048844219
:1010C00009D101214804FFF751FE00214FF40030FF
:1010D000FFF74CFE0BE0AB48844208D101218804A5
:1010E000FFF744FE00214FF48020FFF73FFE10BDC4
:1010F00000220288944B98420ED0994B98420BD014
:10110000B0F1804F08D0914B984205D0904B984257
:1011100002D0904B984204D14FF68F731A404B88FF
:101120001A438D4B984207D08C4B984204D04FF60F
:10113000FF431A40CB881A4302808B8883850B8833
:101140000385814B98420BD0854B984208D08B4B3E
:10115000984205D08A4B984202D08A4B984201D1DE
:101160000B7A038601238382704770B50024002226
:101170000023058C4FF6FE7635400584028C83886B
:10118000048B4FF68F752C40B51E2C400D882C43D8
:10119000751E2A400D892A434D882A436A4DA8426C
:1011A0000BD06F4DA84208D0744DA84205D0744DA5
:1011B000A84202D0734DA84213D14FF6F7752A40CA
:1011C0004D892A434FF6FB752A408D882A434FF6F6
:1011D000FF652B404FF6FF552B408D892B43CD8962
:1011E0002B4383800483CD888586028470BD70B5CF
:1011F000002400220023058C4FF6EF76354005844D
:10120000028C8388048B48F6FF752C404FF6FF450F
:101210002C400D884FF6FF7606EA05252C434FF645
:10122000DF752A400D8906EA05152A434D8806EA2E
:1012300005152A43444DA84202D0494DA8421DD16C
:101240004FF67F752A404D894FF6FF7606EA051561
:101250002A434FF6BF752A408D8806EA05152A43B2
:101260004FF6FF352B404FF2FF752B408D8906EA74
:1012700085052B43CD8906EA85052B4383800483AE
:10128000CD880587028470BD70B50024002200233C
:10129000058C4FF6FF6635400584028C8388848B6D
:1012A0004FF68F752C404FF6FC752C400D882C4363
:1012B0004FF6FF552A400D894FF6FF7606EA0525C1
:1012C0002A434D8806EA05252A431F4DA84202D02D
:1012D000234DA8421DD14FF2FF752A404D894FF68C
:1012E000FF7606EA05252A434FF6FF352A408D880A
:1012F00006EA05252A434EF6FF752B404DF6FF758D
:101300002B408D8906EA05152B43CD8906EA051584
:101310002B4383808483CD888587028470BD70B51C
:10132000002200230024058C4EF6FF76354005840C
:10133000038C8488828B48F6FF752A404FF6FF4560
:101340002A400D8820E00000002C014000040040ED
:1013500000080040000C0040001000400014004055
:1013600000340140004C0140005001400054014055
:1013700000180040001C00400020004000400140D8
:1013800000440140004801404FF6FF7606EA05257B
:101390002A434DF6FF752B400D8906EA05352B4390
:1013A0004D8806EA05352B43FA4DA84202D0FA4D86
:1013B000A84208D14BF6FF752C408D894FF6FF7679
:1013C00006EA85152C4384808283CD88A0F840509E
:1013D000038470BD828B4FF2FF331A408283828B6D
:1013E0004FF6FF7303EA01231A4382837047F0B577
:1013F0000C461546002200210026078C4EF6FF7C85
:1014000007EA0C070784828B018C4FF6FF7707EA07
:10141000043640F6FF473A404FF6FF7707EA0527C4
:101420003A434FF6FF7707EA03373A43D94FB842BA
:101430000ED0D94FB8420BD0B0F1804F08D0D74F63
:10144000B84205D0D64FB84202D0D64FB84206D1E6
:101450004DF6FF77394046F48057394305E047F6AB
:10146000FF57394044F48057394382830184F0BDEB
:10147000828B4FF6F3731A408283828B0A438283F6
:101480007047F0B50C461546002200210026078C57
:101490004FF6FF6C07EA0C070784828B018C4FF62E
:1014A000FF7707EA04264FF60C773A404FF6FF77AE
:1014B00007EA03172F433A43B64FB8420ED0B64F50
:1014C000B8420BD0B0F1804F08D0B44FB84205D02D
:1014D000B34FB84202D0B34FB84206D14FF6FF57D0
:1014E000394046F48077394305E04FF2FF573940E1
:1014F00044F48077394382830184F0BD028B4FF23C
:10150000FF331A400283028B4FF6FF7303EA012375
:101510001A4302837047F0B50C461546002200219D
:101520000026078C4FF6EF7C07EA0C070784028B36
:10153000018C4FF6FF7707EA041640F6FF473A4062
:101540004FF6FF7707EA03373A434FF6FF7707EA8C
:1015500005273A438F4FB8420ED08F4FB8420BD079
:10156000B0F1804F08D08D4FB84205D08C4FB842B3
:1015700002D08C4FB84206D14FF6DF77394046F0A3
:101580001007394305E04FF65F77394044F0100704
:10159000394302830184F0BD028B4FF6F3731A4086
:1015A0000283028B0A4302837047F0B50C4615464E
:1015B00000220021068C4FF6FE773E400684028B07
:1015C000018C4FF60C7632407E1C06EA03162E4341
:1015D0003243704EB0420ED06F4EB0420BD0B0F1DD
:1015E000804F08D06D4EB04205D06D4EB04202D053
:1015F0006C4EB04206D14FF6FD76314044F0010604
:10160000314305E04FF6F576314044F001063143B1
:1016100002830184F0BD70B505460C465D488542E5
:101620000ED05D4885420BD0B5F1804F08D05B48A5
:10163000854205D05A48854202D05A48854200D199
:1016400000E000BF208850B92389A288618828461D
:10165000FFF7ABFFE1882846FFF79EFF25E02088D3
:1016600004280AD12389A28861882846FFF753FFFE
:10167000E1882846FFF742FF17E0208808280AD1B2
:101680002389A28861882846FFF7FBFEE188284667
:10169000FFF7EEFE09E02389A28861882846FFF75C
:1016A000A6FEE1882846FFF795FE70BD2DE9F041C2
:1016B00005460C4600260127608808B9022600E08E
:1016C0000026A088012801D1022700E001272088F8
:1016D000A0B92389A28861882846FFF766FFE188C0
:1016E0002846FFF759FF23893A4631462846FFF737
:1016F00012FFE1882846FFF701FF13E02389A28843
:1017000061882846FFF707FFE1882846FFF7F6FEC5
:1017100023893A4631462846FFF747FFE1882846A5
:10172000FFF73AFFBDE8F0810A884B881A438B889F
:101730001A43CB881A430B891A434B891A438B8966
:101740001A43A0F8442070474FF6FF7181800021B2
:101750000180C18041800172704700210180418079
:101760008180C180018141818181C18170470021D7
:1017700001804180012181800021C1800181704769
:101780000021018041808180C1800181418181816E
:1017900070470000002C014000340140000400406C
:1017A00000080040000C004021B1028842F0010214
:1017B000028004E002884FF6FE731A4002807047F0
:1017C00031B1B0F8442042F40042A0F8442005E0D2
:1017D000B0F84420C2F30E02A0F8442070471AB1BA
:1017E00083890B43838102E083898B438381704724
:1017F0008182704741EA0203A0F8483070471AB16D
:1018000083890B43838102E083898B438381704703
:1018100001894FF6F8721140018170470A46002194
:1018200001894FF68F73194011430181704730B51C
:1018300004460D4629462046FFF7F0FF208940F078
:101840000700208130BD2DE9F04104460D461646C3
:101850001F46602D06D13B46012231462046FFF748
:101860005AFE05E03B46012231462046FFF79DFE29
:1018700029462046FFF7D2FF208940F0070020814B
:10188000BDE8F08130B50C4600210189C9B24FF6A0
:10189000FF7505EA0325154325432943018130BD22
:1018A0002DE9F04105460E4617469846002443466A
:1018B0003A4631462846FFF7E5FF2C894FF6F87087
:1018C000044044F007044FF68F70044044F0700465
:1018D0002C81BDE8F081F0B504460D4616461F4642
:1018E0003B46324629462046FFF7CCFF208940F48C
:1018F00080402081F0BD0185828270470A46002128
:1019000001884FF68F731940114301807047F0B57D
:101910000C4615461E460021002200230189028B39
:10192000038C4FF6F877394021434FF6FC473A4095
:1019300040F201173A434FF6DD773B404FF6FF7711
:1019400007EA06172F433B43018102830384F0BD5E
:101950000A460021018B4FF68F7319401143018312
:1019600070470A460021018B48F6FF7319404FF675
:10197000FF7303EA02231943018370470A460021DB
:10198000818B4FF68F7319401143818370470A464C
:101990000021818B48F6FF7319404FF6FF7303EA6D
:1019A000022319438183704721B1028842F08002EB
:1019B000028004E002884FF67F731A40028070476D
:1019C00021B1828842F00402828004E082884FF6CE
:1019D000FB731A408280704721B1828842F008026E
:1019E000828004E082884FF6F7731A408280704745
:1019F00021B1828842F00102828004E082884FF6A1
:101A0000FE731A40828070470A460021018B4FF610
:101A1000F77319401143018370470A460021018B77
:101A20004FF2FF7319404FF6FF7303EA0223194385
:101A3000018370470A460021818B4FF6F7731940E6
:101A40001143818370470A460021818B4FF2FF7357
:101A500019404FF6FF7303EA02231943818370474D
:101A60000A460021018B4FF6FB7319401143018395
:101A700070470A460021018B4FF6FF3319404FF69D
:101A8000FF7303EA02231943018370470A460021CA
:101A9000818B4FF6FB7319401143818370470A46CF
:101AA0000021818B4FF6FF3319404FF6FF7303EA95
:101AB00002231943818370470A460021018B4FF6A8
:101AC0007F7319401143018370470A460021018B3F
:101AD000C1F30E014FF6FF7303EA0223194301839A
:101AE00070470A460021818B4FF67F7319401143DE
:101AF000818370470A460021818BC1F30E014FF6A6
:101B0000FF7303EA02231943818370470A460021C9
:101B1000018C4FF6FD7319401143018470470A464A
:101B20000021018C4FF6F77319401143018470476F
:101B30000A460021018C4FF6DF7319404FF6FF7300
:101B400003EA02131943018470470A460021018CFD
:101B50004FF67F7319404FF6FF7303EA02131943E0
:101B6000018470470A460021018C4FF6FF5319404B
:101B70004FF6FF7303EA02231943018470470A46B4
:101B80000021018C4FF2FF7319404FF6FF7303EAF7
:101B900002231943018470470A460021018C4DF647
:101BA000FF7319404FF6FF7303EA023319430184B0
:101BB000704730B5002301248C40A3B2048C9C43B1
:101BC0000484048C02FA01F5ADB22C43048430BDC8
:101BD00030B5002304248C40A3B2048C9C430484BD
:101BE000048C02FA01F5ADB22C43048430BD70B50B
:101BF0000346002000241846183001258D40ACB261
:101C00001D8CA5431D8409B1082909D100EB610091
:101C1000056825F0700505600568154305600EE050
:101C20000D1FC5F34E052844056825F4E045056001
:101C300005684FF6FF7606EA02263543056070BD5B
:101C400021B1028842F00202028004E002884FF6CD
:101C5000FD731A400280704721B1028842F00402ED
:101C6000028004E002884FF6FB731A40028070473E
:101C700021B1828842F08002828004E082884FF69F
:101C80007F731A408280704702884FF6F7731A40BC
:101C9000028002880A430280704782884FF68F7361
:101CA0001A40828082880A438280704702894FF6F8
:101CB000F8731A40028102890A430281704702893F
:101CC0004FF67F731A40028102890A4302817047EE
:101CD000818470478185704781867047018770478E
:101CE00081877047A0F84010704702884FF6FF4385
:101CF0001A40028002880A43028070470146888E9B
:101D000070470146088F70470146888F704701462B
:101D1000B1F8400070470146888C70470146088D35
:101D2000704702460020138A0B400BB1012000E0EF
:101D300000207047CA430282704730B50246002037
:101D400000230024158A05EA0103958905EA0104A8
:101D500013B10CB1012000E0002030BDCA43028263
:101D60007047000010B50446FB48844209D10121A8
:101D70008803FEF7FBFF00214FF48040FEF7F6FFDB
:101D800032E0F648844209D101214804FEF7FBFF06
:101D900000214FF40030FEF7F6FF25E0F0488442C2
:101DA00009D101218804FEF7EEFF00214FF48020C5
:101DB000FEF7E9FF18E0EB48844209D10121C8048D
:101DC000FEF7E1FF00214FF40020FEF7DCFF0BE0FF
:101DD000E548844208D101210805FEF7D4FF00211F
:101DE0004FF48010FEF7CFFF10BD2DE9F04786B00D
:101DF00005460E460024A24600BFA1460027B08932
:101E000000B100BF2F462C8A4CF6FF700440F088CA
:101E100004432C82AC894EF6F3100440B08831891B
:101E20000843718908430443AC81AC8A4FF6FF40F4
:101E30000440B0890443AC8201A8FEF710FFC648F5
:101E4000874202D1DDF810A001E0DDF80CA0A889DE
:101E500000F4004040B10AEBCA0000EB0A10316800
:101E60004900B0FBF1F807E00AEBCA0000EB0A10EA
:101E700031688900B0FBF1F86420B8FBF0F0040190
:101E80002009642101FB1089A88900F4004040B1B9
:101E9000322000EBC900B0FBF1F000F00700044372
:101EA00008E0322000EB09106421B0FBF1F000F0F3
:101EB0000F0004432C8106B0BDE8F0874FF41651A3
:101EC000016000218180C18001810C2141810021BC
:101ED0008181704710B502460020108A4FF2FF033F
:101EE00018400B884C8823438C882343CC88234399
:101EF0001843108210BD0021018041808180C18083
:101F0000704721B1828942F40052828104E08289C3
:101F10004DF6FF731A4082817047F0B503460024E6
:101F200000260025002040F66A17B94200D100BF04
:101F30001846C1F3421401F01F06012707FA06F5FF
:101F4000012C01D10C3004E0022C01D1103000E052
:101F500014301AB107682F43076002E00768AF43E7
:101F60000760F0BD1AB1838A0B43838202E0838A43
:101F70008B4383827047028A4FF6F0731A400282C5
:101F8000028A0A430282704782894FF2FF731A4025
:101F9000828182890A438281704721B1828942F01D
:101FA0000202828104E082894FF6FD731A40828129
:101FB0007047028A4FF6DF731A400282028A0A4390
:101FC0000282704721B1028A42F48042028204E018
:101FD000028A4BF6FF731A4002827047C1F308026F
:101FE0008280704701468888C0F308007047818965
:101FF00041F0010181817047028BD2B20283028BD2
:1020000042EA012202837047028B02F47F4202837C
:10201000028B0A430283704721B1828A42F0200278
:10202000828204E0828A4FF6DF731A408282704710
:1020300021B1828A42F01002828204E0828A4FF645
:10204000EF731A408282704721B1828A42F00802FF
:10205000828204E0828A4FF6F7731A4082827047C8
:1020600021B1828942F40042828103E08289C2F375
:102070000E028281704721B1828A42F4006282821C
:1020800004E0828A4FF2FF731A4082827047828A8C
:102090004FF6FB731A408282828A0A43828270471B
:1020A00021B1828A42F00202828204E0828A4FF6E3
:1020B000FD731A408282704702460020B1F5007F0E
:1020C00000D100BF13880B400BB1012000E00020BD
:1020D000704701F40072B2F5007F00D100BFCA431F
:1020E0000280704770B502460024002300250020BE
:1020F00040F66A16B14200D100BFC1F3421501F0AB
:102100001F03012606FA03F3012D02D196893340FD
:1021100006E0022D02D1168A334001E0968A334050
:102120000C12012606FA04F41688344013B10CB1DF
:10213000012000E0002070BD10B50022002340F611
:102140006A14A14200D100BF0A1201249440A3B234
:10215000DC43048010BD0000003801400044004012
:1021600000480040004C0040005000400CB50020EA
:10217000019000906C48006840F480306A49086023
:1021800000BF6948006800F4003000900198401CCE
:102190000190009818B90198B0F5A06FF1D162488C
:1021A000006800F4003010B10120009001E0002030
:1021B00000900098012843D15C48006840F010006E
:1021C0005A4908600846006820F003000860084685
:1021D000006840F002000860534840685249486077
:1021E0000846406848600846406840F4806048609F
:1021F0000846406820F47C1048600846406840F477
:10220000E81048600846006840F08070086000BF31
:102210004548006800F000700028F9D04248406846
:1022200020F00300404948600846406840F0020042
:10223000486000BF3C48406800F00C000828F9D115
:102240000CBD10B5FFF792FF10BD10B53648006801
:1022500040F00100344908600846406834490840AD
:102260003149486008460068324908402E490860F4
:102270000846006820F4802008600846406820F482
:10228000FE0048604FF41F008860FFF7DAFF4FF050
:1022900000602949086010BD10B50021002000220F
:1022A000214B5B6803F00C0121B1042906D00829F9
:1022B00028D107E0214B224C236027E01F4B204C04
:1022C000236023E0184B5B6803F47010164B5B68C7
:1022D00003F48032022303EB904022B9194B4343AD
:1022E000174C23600DE0104B5B6803F4003323B1FF
:1022F000144B4343124C236003E0104B4343104CF8
:10230000236003E00D4B0E4C236000BF00BF064B63
:102310005B68C3F303130C4CE15C094B1B68CB40B7
:10232000074C236010BD0000001002400020024056
:102330000000FFF8FFFFF6FE08ED00E000127A0053
:102340001400002000093D001800002008B50121FC
:102350001820FEF7F1FC4FF40050ADF800001020FB
:102360008DF8030003208DF8020069461D48FEF732
:10237000C1F90120ADF8000010208DF80300032002
:102380008DF8020069461848FEF7B4F90220ADF84E
:10239000000010208DF8030003208DF8020069462C
:1023A0001148FEF7A7F908BD012806D10D49C968F3
:1023B00081F400510B4AD16012E0022808D10A4989
:1023C0000C31096881F00101074A0C32116007E005
:1023D00005490C31096881F00201034A0C32116091
:1023E0007047000000100140000C014070B5064627
:1023F0000C4600250020F84908804FF40061F7489A
:1024000003F0E5F93146F6A000F0DEFE00BF0AE079
:10241000F5A1F24803F0E6F900B106E0642000F00F
:102420008CFF681C85B2A542F2DB00BFA54201DB30
:10243000012070BD0020FCE72DE9F04180460E46EA
:1024400000270020E44908804FF40061E34803F0CE
:10245000BEF9E6A000F0B8FE00BF0AE0E6A1DF4842
:1024600003F0C0F900B106E0642000F066FF781CBC
:1024700087B2B742F2DB00BFB74202DB0120BDE802
:10248000F081DFA1D54803F0ADF904469CB1DCA191
:10249000601C03F0A7F905465DB1281B421E611CB4
:1024A000404603F07BF94146D6A003F0D3FF00205D
:1024B000E5E70320E3E70220E1E72DE9F0410646E6
:1024C0000F46144600250020C34908804FF40061E0
:1024D000C24803F07CF93A463146D0A000F074FEC1
:1024E00000BF0AE0D3A1BD4803F07CF900B106E0CB
:1024F000642000F022FF681C85B2A542F2DB00BF19
:10250000A54202DB0120BDE8F0810020FBE770B5A9
:1025100004460020B04908804FF40061AF4803F042
:1025200056F9CDA000F050FE00250AE0AEA1AB4860
:1025300003F058F900B106E0642000F0FEFE681CCC
:1025400085B2A542F2DB00BFA54201DB012070BDD0
:102550000020FCE710B53220FFF7D9FF08B10120B9
:1025600010BDC0A003F076FF3221C3A0FFF73EFFED
:1025700008B10220F4E7C3A003F06CFFC8A003F089
:1025800069FFC822CDA1D0A0FFF797FF08B10320B3
:10259000E6E7CFA003F05EFF3221D248FFF74CFF01
:1025A00008B10420DCE7D0A003F054FF3221D4A00E
:1025B000FFF71CFF08B10520D2E7D5A003F04AFFC2
:1025C0003221D9A0FFF712FF08B10620C8E7D9A031
:1025D00003F040FF3221DEA0FFF708FF08B107201B
:1025E000BEE70020BCE72DE9F04106460F46154640
:1025F00000240020784908804FF40061774803F0F8
:10260000E6F83A463146D7A000F0DEFD00BF19E0FB
:10261000DBA1724803F0E6F800B115E0DAA16F48DB
:1026200003F0E0F810B10120BDE8F081D8A16B48BB
:1026300003F0D8F808B10220F6E7642000F07DFE30
:10264000601C84B2AC42E3DB00BFAC4201DB032080
:10265000EAE7D4A003F0FEFE00205F4908804FF4B3
:1026600000615E4803F0B3F8D8A000F0ADFD00248F
:102670000AE0DAA1594803F0B5F800B106E0642099
:1026800000F05BFE601C84B2AC42F2DB00BFAC42E7
:1026900001DB0420C8E70020C6E710B53220FFF7B1
:1026A00036FF08B1012010BD6EA003F0D3FE322129
:1026B00071A0FFF79BFE08B10220F4E771A003F0C0
:1026C000C9FE77A003F0C6FEC8227CA17EA0FFF75A
:1026D000F4FE08B10320E6E77DA003F0BBFE322143
:1026E0008048FFF7A9FE08B10420DCE77EA003F0D4
:1026F000B1FE3221BCA0FFF779FE08B10520D2E778
:10270000BDA003F0A7FE3221C1A0FFF76FFE08B104
:102710000620C8E7C1A003F09DFEC7A003F09AFE03
:10272000322241F28831CCA0FFF75DFF0446052C30
:102730000DD2DFE804F0030406080A0007E00720D2
:10274000B1E70820AFE70920ADE70A20ABE700BFFB
:102750000020A8E72DE9F04106460F4690461D46A9
:10276000002400201C4908804FF400611B4803F03E
:102770002EF843463A463146BBA000F025FD00BF87
:102780000AE019A1154803F02DF800B106E0642015
:1027900000F0D3FD601C84B2AC42F2DB00BFAC425F
:1027A00002DB0120BDE8F081B8A003F053FE002059
:1027B000094908804FF40061084803F008F883A035
:1027C00000F002FD002478E184A1044803F00AF837
:1027D00000B175E16CE100002A0000205C050020DA
:1027E00025730D0A000000004F4B000041542B439D
:1027F000494653520D0A00000D0A4F4B0D0A0000C6
:102800002200000045535038323636B5C44950B521
:10281000D8D6B7A3BA25730D0A00000041542B4344
:10282000574A41503D222573222C222573220D0A3E
:10283000000000005749464920434F4E4E4543543F
:1028400045440D0A5749464920474F542049500DE9
:102850000A0D0A4F4B0D0A0041542B5253540D0AD6
:102860000000000045535038323636C8EDB8B4CEBB
:10287000BBB3C9B9A60D0A0041542B43574D4F4471
:10288000453D310045535038323636C9E8D6C3533A
:102890005441C4A3CABDB3C9B9A60D0A00000000C3
:1028A00045535038323636C1ACBDD34150D6D02E08
:1028B0002E2E202E2E2E0D0A000000003636373820
:1028C0003635303600000000696E666F746563004F
:1028D00045535038323636C1ACBDD34150B3C9B977
:1028E000A60D0A004804002045535038323636B24F
:1028F000E9D1AF4950B5D8D6B7B3C9B9A60D0A00CA
:1029000041542B4349504D4F44453D300000000099
:1029100045535038323636B9D8B1D5CDB8B4ABB34B
:10292000C9B9A60D0A00000041542B4349504D552A
:10293000583D310045535038323636BFAAC6F4B63A
:10294000E0C2B7C1ACBDD3B3C9B9A60D0A0000003F
:1029500041542B4349505345525645523D312C3535
:102960003035300041542B43495053544152543D6B
:1029700022544350222C222573222C25640D0A0058
:10298000434F4E4E45435400434C4F534544000083
:10299000414C524541445920434F4E4E45435445C6
:1029A0004400000045535038323636C1ACBDD3B771
:1029B000FECEF1C6F7B3C9B9A6A3ACD7BCB1B8BDBA
:1029C000F8C8EBCDB8B4AB0D0A00000041542B435E
:1029D000495053454E440D0A000000000D0A4F4B6C
:1029E0000D0A0D0A3E00000041542B4349504D4F43
:1029F00044453D310000000045535038323636BF63
:102A0000AAC6F4CDB8B4ABB3C9B9A60D0A0000008C
:102A100041542B4349504D55583D30004553503893
:102A2000323636B9D8B1D5B6E0C2B7C1ACBDD3B332
:102A3000C9B9A60D0A00000045535038323636C1D8
:102A4000ACBDD3B7FECEF1C6F7D6D02E2E2E202E9B
:102A50002E2E0D0A000000003232322E3139352E72
:102A60003232362E3939000041542B4349505354E9
:102A70004152543D22554450222C222573222C25AC
:102A8000642C25642C300D0A00000000455350389A
:102A9000323636C9E8D6C3554450B3C9B9A6A3AC3B
:102AA000D7BCB1B8BDF8C8EBCDB8B4AB0D0A0000C7
:102AB000642000F042FC601C84B2AC42FFF684AE9D
:102AC00000BFAC4201DB02206CE600206AE610B5D4
:102AD0003220FFF71CFD08B1012010BDAFF27C20B1
:102AE00003F0B8FC4FF47A7000F027FC3221AFF20B
:102AF0007820FFF77BFC08B10220EEE7AFF27C20E4
:102B000003F0A8FCAFF2682003F0A4FCC822AFF2E7
:102B10005421AFF24C20FFF7D0FC08B10320DCE7D2
:102B2000AFF2542003F096FC3221CA48FFF784FC30
:102B300008B10420D1E7AFF2502003F08BFC322122
:102B4000AFF25C10FFF752FC08B10520C5E7AFF209
:102B5000581003F07FFC3221AFF24C10FFF746FC17
:102B600008B10620B9E7AFF24C1003F073FCBAA02D
:102B700003F070FC4FF4FA7341F288321146AFF261
:102B80002810FFF7E7FD044624B1012C03D0022CE6
:102B900005D102E003E007209FE708209DE700BF82
:102BA00000209AE700B587B00020049005900690B9
:102BB000019002900390AFF23821AE4802F012FE6D
:102BC000A0B101AB04AAACA1AA4802F025FE04A959
:102BD000ACA003F03FFC0020B04908804FF4006136
:102BE000A44802F0F4FD012007B000BDAFF2682157
:102BF000A04802F0F7FD98B101AB04AA9EA19D4840
:102C000002F00AFE04A9A6A003F024FC0020A349B8
:102C100008804FF40061974802F0D9FD0220E3E7F5
:102C20000020E1E72DE9FF4107460D46164600204A
:102C3000019002900390A0A18E4802F0D3FD00B352
:102C4000052000F07AFB334601AA9DA18948009532
:102C500002F0E2FD9FA1874802F0C4FD044624B1C2
:102C6000621C9DA1384603F005FC00208B490880BA
:102C70004FF400617F4802F0AAFD012004B0BDE8D6
:102C8000F0810020FAE72DE9F04707468846914693
:102C90001D4600240020814908804FF400617548DA
:102CA00002F095FD4A4639468CA000F08DFA00BF2F
:102CB0000BE0AFF2D0216F4802F094FD00B106E0C6
:102CC000642000F03AFB601C84B2AC42F1DB00BF30
:102CD000AC4202DB0120BDE8F08700206F4908808C
:102CE0004FF40061634802F072FD002606E018F818
:102CF00006107FA000F068FA701C86B24E45F6DB25
:102D0000002421E07BA15B4802F06CFD40B1002073
:102D1000624908804FF40061564802F058FD15E002
:102D200076A1544802F05EFD48B100205B4908805E
:102D30004FF400614F4802F04AFD0220CBE76420C7
:102D400000F0FBFA601C84B2AC42DBDB00BFAC429B
:102D500001DB0320BFE70020BDE770B50446002576
:102D600000204E4908804FF40061424802F02FFDD8
:102D700067A000F029FA00BF0BE0AFF284513D4894
:102D800002F030FD00B106E0642000F0D6FA681CC5
:102D900085B2A542F1DB00BFA54209DB5EA003F0CE
:102DA00059FB66A000F010FA4FF47A7000F0C5FAF3
:102DB00070BD10B50246012906D0022908D00329AA
:102DC00013D0042943D125E01378303B98B23EE07C
:102DD0001378303B03EB83034FF6FF7404EA4300A0
:102DE0005378303B034498B231E01378303B03EB27
:102DF000C30404EB03134FF6FF7404EA83009378D3
:102E0000303B03EB830300EB4300D378303B0344B8
:102E100098B21CE01378303B03EB4304C4EBC313BC
:102E20004FF6FF7404EAC3005378303B03EBC3044E
:102E300004EB031300EB83009378303B03EB830335
:102E400000EB4300D378303B034498B200BF00BF8F
:102E500010BD00004804002045535038323636C9B2
:102E6000E8D6C3554450D6D02E2E2E202E2E2E0D11
:102E70000A0000005C050020255B5E2C5D2C255BB4
:102E80005E2C5D00D3D0BFCDBBA7B6CBBDD3C8EB06
:102E9000A3AC49443D25730D0A0000002A00002020
:102EA000D3D0BFCDBBA7B6CBB6CFBFAAA3AC494446
:102EB0003D25730D0A0000002B495044000000001E
:102EC000255B5E2C5D2C255B5E2C5D2C255B5E3AC4
:102ED0005D0000003A0000002573000041542B43C0
:102EE000495053454E443D25642C25640D0A00008D
:102EF0002563000053454E44204F4B006C696E6BB8
:102F0000206973206E6F742076616C696400000024
:102F100041540D0A0000000045535038323636B493
:102F2000A6D3DACDB8B4ABD7B4CCACA3ACD7BCB1D4
:102F3000B8CDCBB3F6CDB8B4AB0D0A002B2B2B001C
:102F400008B54FF4E060FDF7EDF825208DF800009E
:102F500003208DF801008DF8020001208DF8030098
:102F60006846FDF7E4F808BD10B586B004460121B7
:102F700044F20400FDF7E0FE4348FEF7F3FE4FF491
:102F80000070ADF8140003208DF8160018208DF89D
:102F9000170005A93D48FDF7ADFB4FF48060ADF883
:102FA000140004208DF8170005A93848FDF7A2FB8E
:102FB00001940020ADF80800ADF80A00ADF80C004F
:102FC000ADF810000C20ADF80E0001A92E48FEF758
:102FD0000CFF012240F225512B48FEF79EFF0121F4
:102FE0002948FEF78EFFFFF7ABFF06B010BD10B506
:102FF00040F225512448FFF775F810B32248FEF738
:10300000F1FFC4B22248008800F40040C8B920484B
:10301000008800F4804060B10A2C03D000201C49D5
:10302000088020E01A48008840F4004018490880D1
:1030300019E00D2C06D11648008840F48040144950
:10304000088010E012480088C0F30D0011490C54AC
:103050000F480088401C0E49088008460088FF2859
:1030600001DD0020088010BD70B504460D46E1B2B8
:103070000548FEF7B3FF00BF40210348FFF71CF8E7
:103080000028F9D0204670BD0038014000080140FA
:10309000280000205C04002008B54FF4E060FDF734
:1030A00041F826208DF8000002208DF801008DF8EF
:1030B000020001208DF803006846FDF738F808BDCE
:1030C00010B586B0044601210420FDF735FE01212C
:1030D0004804FDF73EFE4A48FEF744FE0420ADF8E2
:1030E000140003208DF8160018208DF8170005A98C
:1030F0004448FDF7FFFA0820ADF8140004208DF8CD
:10310000170005A93F48FDF7F5FA01940020ADF836
:103110000800ADF80A00ADF80C00ADF810000C2066
:10312000ADF80E0001A93648FEF75FFE01213448D4
:10313000FEF7E7FE012280213148FEF713FF4FF42E
:103140008063314A2E49091D304801F049FF0122B0
:1031500040F225512A48FEF7E0FE41F61F41C72004
:1031600000F06FF800202A490880FFF795FF06B0AD
:1031700010BD10B52748007860B92148001D0088AF
:103180002549234A1288885421480088401C204938
:10319000088018E01A48001D0088C1B21E481C4A69
:1031A0001288815400214FF08040FEF791FD1848AD
:1031B000008818B901218807FEF7F6FA144800883C
:1031C000401C1349088010BD0FB438B505A8009005
:1031D0000D48009A049903F061F9002000900A4814
:1031E00002F012FB84B22146084801F01EFF00BF26
:1031F0000648001D00680028FAD138BC5DF814FBB1
:1032000000440040000801405C0D002080000240A6
:103210002A0000202C0000205C05002008B54FF497
:10322000E060FCF77FFF1C208DF8000001208DF886
:1032300001008DF802008DF803006846FCF777FF67
:1032400008BD3EB505460C4601210846FDF781FD47
:103250004FF08040FDF778FE4FF08040FEF7D8FA3F
:10326000ADF80450ADF800400020ADF80600ADF810
:10327000020069464FF08040FDF73AFF01218807C0
:10328000FEF758FD00214FF08040FEF78DFB012234
:1032900011469007FEF7A3FA00214FF08040FEF799
:1032A00083FAFFF7BBFF3EBD10B50848008840F425
:1032B00000400649088000214FF08040FEF774FA74
:1032C00001218807FEF74AFD10BD00002A000020FA
:1032D00030B500BF1F4800681F4AB0FBF2F1B1F1E2
:1032E000807F01D301201DE021F07F40401E4FF080
:1032F000E022506150170F22002807DA13071D0E35
:10330000164B00F00F04241F1D5503E013071C0E7D
:10331000134B1C5400BF00204FF0E02290610720A7
:10332000106100200028D5D130BD0E49088000BFB3
:103330000C4909880029FBD1704700B5024603E01B
:103340004FF47A70FFF7F1FF101EA2F101018AB26B
:10335000F6D100BD1400002040420F0018ED00E03F
:1033600000E400E04000002000E0401E0028FCD106
:10337000704710B50A461023FC4C236020232360BD
:10338000012A03D18023241F236002E08023F74C0D
:1033900023602023F54C241F2360002114E000F05B
:1033A000800323B18023F14C241F236002E080239B
:1033B000EE4C23602023ED4C23604306180E20239F
:1033C000241F23604B1CD9B20829E8DB1023E74CEB
:1033D000241F236010BD30B500241CE004F1B001AF
:1033E000C8B20021FFF7C5FF00210846FFF7C1FF63
:1033F00000211020FFF7BDFF002508E0DC4901EBAC
:10340000C411485D0121FFF7B4FF681CC5B2802DCF
:10341000F4DB601CC4B2082CE0DB30BD08B5012130
:103420000420FDF789FC1020ADF8000003208DF882
:10343000020010208DF803006946CC481438FDF7CF
:1034400059F92020ADF8000003208DF8020010206B
:103450008DF803006946C5481438FDF74BF9402044
:10346000ADF8000003208DF8020010208DF8030055
:103470006946BE481438FDF73DF98020ADF80000DC
:1034800003208DF8020010208DF803006946B7482C
:103490001438FDF72FF91020B449091F086008BD42
:1034A00010B5FFF7BBFFB348FFF75EFF0021AE206A
:1034B000FFF75FFF00210846FFF75BFF00211020A8
:1034C000FFF757FF00214020FFF753FF0021812025
:1034D000FFF74FFF0021CF20FFF74BFF0021A12076
:1034E000FFF747FF0021A620FFF743FF0021A82098
:1034F000FFF73FFF00213F20FFF73BFF0021D320D4
:10350000FFF737FF00210846FFF733FF0021D520E2
:10351000FFF72FFF00218020FFF72BFF0021D9208C
:10352000FFF727FF0021F120FFF723FF0021DA201A
:10353000FFF71FFF00211220FFF71BFF0021DB20F8
:10354000FFF717FF00214020FFF713FF00218D2018
:10355000FFF70FFF00211420FFF70BFF0021AF2022
:10356000FFF707FF10BD30B500241CE004F1B001E7
:10357000C8B20021FFF7FDFE00210846FFF7F9FE63
:1035800000211020FFF7F5FE002508E0784901EB47
:10359000C411485D0121FFF7ECFE681CC5B2802D07
:1035A000F4DB601CC4B2082CE0DB30BD70B506460D
:1035B00000240BE0002505E06D4800EBC4104655E3
:1035C000681CC5B2802DF7DB601CC4B2082CF1DB8F
:1035D00069480078012801D1FFF7C5FF70BD10B51B
:1035E000FFF75EFF0020FFF7E1FF0020634908803E
:1035F0000120488000208880C88001206049088020
:103600004880002088800120C88010BD00B50021BE
:103610008D20FFF7AEFE00211420FFF7AAFE002147
:10362000AF20FFF7A6FE00BD00B500218D20FFF7FB
:10363000A0FE00211020FFF79CFE0021AE20FFF726
:1036400098FE00BD00204C490870704710B501205D
:1036500049490870FFF787FF10BD2DE9FF438046F9
:103660000C46914647A103C9CDE9020147A103C910
:10367000CDE900012046E11704EB5171C910C1F1F9
:103680000701CFB208F0FF06394800EBC710855D8F
:10369000B9F1000F0AD12046E11704EB5171C910AE
:1036A000A4EBC1011DF801100D4009E02046E1170F
:1036B00004EB5171C910A4EBC10102AA515C0D4386
:1036C0002B4800EBC71085552B480078012814D1F2
:1036D00007F1B001C8B20021FFF74BFE06F00F0062
:1036E0000021FFF746FE102101EB16100021FFF725
:1036F00040FE01212846FFF73CFEBDE8FF832DE98F
:10370000FF4F9BB090469946B9F80000012807D1B9
:103710000C2005900C2718241E4802901E4E06E02F
:1037200010200590102720241C4802901C4EB0E069
:1037300098F800001A901A98802833DA019404EB64
:10374000D4704FEA600C00941A9B029803FB0C01A2
:1037500004EBD470421007A802F020F8384607EBBB
:10376000D071C1F3470106914EE0000014080140FA
:103770005C110020FFFF0F003E00002036000020FB
:103780002E00002080402010080402017FBFDFEFE0
:10379000F7FBFDFE9C6D0008908300089073000805
:1037A0000286000808F101008046007819901998F7
:1037B00000B973E04FF0000A23E0A01C0AFB00F5FB
:1037C0000AF1010000F0FF0A715D1A9881420BD1E5
:1037D000681C315C1998814206D1AD1C71192246D2
:1037E00007A801F0DBFF0DE0705DFF2809D1681C20
:1037F000305CFF2805D1FF22214607A801F0E0FF39
:1038000000E0DAE700BF06971C9803904FF0000A2B
:1038100032E01B9804904FF0000B22E00698400025
:1038200090FBF7F000FB0AF000EBDB0007A9085C57
:103830000BF0070280211141084030B199F80220B5
:10384000DDE90310FFF709FF05E099F80420DDE941
:103850000310FFF702FF0498401C80B204900BF1A4
:10386000010B06988345D9D30398401C80B203907E
:103870000AF1010000F0FF0A05988245C9DBB9F89A
:103880000610069801441B98084480B21B9008F16A
:10389000010898F8000000287FF44AAF00BF1FB06D
:1038A000BDE8F08F70B502460846CE1701EB56769C
:1038B000F610C6F10706F4B2D5B2FC4800EBC4100E
:1038C000435DCE1701EB5676F610A1EBC6061E40FF
:1038D0000EB1012070BD0020FCE72DE9F04F86B04D
:1038E00004460D4616461F46294620460F9AFFF706
:1038F000B4FEB44204D1BD4202D106B0BDE8F08F9F
:1039000000200190A64202DBA6EB040801E0A4EB34
:103910000608AF4202DBA7EB050901E0A5EB0709AA
:10392000C8450CDA0121019120462C460546304657
:103930003E4607461FFA88F0C846814600BFA642A9
:1039400001DD012001E04FF0FF300590AF4201DDC5
:10395000012001E04FF0FF300490A24600954FEAAD
:1039600049000390A9EB0800400002900398A0EBE7
:10397000080B1EE0BBF1000F02DA0398834405E058
:10398000049900980844009002988344019838B143
:103990001FFA8AF1009A90B20F9AFFF75EFE06E0D6
:1039A000009A91B21FFA8AF00F9AFFF756FE059817
:1039B0008244B245DED100BF9FE72DE9F8410546BC
:1039C0000E461746984600240FE004F1010CCDF88E
:1039D000008036F81C3035F81C2036F8141035F805
:1039E0001400FFF77AFF601C84B2781EA042ECDC62
:1039F000BDE8F8812DE9F84104460D4616461F46FC
:103A0000DDF81C80E019401E82B22B462946204674
:103A1000CDF80080FFF761FFA819401E83B2E019BE
:103A2000401E82B2A819401E81B22046CDF8008007
:103A3000FFF753FFA819401E83B2224629462046AD
:103A4000CDF80080FFF749FFA9198BB2E119491E93
:103A50008AB2E119491E88B22946CDF80080FFF7E5
:103A60003CFFBDE8F8812DE9F04706460F46904639
:103A70009A460320A0EB48090024454646E07A19FF
:103A800091B2321990B25246FFF7E7FD7A1B91B21C
:103A9000321990B25246FFF7E0FD7A1991B2321B0B
:103AA00090B25246FFF7D9FD7A1B91B2321B90B209
:103AB0005246FFF7D2FD3A1991B2721990B25246AE
:103AC000FFF7CBFD3A1B91B2721990B25246FFF745
:103AD000C4FD3A1991B2721B90B25246FFF7BDFD78
:103AE0003A1B91B2721B90B25246FFF7B6FDB9F184
:103AF000000F04DA062000EB8400814405E0601B1F
:103B00000A2101EB800081446D1E641CAC42B6D9D1
:103B1000BDE8F0872DE9F04706460F4690469946E6
:103B2000DDF820A000240FE0002509E09AF800202D
:103B30007B1999B2331998B2FFF78FFD681C85B2D3
:103B40004545F3DB601C84B24C45EDDBBDE8F087F6
:103B50002DE9FE4F8046894616469A460927354686
:103B600000208DF80A000A2410E00A20B5FBF0F1CD
:103B700000FB11503030611E0DF801000A20B5FB2A
:103B8000F0F50DB1781EC7B2601EC4B2BC4201DDB3
:103B9000012000E00020002C01DD012100E00021D7
:103BA00008400028E1D10DEB040253464946404647
:103BB000FFF7A5FDBDE8FE8F10B50246012000E02D
:103BC00050430B1EA1F10104E1B2F9D110BD2DE962
:103BD000FF5F8AB015461E46DDF860A04FF0090B66
:103BE0002846314601F0FFFF099051460A20FFF7B1
:103BF000E3FF074601F0CBFFCDE90201099801F090
:103C0000B5FF07462A46334601F036FFCDE90001ED
:103C1000DDE9022301F033FFCDE9040101F0C4FF27
:103C2000814600208DF82200002406E03020C4F1F7
:103C3000090106AA5054601CC4B25445F6DB0A249C
:103C400015E00A2099FBF0F100FB11903030C1B271
:103C5000601E06AA11540A2099FBF0F9B9F1000F71
:103C600003D0ABF1010000F0FF0B601EC4B25C4555
:103C700001DD012000E00020002C01DD012100E039
:103C8000002108400028DCD12E20CAF1090106AA33
:103C90005054CAF10900C4B2CAF1080000F0FF0B89
:103CA0002846314601F09FFF814617E05C11002055
:103CB0000A2099FBF0F100FB11903030C1B2601E78
:103CC00006AA11540A2099FBF0F9B9F1000F03D0AC
:103CD000ABF1010000F0FF0B601EC4B25C4501DDDA
:103CE000012000E00020002C01DD012100E0002186
:103CF00008400028DCD106A80219199BDDE90A0159
:103D0000FFF7FDFC0EB0BDE8F09F0000002107E0CA
:103D1000002201E0531C9AB20C2AFBDB4B1C99B227
:103D20008142F5DB704708B501210820FDF704F852
:103D30004FF48060ADF8000003208DF802001420DD
:103D40008DF803006946FE48FCF7D4FC4FF4006090
:103D5000ADF8000003208DF8020014208DF8030058
:103D60006946F748FCF7C6FC08BD10B54FF4006182
:103D7000F348FCF76CFD4FF48061F148FCF767FDF8
:103D80000520FFF7C3FF4FF40061ED48FCF761FD2C
:103D90000520FFF7BBFF4FF48061E948FCF759FDB0
:103DA0000520FFF7B3FF10BD10B54FF48061E44864
:103DB000FCF74FFD4FF40061E148FCF74AFD052098
:103DC000FFF7A4FF4FF48061DD48FCF740FD0520BC
:103DD000FFF79CFF4FF40061D948FCF738FD052040
:103DE000FFF794FF10BD70B505460026802425E03E
:103DF00004EA050028B94FF40061D148FCF729FD19
:103E000004E04FF40061CE48FCF721FD0120FFF7EC
:103E10007DFF4FF48061CA48FCF719FD0520FFF7CC
:103E200075FF4FF48061C648FCF713FD0120FFF7D2
:103E30006DFF204604EBD071C1F34704002CD7DCA2
:103E40004FF40061BE48FCF702FD4FF48061BC48AE
:103E5000FCF7FDFC0120FFF759FF4FF40061B84863
:103E6000FCF7DBFC012800D101264FF48061B44847
:103E7000FCF7EFFC1420FFF749FF304670BD70B52A
:103E8000054600264FF40061AD48FCF7E0FC8024B5
:103E90001CE04FF48061AA48FCF7D9FC0520FFF72D
:103EA00035FF4FF40061A648FCF7B7FC012800D1AC
:103EB00026434FF48061A248FCF7CBFC0120FFF7BA
:103EC00025FF204604EBD071C1F34704002CE0DC51
:103ED0002DB14FF400619A48FCF7B9FC04E04FF4AF
:103EE00000619748FCF7B5FC0120FFF70FFF4FF486
:103EF00080619348FCF7ABFC0520FFF707FF4FF408
:103F000080618F48FCF7A5FC4FF400618C48FCF7FA
:103F10009EFC1420FFF7FAFE304670BDF0B5034654
:103F20000C4600210026002514E013F8010B414047
:103F300008260BE001F0800020B1312080EA41002A
:103F4000C1B201E04806010E701EC6B2002EF1DCBF
:103F5000681CC5B2A542E8DB914201D00420F0BD47
:103F60000020FCE770B505460024FFF7FEFE802028
:103F7000FFF739FF0443E720FFF735FF0443FFF75E
:103F8000F4FE8120FFF72FFF04430020FFF777FFA7
:103F900028700120FFF773FF0646324601212846AC
:103FA000FFF7BCFF0443FFF7FFFE204670BD70B56E
:103FB00005460024FFF7D9FE8020FFF714FF0443D5
:103FC000E620FFF710FF04432878FFF70CFF0443B7
:103FD000FFF7EAFE204670BD2DE9F84306460F467E
:103FE0000024FFF7C2FE8020FFF7FDFE044316B158
:103FF000012E0AD104E0E520FFF7F5FE044305E0B9
:10400000E320FFF7F0FE044300E000BF00BFFFF72E
:10401000ACFE8120FFF7E7FE04434FF4806148487F
:10402000FCF715FC00250DE04FF47A70FFF76EFEEB
:104030004FF480614248FCF7F0FB012800D104E016
:10404000681C85B2B5F57A7FEEDB00BF4FF4806166
:104050003B48FCF7E2FB08B944F002040020FFF7FC
:104060000EFF8DF800000020FFF709FF8DF801001A
:104070009DF801009DF8001000EB01203880012020
:10408000FFF7FDFE8046424602216846FFF746FFE5
:104090000443FFF789FE2046BDE8F8832DE9F84385
:1040A00005460E4600240027FFF75FFE8020FFF73D
:1040B0009AFE044315B1012D0AD104E0F520FFF763
:1040C00092FE044305E0F320FFF78DFE044300E079
:1040D00000BF00BF00BFFFF748FE42F21070FFF7BD
:1040E00015FE3846791C8FB2142800DB04E08120CD
:1040F000FFF779FE0128EED000BF142F01DB44F05A
:1041000002040020FFF7BBFE8DF800000020FFF73F
:10411000B6FE8DF801009DF801009DF8001000EB3F
:10412000012030800120FFF7AAFE8046424602218E
:104130006846FFF7F3FE0443FFF736FE204601E032
:10414000000C0140BDE8F88310B50024FFF70DFE18
:104150008020FFF748FE0443FE20FFF744FE04439F
:10416000FFF722FE43F69820FFF7D0FD204610BD52
:104170002DE9F84F82462AF0030A504601F0F1FC7F
:10418000009001F049FD80460022474B01F077FC8A
:1041900006460022454B01F0CBFB044601F04FFDE3
:1041A00083465846BDE8F88F2DE9F84F82462AF03D
:1041B000030A504601F0D5FC009001F02DFD804629
:1041C0003B4A3C4B01F05BFC06463B4A3B4B01F053
:1041D000AFFB044601F033FD83465846BDE8F88F37
:1041E00070B504460025FFF7C0FD8020FFF7FBFDFA
:1041F0000543FA20FFF7F7FD05430F20FFF7F3FD16
:104200000543FFF7B2FD8120FFF7EDFD05430020D8
:10421000FFF735FE60710020FFF731FE0020FFF749
:104220002EFE20710020FFF72AFE0020FFF727FE58
:10423000E0700020FFF723FE0020FFF720FEA070B3
:104240000120FFF71CFEFFF7AFFDFFF78EFD80207A
:10425000FFF7C9FD0543FC20FFF7C5FD0543C92055
:10426000FFF7C1FD0543FFF780FD8120FFF7BBFD90
:1042700005430020FFF703FE60700020FFF7FFFDFD
:1042800020700020FFF7FBFD0020FFF7F8FDE07134
:104290000020FFF7F4FDA0710120FFF7F0FDFFF70C
:1042A00083FD284670BD000000405F3F000018C03D
:1042B000D7A3703D0AF7653FCDCCCCCCCC6C47C0C2
:1042C00008B54FF4E060FBF72DFF28208DF80000C3
:1042D00001208DF8010000208DF8020001208DF8EA
:1042E00003006846FBF723FF08BD1CB50121084603
:1042F000FCF722FD0E210120FCF712FB0F2101200B
:10430000FCF70EFB4FF44040009000208DF80400B5
:104310000C208DF8050001208DF806006846FCF79A
:1043200009F9FFF7CDFF1CBD10B54FF48040FCF735
:1043300067F950B14FF48040FCF773F90121880709
:10434000FDF732FA0120FEF72FF84FF40040FCF79A
:1043500057F958B14FF40040FCF763F900214FF0D2
:104360008040FDF721FA0120FEF71EF810BD10B5C0
:104370004020FCF745F910B14020FCF752F98020AD
:10438000FCF73EF938B18020FCF74BF900214FF0E3
:104390008040FDF709FA10BD73B5054601A801F08C
:1043A000E3FC0446606900F26C7060612C222146D7
:1043B000284601F0F3F97CBD0FB410B50798A0F2C0
:1043C0006C70079002A801F095F910BC5DF814FB21
:1043D00010B5FCF735FD10BD30B58BB00446FCF7C9
:1043E0002FFD054629466846FFF7D6FF2C22694671
:1043F000204601F0D3F90BB030BD10B50446FCF7F0
:104400005BFD2046FCF725FDFCF756FD10BD0FB403
:1044100010B588B01C220EA9684601F0BFF90AA8A1
:104420000FC8FFF7C9FF0446FFF7E7FF08B010BC4D
:104430005DF814FB08B54FF4C060FBF773FE032072
:104440008DF8000001208DF8010000208DF8020099
:1044500001208DF803006846FBF769FE08BD10B522
:1044600001214FF0C050FCF774FC0120FCF79BFACF
:10447000FBF7C6FE0120FCF7CCFB00BF4120FCF798
:1044800030FB0028FAD04FF48070FCF7DEFB0120EF
:10449000FCF7E1FBFCF719FDFCF70EFD01210846D6
:1044A000FCF7AEFCFCF708FD47F6FF70FCF7DEFCFE
:1044B000FCF702FD10BD2DE9FF4105460E461746EB
:1044C00000240020009001900290039026E000BF9D
:1044D0002021BF48FDF7F0FD0028F9D0BC48FDF7CA
:1044E00081FD2146621C94B24DF82100601E5DF8EA
:1044F00020000D2802D1601E84B20FE0601E5DF81E
:104500002000302804D3601E5DF82000392804D92B
:10451000B0A001F09FFF601E84B200BFBC42D6DB9A
:10452000022F09D1019830380099303901EB81010F
:1045300000EB410084B218E003983038029930391A
:1045400001EB810100EB41010198303800EBC00222
:1045500002EB001001EB80010098303800EB4002C4
:10456000C2EBC01001EBC00084B2B44201D8AC422F
:1045700008D232462946A2A001F06CFF002004B008
:10458000BDE8F0812046FAE700B593B02C2108A8D9
:1045900001F01DF9A64801F05DFFA6A001F05AFF49
:1045A00007E0042240F2F57140F2B270FFF783FF9A
:1045B0000D9040F2F5710D988842F2DC40F2B27134
:1045C0000D988842EDDBA5A00D9901F043FFA8A04E
:1045D00001F040FF06E002220C210120FFF76BFFF3
:1045E000401E0C900C980C28F5DC0C980128F2DB8E
:1045F000A9A00C9901F02EFFACA001F02BFF05E063
:1046000002221F210120FFF756FF0B900B981F2855
:10461000F6DC0B980128F3DBADA00B9901F01AFF33
:10462000AFA001F017FF05E0022217210120FFF7DC
:1046300042FF0A900A981728F6DC0A980128F3DB53
:10464000B0A00A9901F006FFB3A001F003FF05E056
:1046500002223B210120FFF72EFF099009983B28F9
:10466000F6DC09980128F3DBB5A0099901F0F2FE08
:10467000B8A001F0EFFE05E002223B210120FFF788
:104680001AFF089008983B28F6DC08980128F3DB0D
:10469000BAA0089901F0DEFE1C220CA9684601F0C0
:1046A0007DF808A80FC8FFF7B2FE13B000BD10B523
:1046B0000420FBF7DAFD4AF2A55188420FD0B4A0DE
:1046C00001F0C8FEFFF7CBFEFFF75EFFB8A001F0D8
:1046D000C1FE4AF2A5510420FBF7BBFD19E07B2087
:1046E000FCF7FFF918B1B8A001F0B4FE06E07A209B
:1046F000FCF7F7F910B1BCA001F0ACFEC2A001F0CC
:10470000A9FEFCF7E2FB01210846FCF779FBFCF768
:10471000D3FBFFF78FFEFCF74DFB10BD00B593B048
:104720002C2108A801F053F80120FCF73CF9FCF714
:10473000C3FB40F616000D9000200C900B900A90E1
:10474000099008901C220CA9684601F027F808A8D7
:104750000FC8FFF75CFEFCF7AFFB0020FCF723F966
:10476000334801F077FE13B000BD10B5AE4BAFA2D9
:104770001E210A20FEF7C3FFAB4BB0A22D210A2059
:10478000FEF7BDFF10BD00B597B004A8FFF724FEEB
:10479000DDE905210498CDE900120290ABA10FA834
:1047A000DDE9073201F066FE9F4B0FAA1E210020B3
:1047B000FEF7A5FF17B000BD10B50120FCF7AAFB5E
:1047C00020B10120FCF7B6FBFFF7DDFF10BD0000B4
:1047D00000380140506C6561736520656E746572C8
:1047E0002076616C6964206E756D62657220626509
:1047F000747765656E203020616E6420390D0A0083
:10480000506C6561736520656E7465722076616CAD
:104810006964206E756D6265722062657477656586
:104820006E20256420616E642025640D0A0000005E
:10483000788C0008506C656173652053657420594D
:1048400065617273206265747765656E20313937F2
:104850003020746F20323033370D0A0053657420D6
:1048600059656172733A202025640D0A000000002A
:10487000506C6561736520536574204D6F6E74686C
:1048800073206265747765656E20303120746F2007
:1048900031320D0A00000000536574204D6F6E74B4
:1048A00068733A202025640D0A000000506C656191
:1048B0007365205365742044617973206265747751
:1048C00065656E20303120746F2033310D0A000091
:1048D00053657420446179733A202025640D0A00E1
:1048E000506C656173652053657420486F757273F1
:1048F000206265747765656E20303120746F2032D8
:10490000330D0A0053657420486F7572733A202086
:1049100025640D0A00000000506C6561736520532A
:104920006574204D696E7574657320626574776572
:10493000656E20303120746F2035390D0A0000007B
:10494000536574204D696E757465733A2020256433
:104950000D0A0000506C6561736520536574205327
:1049600065636F6E6473206265747765656E203071
:104970003120746F2035390D0A0000005365742012
:104980005365636F6E64733A202025640D0A00003E
:10499000525443206E6F742079657420636F6E6685
:1049A0006967757265642E2E2E2E0D0A00000000B8
:1049B00052544320636F6E666967757265642E2E6C
:1049C0002E2E0D0A00000000506F776572204F6E8A
:1049D000205265736574206F636375727265642E0F
:1049E0002E2E2E0D0A00000045787465726E616CE3
:1049F000205265736574206F636375727265642EEF
:104A00002E2E2E0D0A0000004E6F206E656564206C
:104A1000746F20636F6E66696775726520525443C8
:104A20002E2E2E2E0D0A00002E00002020202020E9
:104A3000C4EA2020D4C22020C8D500002020CAB15A
:104A40002020B7D62020C3EB000000002020253016
:104A500032642D2530326420253032643A253032DC
:104A6000643A253032640000002107E0002201E0B2
:104A7000531C9AB20C2AFBDB4B1C99B28142F5DB2A
:104A8000704708B501210820FCF756F94020ADF821
:104A9000000003208DF8020014208DF80300694601
:104AA000FA48FBF727FE8020ADF8000003208DF8C0
:104AB000020014208DF803006946F448FBF71AFE43
:104AC00008BD10B58021F148FBF7C1FE4021EF4839
:104AD000FBF7BDFE0520FFF7C7FF8021EB48FBF782
:104AE000B8FE0520FFF7C0FF4021E848FBF7B1FE04
:104AF0000520FFF7B9FF10BD10B54021E348FBF7D3
:104B0000A8FE8021E148FBF7A4FE0520FFF7ACFFDB
:104B10004021DE48FBF79BFE0520FFF7A5FF802123
:104B2000DA48FBF794FE0520FFF79EFF10BD70B535
:104B300005460026802421E004EA050020B98021F2
:104B4000D248FBF786FE03E08021D048FBF77FFECA
:104B50000120FFF789FF4021CC48FBF778FE0520B4
:104B6000FFF782FF4021C948FBF773FE0120FFF7E2
:104B70007BFF204604EBD071C1F34704002CDBDC43
:104B80008021C248FBF763FE4021C048FBF75FFE6F
:104B90000120FFF769FF8021BC48FBF73EFE01289A
:104BA00000D101264021B948FBF753FE1420FFF73E
:104BB0005BFF304670BD70B5054600268021B348C6
:104BC000FBF745FE802419E04021B048FBF73FFE8B
:104BD0000520FFF749FF8021AC48FBF71EFE0128A6
:104BE00000D126434021A948FBF733FE0120FFF7FF
:104BF0003BFF204604EBD071C1F34704002CE3DCFB
:104C000025B18021A148FBF722FE03E080219F48C7
:104C1000FBF71FFE0120FFF727FF40219B48FBF712
:104C200016FE0520FFF720FF40219848FBF711FEF4
:104C300080219648FBF70BFE1420FFF715FF304646
:104C400070BDF0B503460C4600210026002514E097
:104C500013F8010B414008260BE001F0800020B161
:104C6000312080EA4100C1B201E04806010E701E09
:104C7000C6B2002EF1DC681CC5B2A542E8DB914249
:104C800001D00420F0BD0020FCE770B505460024EB
:104C9000FFF717FF8020FFF74AFF0443E720FFF7E5
:104CA00046FF0443FFF70DFF8120FFF740FF044359
:104CB0000020FFF780FF28700120FFF77CFF0646E9
:104CC000324601212846FFF7BCFF0443FFF714FFDB
:104CD000204670BD70B505460024FFF7F2FE802027
:104CE000FFF725FF0443E620FFF721FF0443287860
:104CF000FFF71DFF0443FFF7FFFE204670BD2DE9BF
:104D0000F84306460F460024FFF7DBFE8020FFF73E
:104D10000EFF044316B1012E0AD104E0E520FFF78F
:104D200006FF044305E0E320FFF701FF044300E032
:104D300000BF00BFFFF7C5FE8120FFF7F8FE044368
:104D400040215248FBF783FD00250CE04FF47A70B8
:104D5000FFF78AFE40214D48FBF75FFD012800D197
:104D600004E0681C85B2B5F57A7FEFDB00BF402117
:104D70004648FBF752FD08B944F002040020FFF753
:104D80001AFF8DF800000020FFF715FF8DF80100D5
:104D90009DF801009DF8001000EB012038800120F3
:104DA000FFF709FF8046424602216846FFF749FFA8
:104DB0000443FFF7A1FE2046BDE8F8832DE9F84340
:104DC00005460E4600240027FFF77BFE8020FFF7F4
:104DD000AEFE044315B1012D0AD104E0F520FFF722
:104DE000A6FE044305E0F320FFF7A1FE044300E024
:104DF00000BF00BF00BFFFF764FE42F21070FFF774
:104E000033FE3846791C8FB2142800DB04E0812081
:104E1000FFF78DFE0128EED000BF142F01DB44F018
:104E200002040020FFF7C7FE8DF800000020FFF706
:104E3000C2FE8DF801009DF801009DF8001000EB06
:104E4000012030800120FFF7B6FE80464246022155
:104E50006846FFF7F6FE0443FFF74EFE2046BDE826
:104E6000F88310B50024FFF72CFE8020FFF75FFECB
:104E70000443FE20FFF75BFE0443FFF73DFE43F6CD
:104E80009820FFF7F1FD204610BD0000000C014006
:104E90002DE9F84F82462AF0030A504600F061FEE1
:104EA000009000F0B9FE80460022474B00F0E7FD7D
:104EB00006460022454B00F03BFD044600F0BFFED5
:104EC00083465846BDE8F88F2DE9F84F82462AF010
:104ED000030A504600F045FE009000F09DFE80461B
:104EE0003B4A3C4B00F0CBFD06463B4A3B4B00F0B7
:104EF0001FFD044600F0A3FE83465846BDE8F88F28
:104F000070B504460025FFF7DCFD8020FFF70FFE9B
:104F10000543FA20FFF70BFE05430F20FFF707FEBE
:104F20000543FFF7CEFD8120FFF701FE054300207A
:104F3000FFF741FE60710020FFF73DFE0020FFF704
:104F40003AFE20710020FFF736FE0020FFF733FE07
:104F5000E0700020FFF72FFE0020FFF72CFEA0706E
:104F60000120FFF728FEFFF7C7FDFFF7AAFD80200D
:104F7000FFF7DDFD0543FC20FFF7D9FD0543C92000
:104F8000FFF7D5FD0543FFF79CFD8120FFF7CFFD1F
:104F900005430020FFF70FFE60700020FFF70BFEB7
:104FA00020700020FFF707FE0020FFF704FEE071ED
:104FB0000020FFF700FEA0710120FFF7FCFDFFF7C6
:104FC0009BFD284670BD000000405F3F000018C0F8
:104FD000D7A3703D0AF7653FCDCCCCCCCC6C47C095
:104FE000F0B58BB007460C4615461E460121084613
:104FF000FBF795FE3846FBF765F900940195102004
:1050000002900396002004908020059000200690D6
:10501000079008904FF48050099000200A9069464C
:105020003846FBF7F1F90BB0F0BD70B504460D46FC
:1050300000212046FBF713FA29462046FBF724FA05
:1050400001212046FBF70BFA70BD000094B000BFB1
:105050000024FEF73DF940F2DC50FEF76EF9FDF753
:1050600075F94FF41650FDF77FFF4FF4E130FEF76E
:1050700027F8BCA001F0EEF9FEF7B1FAFEF753FEF7
:10508000FFF7FFFC0020FEF791FABA4BBAA200210D
:105090000846FEF734FB0A20FDF75FFEB54BBAA2C7
:1050A0000F210020FEF72BFBBBA001F0D3F9FDF789
:1050B0000EFD8346BBF1090F32D2DFE80BF0050984
:1050C0000E13181D22272C00BAA001F0C3F927E007
:1050D000C3A001F0BFF900F0C0FACAA001F0BAF90C
:1050E00000F0BBFAD1A001F0B5F900F0B6FAD8A0F3
:1050F00001F0B0F900F0B1FADEA001F0ABF900F078
:10510000ACFAE5A001F0A6F900F0A7FAECA001F0D6
:10511000A1F900F0A2FAF3A001F09CF900F09DFAC9
:1051200000BF944BF8A21E210020FEF7E8FA0120F0
:10513000F84908700020F84908804FF40061F748EA
:1051400000F045FB8B4BF64A2D210C20FEF7D7FAD9
:1051500040F2DC50FEF7F1F80020FEF727FA854B0D
:10516000F0A200210A20FEF7CAFA824BEFA200212A
:105170005F20FEF7C4FA7F4BEDA20F210A20FEF755
:10518000BEFA7C4BECA20F215F20FEF7B8FA794BF8
:10519000EAA21E210A20FEF7B2FA764BE3A21E21F4
:1051A0005F20FEF7ACFA734BE6A22D210A20FEF732
:1051B000A6FA704BE0A22D215F20FEF7A0FA4BE289
:1051C000D548008800F40040C8B1D3480088C0F337
:1051D0000E094A46D149DD4800F0E0FA0020CE49E8
:1051E0000880DA4901F80900D9A001F033F9D7495C
:1051F000DBA001F02FF9D549DCA0FDF7E5FF42F275
:105200001070824534DB0020FEF7D0F9594BC5A25F
:1052100000210A20FEF773FA564BC4A200215F203A
:10522000FEF76DFA534BC2A20F210A20FEF767FA70
:10523000504BC1A20F215F20FEF761FA4D4BBFA278
:105240001E210A20FEF75BFA4A4BB8A21E215F20FE
:10525000FEF755FA474BBBA22D210A20FEF74FFA65
:10526000444BB5A22D215F20FEF749FA4FF0000A0A
:1052700064209AFBF0F100FB11A0002870D10024FB
:1052800013A8FEF76FFE04439DF84C0020F0810048
:1052900040F08000139013A8FEF789FE044313A882
:1052A000FEF760FE044311A90020FEF795FE0443BB
:1052B00010A90120FEF790FE0443BDF84000FEF760
:1052C00073FF0C90BDF84400FEF752FF0D900D984F
:1052D00000F0A2FC05460E460C9800F09DFC074627
:1052E0003A460B46A2A0CDE9005601F0B3F80024DF
:1052F00012A8FFF7CAFC2043C4B29DF8480020F072
:10530000810040F08000129012A8FFF7E3FC2043D8
:10531000C4B212A8FFF7B9FC2043C4B20FA9002001
:10532000FFF7EDFC2043C4B20EA90120FFF7E7FC14
:105330002043C4B2BDF83800FEF736FF0A90BDF82E
:105340003C00FEF715FF0B900B9800F065FC05463E
:105350000E460A9800F060FC07463A460B4613E1F9
:1053600073E100000D0ACFB5CDB3C6F4B6AF2E2E53
:105370002E0D0A002E00002053797374656D207382
:10538000746172742D757000636F6E6E6563742046
:105390006E6574776F726B0045535038323636D76E
:1053A000BCB1B8C1ACBDD3B7FECEF1C6F7210D0A72
:1053B0000000000045535038323636C9E8D6C35590
:1053C0004450B3C9B9A6A3ACB2A2B3C9B9A6BDF83B
:1053D000C8EBCDB8B4ABC4A3CABD0D0A0000000031
:1053E00045535038323636C8EDBCFEB8B4CEBBCAD1
:1053F000A7B0DC2120D7BCB1B8D6D8C6F4CFB5CD84
:10540000B30D0A0045535038323636C9E8D6C35377
:105410005441C4A3CABDCAA7B0DC2120D7BCB1B8CF
:10542000D6D8C6F4CFB5CDB30D0A000045535038D9
:10543000323636C1ACBDD34150CAA7B0DC212CD71F
:10544000BCB1B8D6D8C6F4CFB5CDB30D0A000000B4
:1054500045535038323636B5C44950BBF1C8A1CA9D
:10546000A7B0DC212CD7BCB1B8D6D8C6F4CFB5CD07
:10547000B30D0A0045535038323636BFAAC6F4CDB4
:10548000B8B4ABCAA7B0DC212CD7BCB1B8D6D8C64B
:10549000F4CFB5CDB30D0A0045535038323636B986
:1054A000D8B1D5B6E0C2B7C1ACBDD3CAA7B0DC2174
:1054B0002CD7BCB1B8D6D8C6F4CFB5CDB30D0A0041
:1054C00045535038323636C9E8D6C3554450CAA77A
:1054D000B0DC212CD7BCB1B8D6D8C6F4CFB5CDB38B
:1054E0000D0A000045535038323636BDF8C8EBCDB2
:1054F000B8B4ABCAA7B0DC212CD7BCB1B8D6D8C6DB
:10550000F4CFB5CDB30D0A00636F6E6E656374653D
:10551000642100002C0000202A0000205C050020EF
:105520004804002041CEC2B6C83A0000A1E60000FF
:1055300041CAAAB6C83A00002500000042CEC2B651
:10554000C83A000042CAAAB6C83A00005C1500205A
:10555000D3D0CAFDBEDDB7A2C0B40D0A0000000062
:10556000CAFDBEDD3A25730D0A0000002573000058
:1055700043313D25332E32663B5248313D25332E93
:1055800032660D0A000000003AA0CDE9005600F096
:1055900061FF0B9800F040FB05460E460A9800F0AC
:1055A0003BFB074688460D9800F036FBCDE9080125
:1055B0000C9800F031FBCDE90278CDE90456CDE935
:1055C0000601DDE90801CDE9000130A0DDE906238F
:1055D000FDF7FAFD0C9800F01FFB05460B46364818
:1055E00002212A46CDE9001000213220FEF7EFFA11
:1055F0000D9800F011FB05460B462F4802212A4664
:10560000CDE900100F213220FEF7E1FA0A9800F0F0
:1056100003FB05460B46284802212A46CDE9001027
:105620001E213220FEF7D3FA0B9800F0F5FA05465A
:105630000B46214802212A46CDE900102D213220B7
:10564000FEF7C5FA0120FCF7AFFE0A20FDF775FE54
:105650000AF101001FFA80FAB2E51848006800F468
:10566000E06017490843001D14490860BFF34F8FDD
:1056700000BFFEE743323D25332E32663B524832AF
:105680003D25332E32660D0A0000000043313D25D2
:10569000332E32663B5248313D25332E32663B4332
:1056A000323D25332E32663B5248323D25332E3271
:1056B000663B0D0A00000000360000200CED00E003
:1056C0000000FA05704700BFFEE700BFFEE700BF1D
:1056D000FEE700BFFEE77047704770470448008848
:1056E00020B103480088401E01490880704700002F
:1056F0004000002038B5D0E90221491E01EB4101EC
:1057000002EBC1014268C1EB011102EB81010268A9
:10571000C1EB011102EB8102D0E9043101EB41013F
:1057200003EB81013023A1F5527191FBF3F4174D86
:105730006C4302EBC41291FBF3F403FB14110092CF
:105740001A2902DB124B1A4400920C2291FBF2F34D
:10575000104C6343009C04EBC313009391FBF2F3E2
:1057600002FB13110C4A08E0491E40F2A324535CCB
:105770006343009C04EBC31300930029F4DC01464F
:10578000684600F0F7FA009838BD00003F0C0F00A3
:105790008051010067C20300208C000840EA010329
:1057A0009B0703D009E008C9121F08C0042AFAD2D7
:1057B00003E011F8013B00F8013B521EF9D270479B
:1057C000D2B201E000F8012B491EFBD27047002243
:1057D000F6E710B513460A4604461946FFF7F0FFF0
:1057E000204610BD30B505462A460B4612F8010B7F
:1057F00013F8014B08B1A042F8D01CB1002802D028
:105800006D1CF1E7284630BD421C10F8011B002931
:10581000FBD1801A704700000FB400B58DB010A9FD
:1058200009900B9000914FF0FF300A9000200C90EF
:1058300005480690054807906A4609A80F9900F0A8
:10584000E5FA0DB05DF814FB295E0008475E00081C
:105850002DE9FF5FD2E901A74FF000089169994651
:105860001446DDF838B0464601988847054659EA9F
:105870000B0005D009E0A169761C01988847054610
:10588000216A284688470028F5D1681C03D05FEAC2
:10589000CA7005D015E04FF0FF3004B0BDE8F09FAE
:1058A0002068011D2160D0F800800AE05FEACA701C
:1058B00001D108F8015BA169761C7F1E0198884719
:1058C0000546002F1ADD681C18D0B9F1000F0DD065
:1058D000E81705EBD060421120F01F0059F82210A4
:1058E0002A1A012090400142E0D107E0BBF1000FED
:1058F000DCD1216A284688470028D7D0E169019881
:105900008847BBF1000F07D1002E05DD5FEACA70A2
:1059100002D1002188F80010A068B84203DDBBF175
:10592000000F03D017B16FF00100B6E73046B4E7BF
:105930002DE9FE4F804681EA0300C00F0C4600901F
:1059400021F0004123F00045B8EB0200A94105D247
:105950004046214690461C460B46024623F0004036
:10596000104347D0270DC7F30A00C3F30A51029032
:10597000401A019040286BDAC3F3130040F4801BF7
:105980000098924620B10023D2EB030A63EB0B0B85
:1059900001985946C0F14002504600F0B3F906465E
:1059A0000D4650465946019A00F0CBF910EB08001D
:1059B0006141002487EA115284EAE7731A4340D018
:1059C000009A62B3019A012A4FEA075215DC001BC4
:1059D00061EB02014FF0004202EA0752CDE90042BA
:1059E000001C41F5801132462B4600F083FA03B0CB
:1059F000BDE8F08F40462146F9E7001B61EB02014C
:105A0000001C41F5801300185B412018A2F5001717
:105A100047EB030140EAD570B6196D4111E06D08FE
:105A20004FEA360645EAC0754FEA0752001B61EBA4
:105A30000201001C41F5801149084FEA30000019AD
:105A4000514132462B4603B0BDE8F04F00F043BA57
:105A50000098012240000023D0EB020263EBE073C8
:105A6000009821464FEAE074B8EB000061EB0401B6
:105A7000E9E783F000435BE781F0004158E72DE957
:105A8000FE4F81EA030404F0004421F00041009439
:105A90004FF0000B23F0004350EA01045ED052EABD
:105AA00003045BD0C3F30A54C1F30A552C44A4F297
:105AB000F3340194A0FB0254C1F3130141F48011AB
:105AC000C3F3130343F4801301FB024400FB034EB2
:105AD000840A970A44EA815447EA8357A4FB07687B
