:020000040800F2
:1000000040BB0020E9250008ED230008EF2300088D
:10001000F3230008F7230008FB230008000000007A
:10002000000000000000000000000000FF230008A6
:100030000124000800000000032400080524000833
:100040000326000803260008032600085B53000867
:1000500003260008032600080326000803260008DC
:1000600003260008032600080326000803260008CC
:1000700003260008032600080326000803260008BC
:1000800003260008032600080326000803260008AC
:10009000032600080326000803260008032600089C
:1000A000032600080326000803260008032600088C
:1000B0000326000803600008915600080326000884
:1000C000032600080326000803260008032600086C
:1000D00003260008C34600087F540008EB5E0008B2
:1000E000032600080326000803260008032600084C
:1000F000032600080326000803260008032600083C
:10010000032600080326000803260008032600082B
:10011000C94D00080F5000080326000803260008F8
:10012000032600080326000803260008032600080B
:10013000DFF80CD006F0FEFD00480047450300083C
:1001400040BB002010B50320F94908700720F94989
:10015000088041F69070F8490880F8A1F94806F047
:100160000BFEF9A1FB4806F007FEFBA1FD4806F0D7
:1001700003FEFDA1FD4806F0FFFDF3A1FC4806F0DB
:10018000FBFDF5A1FB4806F0F7FDFBA1FE4806F0DC
:10019000F3FD10BD10B50222E649002005F031FE46
:1001A0000222E549104605F02CFEE14801780420C2
:1001B00005F0B6FD1022E349104605F022FE10229C
:1001C000E849202005F01DFE1022E249302005F00C
:1001D00018FE1022E549402005F013FE1022E549E3
:1001E000502005F00EFE1022E149602005F009FEC6
:1001F0001022E549702005F004FE10BD10B5022262
:10020000CC49002005F0ECFD0222CB49104605F058
:10021000E7FD042005F05AFDC54908701022C949C0
:10022000104605F0DDFD1022CE49202005F0D8FD56
:100230001022C849302005F0D3FD1022CB494020C0
:1002400005F0CEFD1022CB49502005F0C9FD10224B
:10025000C749602005F0C4FD1022CB49702005F08D
:10026000BFFD10BD30B5A9B004462246C7A109A8FC
:1002700006F082FD85B22A46C5A101A806F07CFDE4
:100280001422C7A101A805F044FA642004F091F9F2
:100290006422C3A109A805F066FA29B030BD30B5C3
:1002A000A9B004462246B9A109A806F065FD85B2A9
:1002B0002A46BCA101A806F05FFD1422B8A101A83E
:1002C00005F027FA642004F074F96422B4A109A8A7
:1002D00005F049FA29B030BD30B5A9B00446224630
:1002E000AAA109A806F048FD85B22A46B1A101A835
:1002F00006F042FD1422AAA101A805F00AFA642022
:1003000004F057F96422A6A109A805F02CFA29B037
:1003100030BD2DE9FC478246AA48407900F2DA74E4
:10032000A848057A067B077C90F8148090F818900E
:100330003B46324629462046CDE9008905F021F8A2
:10034000BDE8FC87C2B0002040903E901C901B90FE
:100350001A90199018909C481390002012904FF416
:10036000165004F062F904F0E7F84FF4A06002F0D0
:100370004DF906F07BF995A006F0EEFC9AA006F088
:10038000EBFC04F0A7FE9CA11DA806F0F5FC80B2D2
:100390003E903E98C0B2014611901DA804F074FE34
:1003A00098A11DA806F0E8FC80B23E903E98C0B22D
:1003B000014611901DA804F067FE1DE09AA11DA83A
:1003C00006F0DAFC80B23E903E98C0B20146119031
:1003D0001DA804F059FE4FF4487004F0EAF89AA101
:1003E0001DA806F0C9FC80B23E903E98C0B20146FE
:1003F00011901DA804F048FE04F05BFF0028DDD139
:1004000099A11DA806F0B8FC80B23E903E98C0B2FB
:10041000014611901DA804F037FE642004F0C9F8CD
:100420009AA006F099FC04F06EFD9CA006F094FCE6
:1004300005F03EFE9EA006F08FFC05F068FE06F07B
:1004400056F8189908431890642004F0B2F805F0A3
:1004500039FC9CA11DA806F08FFC80B23E903E980E
:10046000C0B2014611901DA804F00EFE05F0A9FCD3
:10047000A8B19DA11DA806F07FFC80B23E903E98D9
:10048000C0B2014611901DA804F0FEFDFFF75AFE10
:10049000FFF780FE4FF47A7004F08BF815E09EA011
:1004A00006F05AFCA1A11DA806F066FC80B23E90A1
:1004B0003E98C0B2014611901DA804F0E5FDFFF77B
:1004C0009DFE4FF47A7004F074F81E49A1A006F066
:1004D00043FC1C4AA3A11DA806F04EFC80B23E902E
:1004E0003E98C0B2014611901DA804F0CDFD4FF416
:1004F000E13005F03AF8322229A1A3A005F009F96C
:10050000142227A1A3A005F004F94FF47A7004F097
:1005100050F84FF47A7004F04CF84FF49672094991
:100520009EA005F0F6F81B901B9800283CE1000007
:10053000020000200000002078000020696E666F35
:100540007465630080B40020777061777061325FFA
:100550006165730090B40020363637383635303652
:1005600000000000A0B40020454D5400B0B40020AD
:10057000C0B40020D0B400203232322E3139352EB2
:100580003232362E31343000E0B4002025730000C2
:1005900041542B43495053454E443D312C25640072
:1005A0004F4B000041542B43495053454E443D2589
:1005B0006400000041542B43495053454E443D30A4
:1005C0002C25640034B40020000020410D0ACDBC6D
:1005D000CAE9B9DDB9DDC9E1BFD5C6F8BCE0B2E210
:1005E000D6D5B6CB0D0A0000CFB5CDB3C6F4B6AFA5
:1005F0002E2E2E0D0A00000070616765206D616966
:100600006E0000006D61696E2E73747253746174B4
:1006100075732E7478743D22CFB5CDB3C6F4B6AFE2
:100620002E2E2E22000000006D61696E2E737472F2
:100630005374617475732E7478743D225254432040
:100640004572726F722200006D61696E2E73747252
:100650005374617475732E7478743D225254432020
:10066000547279696E6722006D61696E2E737472BF
:100670005374617475732E7478743D22C1ACBDD30C
:10068000B4ABB8D0C6F72E2E2E220000C6F4B6AFFB
:10069000504DB4ABB8D0C6F72E0D0A00C6F4B6AFB5
:1006A000434F32B4ABB8D0C6F72E0D0A000000009D
:1006B000C6F4B6AFCEC2CAAAB6C8B4ABB8D02E0D77
:1006C0000A0000006D61696E2E7374725374617458
:1006D00075732E7478743D22B6C1C8EBB2CECAFDD4
:1006E0002E2E2E22000000006D61696E2E73747232
:1006F0005374617475732E7478743D22454550525D
:100700004F4DCEDEB2CECAFDA3ACD4D8C8EBC4AC3C
:10071000C8CFB2CECAFD2200B4D3454550524F4D8A
:10072000B6C1C8EBB2CECAFD0D0A00006D61696E9C
:100730002E7374725374617475732E7478743D22C1
:10074000B4D3454550524F4DB6C1C8EBB2CECAFDE9
:1007500022000000D1B0D5D257494649A3BA25732B
:100760000D0A00006D61696E2E73747253746174AA
:1007700075732E7478743D22D1B0D5D2574946494D
:10078000A3BA25732200000041542B43574D4F4418
:10079000453D310041542B525354000041542B43EA
:1007A000574C4150000000002CD0F949F9A006F048
:1007B000D3FAF74AFBA11DA806F0DEFA80B23E90FC
:1007C0003E98C0B2014611901DA804F05DFC4FF4A4
:1007D0001672EF49AFF23C0004F09BFF1A904FF401
:1007E0001672AFF27C21AFF24C0004F092FF1A9027
:1007F0001A9818B10220F349087006E00120F14967
:10080000087002E00321EF480170EE480178EEA085
:10081000DDE91A3206F0A0FAF2A11DA806F0ACFA42
:1008200080B23E903E98C0B2014611901DA804F0DF
:100830002BFCF6A006F090FA01F0ECBAF9488178AA
:100840004198814271D0F74880784190F64800681D
:1008500008B9012000E00020F34908604098401CDE
:10086000C0B24090EF4880780090EE4840781190F8
:10087000EC48007810900246ECA11DA8119B06F0F0
:100880007BFA80B23E903E98C0B2014611901DA8FE
:1008900004F0FAFBE348007A072873D2DFE800F09F
:1008A000730416283A4E6000DE48C0790090DD4897
:1008B00080791190DB48808810900246E2A11DA843
:1008C000119B06F059FA80B23E9083E0D548C0797A
:1008D0000090D44880791190D248808810900246C8
:1008E000E2A11DA8119B06F047FA80B23E9071E08C
:1008F000CC48C0790090CB4880791190C948808855
:1009000010900246E2A11DA8119B06F035FA80B2B4
:100910003E905FE0C348C0790090C2488079119052
:10092000C04880881090024600E022E1E1A11DA8A5
:10093000119B06F021FA80B23E904BE0B948C07995
:100940000090B84880791190B6488088109002468F
:10095000E1A11DA8119B06F00FFA80B23E9039E08C
:10096000B048C0790090AF4880791190AD48808838
:1009700010900246E1A11DA8119B06F0FDF980B27E
:100980003E9027E011E0A748C0790090A548807903
:100990001190A448808810900246E1A11DA8119BE7
:1009A00006F0EAF980B23E9014E09E48007A9D4934
:1009B000C979CDE900109B488079119099488088C9
:1009C00010900246DFA11DA8119B06F0D5F980B258
:1009D0003E9000BF00BF3E98C0B2014611901DA8D6
:1009E00004F052FB002005F04BFB139805F0FEFFCE
:1009F0000246DCA111901DA806F0BEF980B23E901F
:100A00003E98C0B2014611901DA804F03DFBD848A5
:100A1000008805F0E6FF0B9006F020F80022D54B89
:100A2000CDE90C0105F06EFFCDE90E0105F0F7FFF1
:100A30000246D1A111901DA806F09EF980B23E9009
:100A40003E98C0B2014611901DA804F01DFB1498F9
:100A500005F0CCFF0246CBA111901DA806F08CF941
:100A600080B23E903E98C0B2014611901DA804F09D
:100A70000BFBC748008805F0B4FF0B9005F0EEFFB4
:100A800000224FF08043CDE90C0105F03BFFCDE99A
:100A90000E0105F0C4FF0246BEA111901DA806F08C
:100AA0006BF980B23E903E98C0B2014611901DA8ED
:100AB00004F0EAFA0020189017A805F02CFC189909
:100AC000084318909DF85C0020F0810040F0800001
:100AD000179017A805F044FC18990843189017A818
:100AE00005F019FC18990843189016A9002005F084
:100AF0004CFC18990843189015A9012005F045FCF5
:100B0000189908431890BDF85400119005F022FD83
:100B10001490BDF85800119005F000FD1390149842
:100B200005F09CFF02460B46CDE910019CA11DA8D3
:100B300006F022F980B23E903E98C0B20146119074
:100B40001DA804F0A1FA139805F088FF02460B4691
:100B5000CDE910019BA11DA806F00EF980B23E90D0
:100B60003E98C0B2014611901DA804F08DFA0020F5
:100B700018909C48008800F40040002807D099484D
:100B800000783D900021984A3D9811542EE104E3ED
:100B9000B0B40020D1B0D5D24150A3BA25730D0A0C
:100BA000000000006D61696E2E737472537461747D
:100BB00075732E7478743D22D1B0D5D24150A3BA4A
:100BC00025732200020000206C696E6B6D6F6465F6
:100BD0003A25642C7374613A25642C61703A25645B
:100BE0000D0A00006D61696E2E7374725374617426
:100BF00075732E7478743D22C6F4B6AFCDEAB3C9CE
:100C00002CB6C0C1A2B9A4D7F7220000B4ABB8D0AB
:100C1000C6F7C6F4B6AFCDEAB3C92CB6C0C1A2B907
:100C2000A4D7F70074B40020940122426D61696E6C
:100C30002E73747254696D652E7478743D22256428
:100C40003A25643A256422006D61696E2E737472D0
:100C5000446174652E7478743D2225642D25642DBD
:100C6000256420D0C7C6DAD2BB2200006D61696E50
:100C70002E737472446174652E7478743D222564F9
:100C80002D25642D256420D0C7C6DAB6FE220000CB
:100C90006D61696E2E737472446174652E7478741C
:100CA0003D2225642D25642D256420D0C7C6DAC8D1
:100CB000FD2200006D61696E2E737472446174656B
:100CC0002E7478743D2225642D25642D256420D052
:100CD000C7C6DACBC42200006D61696E2E737472D0
:100CE000446174652E7478743D2225642D25642D2D
:100CF000256420D0C7C6DACEE52200006D61696E9A
:100D00002E737472446174652E7478743D22256468
:100D10002D25642D256420D0C7C6DAC1F922000034
:100D20006D61696E2E737472446174652E7478748B
:100D30003D2225642D25642D256420D0C7C6DAC840
:100D4000D52200006D61696E2E7374724461746502
:100D50002E7478743D2225642D25642D256420256C
:100D6000642200006164642031362C302C2564003C
:100D70007E00002000003E406164642031362C314A
:100D80002C2564006164642031362C322C256400EB
:100D90005C0000206164642031362C332C25640013
:100DA0006D61696E2E73747254656D7065726174D5
:100DB0007572652E7478743D2225322E3166A1E657
:100DC000220000006D61696E2E73747248756D6942
:100DD000646974792E7478743D2225322E3166252B
:100DE000252200007A000020F0B40020FBA004F0CF
:100DF0007AFCB0B1FD49FEA005F0AEFFFB4AAFF2B0
:100E000064211DA805F0B8FF80B23E90FC48007830
:100E1000032803D11DA8FFF75FFA02E01DA8FFF722
:100E20003EFAF8A004F05FFC002871D0EF480C38BF
:100E3000C17C807C01EB0020F4498880EB480C38B1
:100E4000007D8871E9480C38407DC871E7480C384E
:100E5000807D0870E5480C38C07D4870E3480C3848
:100E6000007E8870084680784978CDE90010E74810
:100E700000781190E548C0791090E44880790F908F
:100E8000E24880880E900FA90EC904F07AFADF4874
:100E90008078DE494978DD4A1278DC4BDB79CDE990
:100EA0000132CDE90310D94880790090D748808875
:100EB0001190CE480C38C07C1090CC480C38807C07
:100EC0000F900146D2A0DDE9102305F045FFCF4881
:100ED000817842780078CD4BDB79CDE90230CDE9DD
:100EE0000421CA488079C9498988CDE90010BF48E2
:100EF0000C38C07C1190BD480C38807C10900246A4
:100F0000C3A11DA8119B05F037FF1DA8FFF7AAF983
:100F1000C9A004F0E8FB30B3B4490831C8A005F01B
:100F20001BFF14203F900AE0B0490C393F98095C40
:100F30001438C74A11543F98401C80B23F903D99E5
:100F40003F988842F0DB00213D981438C04A115484
:100F5000FFF720F9A54A0832BEA11DA805F00CFF35
:100F60001DA8FFF77FF9BFA004F0BDFB30B39F4978
:100F7000C91DBEA005F0F0FE13203F900AE09B497A
:100F80000C393F98095C1338BC4A11543F98401CF7
:100F900080B23F903D993F988842F0DB00213D9818
:100FA0001338B64A1154FFF7F5F8904AD21DB4A190
:100FB0001DA805F0E1FE1DA8FFF754F9B4A004F048
:100FC00092FB30B38949C91DB3A005F0C5FE1320BB
:100FD0003F900AE085490C393F98095C1338B24AC2
:100FE00011543F98401C80B23F903D993F988842F1
:100FF000F0DB00213D981338AB4A1154FFF7CAF8D3
:101000007A4AD21DA9A11DA805F0B6FE1DA8FFF7BA
:1010100029F9AAA004F067FB30B37449891DA9A07F
:1010200005F09AFE12203F900AE070490C393F9873
:10103000095C1238A64A11543F98401C80B23F9078
:101040003D993F988842F0DB00213D981238A04A34
:101050001154FFF79FF8654A921D9EA11DA805F047
:101060008BFE1DA8FFF7FEF89EA004F03CFB30B3FA
:101070005E4909319EA005F06FFE15203F900AE001
:101080005A490C393F98095C15389D4A11543F98CC
:10109000401C80B23F903D993F988842F0DB002190
:1010A0003D981538964A1154FFF774F84F4A0932A3
:1010B00094A11DA805F060FE1DA8FFF7D3F896A027
:1010C00004F011FBD0B149480C38007D0146119065
:1010D00093A005F041FE45480C38007D4849087052
:1010E000FFF758F841480C38007D024690A1119056
:1010F0001DA805F041FE1DA8FFF7B4F890A004F06C
:10110000F2FAD0B139480C38407D90490880FFF799
:1011100041F836480C38407D014611908CA005F00E
:101120001BFE32480C38407D02468DA111901DA84F
:1011300005F022FE1DA8FFF795F88EA004F0D3FA63
:10114000B0B18EA005F008FE129810B18DA0FFF787
:1011500089F800BF8E48006800F4E0608D490843BC
:10116000001D8B490860BFF34F8F00BF00BFFEE733
:1011700089A004F0B8FA20B18AA005F0EDFD0120A5
:1011800012908EA004F0AFFA20B18FA005F0E4FD1C
:10119000002012900020924908809248008800F4B4
:1011A0000040002817D01998A0B98F4802888FA155
:1011B0001DA805F0E1FD80B23E903E98C0B2014608
:1011C00011901DA803F060FF87480088B0F57A7F72
:1011D00002DD15E13CE13EE120E100004169724998
:1011E0006E7370656374696F6E000000FCB400205C
:1011F0005472616E73666F723A25730D0A000000B7
:101200000200002054696D657200000074B4002073
:1012100054696D655365743A2564202564202564FE
:101220002D25642D25642025643A25643A25642003
:101230006F6B0D0A000000005354415353494400A2
:1012400053544120535349443A25730D0A0000007A
:1012500080B40020535441535349443A2573206FBE
:101260006B0D0A0053544150574400005354412021
:101270005057443A25730D0A00000000A0B4002026
:101280005354415057443A2573206F6B0D0A0000A8
:101290004150535349440000415020535349443A6C
:1012A00025730D0A00000000B0B4002041505353D4
:1012B00049443A2573206F6B0D0A00004150505786
:1012C000440000004150205057443A25730D0A0055
:1012D000D0B4002041505057443A2573206F6B0D15
:1012E0000A000000536572766572495000000000E4
:1012F00053657276657249503A25730D0A000000F5
:10130000E0B4002053657276657249503A25732027
:101310006F6B0D0A0000000052756E4D6F64650022
:1013200052756E206D6F64653A25640D0A000000E9
:1013300052756E4D6F64653A2564206F6B0D0A001F
:1013400044657669636549440000000000000020A0
:1013500044657669636549443A25640D0A000000D6
:1013600044657669636549443A2564206F6B0D0ACC
:1013700000000000526573657400000052657365DB
:10138000740D0A007265736574206F6B00000000B5
:101390000CED00E00000FA05312C434F4E4E454362
:1013A0005400000074637020636C69656E74206380
:1013B0006F6E6E6563740D0A00000000312C434CA3
:1013C0004F53454400000000746370636F6E6E6598
:1013D0006374696F6E20636C6F7365640D0A00003F
:1013E0007A0000207C0000207E0000206D61696E84
:1013F0002E6E434F322E76616C3D25640000000056
:10140000FEA11DA805F0B8FC80B23E903E98C0B287
:10141000014611901DA803F037FE19E0FBA11DA89D
:1014200005F0AAFC80B23E903E98C0B201461190F1
:101430001DA803F029FEF9A11DA805F09DFC80B2AE
:101440003E903E98C0B2014611901DA803F01CFECC
:101450000020F7490880F748008800F40040002881
:1014600078D01998002876D1F3480288F3A11DA8F6
:1014700005F082FC80B23E903E98C0B201461190C9
:101480001DA803F001FEF2480288F2A11DA805F094
:1014900073FC80B23E903E98C0B2014611901DA8E8
:1014A00003F0F2FDEA48008896280DDDEEA11DA8A4
:1014B00005F062FC80B23E903E98C0B201461190A9
:1014C0001DA803F0E1FD33E0EBA11DA805F054FCDD
:1014D00080B23E903E98C0B2014611901DA803F024
:1014E000D3FDE9A11DA805F047FC80B23E903E98CF
:1014F000C0B2014611901DA803F0C6FDE7A11DA8CA
:1015000005F03AFC80B23E903E98C0B20146119080
:101510001DA803F0B9FDE7A11DA805F02DFC80B2C0
:101520003E903E98C0B2014611901DA803F0ACFD5C
:10153000E6480288E6A11DA805F01EFC80B23E9098
:101540003E98C0B2014611901DA803F09DFDE548EC
:10155000028801E0E7E02AE0E3A11DA805F00CFC09
:1015600080B23E903E98C0B2014611901DA803F093
:101570008BFDE2480288E2A11DA805F0FDFB80B2C8
:101580003E903E98C0B2014611901DA803F07CFD2C
:10159000E0480288E0A11DA805F0EEFB80B23E9075
:1015A0003E98C0B2014611901DA803F06DFD199838
:1015B00002287CD1A0480288DCA11DA805F0DCFB34
:1015C00080B23E903E98C0B2014611901DA803F033
:1015D0005BFD9F480288D9A11DA805F0CDFB80B214
:1015E0003E903E98C0B2014611901DA803F04CFDFC
:1015F000B6480288D5A11DA805F0BEFB80B23E907A
:101600003E98C0B2014611901DA803F03DFDB548BB
:101610000288D2A11DA805F0AFFB80B23E903E9893
:10162000C0B2014611901DA803F02EFDB3480288F8
:10163000CFA11DA805F0A0FB80B23E903E98C0B29D
:10164000014611901DA803F01FFDB2480288CDA1EC
:101650001DA805F091FB80B23E903E98C0B20146B5
:1016600011901DA803F010FDCB480288CBA11DA846
:1016700005F082FB80B23E903E98C0B201461190C8
:101680001DA803F001FDCA480288CAA11DA805F0E3
:1016900073FB80B23E903E98C0B2014611901DA8E7
:1016A00003F0F2FCC8480288C8A11DA800E037E09A
:1016B00005F062FB80B23E903E98C0B201461190A8
:1016C0001DA803F0E1FCC6480288C6A11DA805F0CC
:1016D00053FB80B23E903E98C0B2014611901DA8C7
:1016E00003F0D2FCC4480288C4A11DA805F044FB45
:1016F00080B23E903E98C0B2014611901DA803F002
:10170000C3FCC3480288C3A11DA805F035FB80B205
:101710003E903E98C0B2014611901DA803F0B4FC63
:10172000002044490880C048008800F40040002898
:1017300062D0BD4800783D900021BC4A3D981154CC
:1017400010460078AA2813D110464078AA280FD155
:1017500010468078AA280BD11046C078AA2807D155
:1017600000201990B2A005F0F7FA3D98FEF7D1FDE0
:10177000AE480078AA280DD1AC484078A02809D1FD
:10178000AA488078AA2805D1A848C078A02801D105
:1017900000201990A5480078AA282ED1A3484078A7
:1017A000A1282AD1A1488078AA2826D19F48C078AC
:1017B000A12822D101201990A04880880246A0A12A
:1017C00011901DA805F0D8FA80B23E903E98C0B2A4
:1017D000014611901DA803F057FC984880790246F5
:1017E0009CA111901DA805F0C7FA80B23E903E98CA
:1017F000C0B20146119039E1B6E27EE16D61696ED9
:101800002E746D312E656E3D310000006D61696E84
:101810002E746D312E656E3D300000006D61696E75
:101820002E6E434F322E70636F3D363534383300A1
:101830007C000020580000205A0000206D61696E75
:101840002E6E504D312E76616C3D256400000000F7
:101850005C0000206D61696E2E6E504D32352E7623
:10186000616C3D25640000006D61696E2E746D3001
:101870002E656E3D310000006D61696E2E746D3015
:101880002E656E3D300000006D61696E2E6E504D0C
:10189000312E70636F3D3635343833006D61696EBB
:1018A0002E6E504D32352E70636F3D3635343833E1
:1018B000000000006D61696E2E6E504D31302E704B
:1018C000636F3D3635343833000000005E00002081
:1018D0006D61696E2E6E504D31302E76616C3D25F6
:1018E00064000000600000206D61696E2E6E44513E
:1018F000504D312E76616C3D256400006200002061
:101900006D61696E2E6E4451504D32352E76616C8C
:101910003D256400640000206D61696E2E6E4451A7
:10192000504D31302E76616C3D256400706D2E6E09
:10193000504D312E76616C3D25640000706D2E6E29
:10194000504D32352E76616C3D256400706D2E6EE3
:10195000504D31302E76616C3D256400706D2E6ED9
:101960004451504D312E76616C3D256400000000DD
:10197000706D2E6E4451504D32352E76616C3D2582
:1019800064000000706D2E6E4451504D31302E7643
:10199000616C3D256400000066000020706D2E6EB5
:1019A000504D3355502E76616C3D2564000000008B
:1019B00068000020706D2E6E504D3555502E7661AA
:1019C0006C3D2564000000006A000020706D2E6EE2
:1019D000504D313055502E76616C3D25640000002D
:1019E0006C000020706D2E6E504D323555502E76A5
:1019F000616C3D25640000006E000020706D2E6E4D
:101A0000504D353055502E76616C3D2564000000F8
:101A100070000020706D2E6E504D31303055502EBC
:101A200076616C3D256400007400002034B4002011
:101A30005365742074696D65720D0A0074B40020DA
:101A400074696D652E6E796561722E7478743D22AD
:101A50002564220074696D652E6E6D6F6E74682E3C
:101A60007478743D22256422000000001DA803F054
:101A70000BFBFE48C0790246FDA111901DA805F0A0
:101A80007BF980B23E903E98C0B2014611901DA8ED
:101A900003F0FAFAF54800780246FAA111901DA861
:101AA00005F06AF980B23E903E98C0B201461190AE
:101AB0001DA803F0E9FAED4840780246F6A111901E
:101AC0001DA805F059F980B23E903E98C0B201467B
:101AD00011901DA803F0D8FAE44880780246F4A1DA
:101AE00011901DA805F048F980B23E903E98C0B212
:101AF000014611901DA803F0C7FAF3480078AA2800
:101B00000DD1F1484078A22809D1EF488078AA2861
:101B100005D1ED48C078A22801D102201990EA48E9
:101B20000078AA2876D1E8484078A328FAD1E64878
:101B30008078AA28F6D1E448C078A328F2D10320FF
:101B40001990E24AE2A11DA805F016F980B23E9074
:101B50003E98C0B2014611901DA803F095FAE34AE1
:101B6000E3A11DA805F008F980B23E903E98C0B2EE
:101B7000014611901DA803F087FAE4480288E4A109
:101B80001DA805F0F9F880B23E903E98C0B201461B
:101B900011901DA803F078FAE248007820B10128DE
:101BA0002AD003287AD151E0DFA11DA805F0E4F87E
:101BB00080B23E903E98C0B2014611901DA803F03D
:101BC00063FADEA11DA805F0D7F880B23E903E98DA
:101BD000C0B2014611901DA803F056FADCA11DA861
:101BE00005F0CAF880B23E903E98C0B2014611900E
:101BF0001DA803F049FA51E0DAA11DA805F0BCF8D0
:101C000080B23E903E98C0B2014611901DA803F0EC
:101C10003BFA00E043E0D8A11DA805F0ADF880B282
:101C20003E903E98C0B2014611901DA803F02CFAD8
:101C3000C7A11DA805F0A0F880B23E903E98C0B2A2
:101C4000014611901DA803F01FFA27E0C5A11DA8A9
:101C500005F092F880B23E903E98C0B201461190D5
:101C60001DA803F011FAB5A11DA805F085F880B2F2
:101C70003E903E98C0B2014611901DA803F004FAB0
:101C8000C2A11DA805F078F880B23E903E98C0B27F
:101C9000014611901DA803F0F7F900BF00BF8A4864
:101CA0000078AA2815D188484078A32811D1864801
:101CB0008078AA280DD18448C07850B903201990A3
:101CC0008148007991490880002096490870FEF704
:101CD00061FA7D480078AA2816D17B484078A3286D
:101CE00012D179488078AA280ED17748C078012887
:101CF0000AD1032019907448017984480180012099
:101D000088490870FEF746FA6F480078AA2816D16D
:101D10006D484078A32812D16B488078AA280ED14C
:101D20006948C07802280AD10320199066480079D2
:101D30007649088003207B490870FEF72BFA624839
:101D40000078AA280DD160484078A42809D15E48BF
:101D50008078AA2805D15C48C078A42801D1042045
:101D6000199000208E490880409809284FDD0020F6
:101D700040901C9880B3139804F070FECDE91001D8
:101D8000149804F06BFECDE90E013848807837498D
:101D90004A780978354BDB79CDE90931CDE90B205B
:101DA00032488079314989887E4A1288CDE90621F6
:101DB0000890DDE91001CDE90401DDE90E01CDE96E
:101DC00002017948008879490988CDE900107848EE
:101DD00003884E48028800E019E076A11DA804F0AF
:101DE000CBFF80B23E904F480078032803D11DA856
:101DF000FEF772FA06E04B480078012802D11DA8D0
:101E0000FEF74DFA129810B11DA8FEF72BFA0A2022
:101E100002F0CFFBFEF712BD30B5A1B0054600249D
:101E20004FF47A7002F0C5FB322272A172A003F067
:101E300070FC14226FA1734803F06BFC4FF47A70AE
:101E400002F0B7FB4FF47A7002F0B3FB4FF47A70F4
:101E500002F0AFFB322267A16BA003F05AFC4FF4F3
:101E60007A7002F0A6FB6B4B184AD5E074B40020E0
:101E700074696D652E6E6461792E7478743D2225C7
:101E80006422000074696D652E6E686F75722E7421
:101E900078743D222564220074696D652E6E6D692B
:101EA0006E7574652E7478743D22256422000000DE
:101EB00074696D652E6E7365636F6E642E747874CD
:101EC0003D2225642200000034B4002080B40020AC
:101ED0006E6574776F726B2E7374615F7373696470
:101EE0002E7478743D22257322000000B0B40020C7
:101EF0006E6574776F726B2E61705F737369642E99
:101F00007478743D22257322000000000000002038
:101F10006E6574776F726B2E6E49442E76616C3DE0
:101F200025640000020000206E6574776F726B2ECE
:101F300072302E76616C3D31000000006E65747762
:101F40006F726B2E72312E76616C3D300000000096
:101F50006E6574776F726B2E72322E76616C3D30C7
:101F6000000000006E6574776F726B2E72302E76F3
:101F7000616C3D30000000006E6574776F726B2EEF
:101F800072312E76616C3D31000000006E65747711
:101F90006F726B2E72322E76616C3D310000000044
:101FA000740000207E0000205E0000205C00002005
:101FB0005A000020416972496E7370656374696FDD
:101FC0006E3A25647C25647C25647C25647C2532FE
:101FD0002E31667C25322E31667C25647C25642D6D
:101FE00025642D25642025643A25643A25640D0A6C
:101FF000000000004F4B000041542B43574D4F440D
:10200000453D33009407000841542B43575141503C
:1020100000000000A0B40020B2A101A804F0ACFEB2
:1020200000BF06E0601CC4B2AC4202DD002021B05B
:1020300030BD4FF47A72B0A101A803F06AFB00280A
:10204000F0D14FF47A7002F0B4FA4FF47A7002F0E3
:10205000B0FA4FF47A7002F0ACFA4FF47A7002F0F2
:10206000A8FA4FF47A7002F0A4FA3222AFF27C019F
:10207000A4A003F04EFBC82002F09BFAA44BA54A93
:10208000A5A101A804F078FEC822AFF2980101A82A
:1020900003F03FFB4FF47A7002F08BFA3222AFF27A
:1020A000AC0198A003F035FBC82002F082FAA048EA
:1020B0000388A04AA0A101A804F05EFE002405E068
:1020C000601CC4B2AC4201DB0020B0E74FF47A726E
:1020D000A0A101A803F01DFB0028F1D1C82002F047
:1020E00068FA934802889DA101A804F045FE3222B7
:1020F000AFF2001101A803F00CFB4FF4FA7002F0EC
:1021000058FA002405E0601CC4B2AC4201DB002098
:102110008DE74FF47A72AFF2241195A003F0F9FA2B
:102120000028F0D1012082E730B5A1B00446002597
:102130003222AFF2401191A003F0EBFA1422AFF279
:102140004C11914803F0E5FA4FF47A7002F031FA3D
:102150004FF47A7002F02DFA3222AFF2681187A0A4
:1021600003F0D7FA1422AFF27411874803F0D1FAC2
:102170004FF47A7002F01DFA4FF47A7002F019FAF7
:102180004FF47A7002F015FA614800907F48038896
:10219000604A7FA101A804F0EFFDC822AFF2AC11A4
:1021A00001A803F0B6FA4FF47A7002F002FA642242
:1021B000AFF2C01153A003F0ACFAC82002F0F9F955
:1021C0005B48028865A101A804F0D6FD3222AFF277
:1021D000DC1101A803F09DFA4FF4FA7002F0E9F95E
:1021E0003222AFF2F01171A003F093FA4FF4FA70BB
:1021F00002F0DFF900BF06E0681CC5B2A54202DBB1
:10220000002021B030BD4FF47A72AFF2182158A0EF
:1022100003F07FFA0028EFD10120F2E730B5A1B03A
:10222000054600243222AFF2342157480C3803F01F
:1022300070FA1422AFF24421534803F06AFA4FF4C3
:102240007A7002F0B6F94FF47A7002F0B2F94FF4F6
:102250007A7002F0AEF92E4B2E4A22A101A804F0AA
:102260008BFD06E0601CC4B2AC4202DB002021B052
:1022700030BD4FF4FA6220A101A803F04AFA002809
:10228000F0D14FF47A7002F094F94FF47A7002F0C2
:1022900090F94FF47A7002F08CF91422AFF2AC216D
:1022A00046A003F036FAC82002F083F920480288DD
:1022B00045A101A804F060FDC82002F07AF90024CD
:1022C00005E0601CC4B2AC4201DB0020CFE74FF454
:1022D000FA72AFF2E02101A803F01BFA0028F0D156
:1022E0000120C4E741542B43574A41503D222573F6
:1022F000222C222573220000434F4E4E4543544565
:102300004400000041542B4349504D55583D310085
:10231000D0B40020B0B4002041542B435753415057
:102320003D222573222C222573222C312C340000CF
:1023300078000020E0B4002041542B43495053540E
:102340004152543D302C22554450222C22257322D8
:102350002C256400434F4E4E4543540041542B43BB
:1023600049505345525645523D312C2564000000DA
:1023700041542B43494653520000000041542B4323
:10238000574D4F44453D320094070008000000209F
:1023900041542B43575341503D2225735F256422FE
:1023A0002C222573222C312C3400000041542B4365
:1023B000495053544F3D31323030000041542B438B
:1023C00049504D55583D300041542B4349505354CA
:1023D0004152543D22544350222C223139322E3165
:1023E00036382E342E31222C25640000704700BF71
:1023F000FEE700BFFEE700BFFEE700BFFEE7704755
:1024000070477047704700000CB5002001900090A5
:102410006C48006840F480306A49086000BF694831
:10242000006800F4003000900198401C0190009872
:1024300018B90198B0F5A06FF1D16248006800F4B6
:10244000003010B10120009001E0002000900098C1
:10245000012843D15C48006840F010005A490860E8
:102460000846006820F0030008600846006840F055
:102470000200086053484068524948600846406876
:1024800048600846406840F48060486008464068FC
:1024900020F47C1048600846406840F4E81048602A
:1024A0000846006840F08070086000BF454800683A
:1024B00000F000700028F9D04248406820F0030086
:1024C000404948600846406840F00200486000BF4C
:1024D0003C48406800F00C000828F9D10CBD10B54C
:1024E000FFF792FF10BD10B53648006840F00100BC
:1024F000344908600846406834490840314948601A
:1025000008460068324908402E49086008460068BD
:1025100020F4802008600846406820F4FE004860EF
:102520004FF41F008860FFF7DAFF4FF00060294981
:10253000086010BD10B5002100200022214B5B680F
:1025400003F00C0121B1042906D0082928D107E0A5
:10255000214B224C236027E01F4B204C236023E0BB
:10256000184B5B6803F47010164B5B6803F4803201
:10257000022303EB904022B9194B4343174C2360CD
:102580000DE0104B5B6803F4003323B1144B43435D
:10259000124C236003E0104B4343104C236003E0D4
:1025A0000D4B0E4C236000BF00BF064B5B68C3F3AE
:1025B00003130C4CE15C094B1B68CB40074C2360B8
:1025C00010BD000000100240002002400000FFF893
:1025D000FFFFF6FE08ED00E000127A000400002084
:1025E00000093D00080000200648804706480047D3
:1025F000FEE7FEE7FEE7FEE7FEE7FEE7FEE7FEE7B3
:10260000FEE7FEE7E72400083101000831490143F5
:10261000314A1160704770B5002100230F22C47841
:1026200004B32D4C246804F4E064C4F5E064210A8A
:10263000C1F10403CA40447804FA03F184781440D9
:1026400021430901254C0678A155047804F01F05A3
:102650000124AC4005786D11AD0005F1E025C5F809
:10266000004109E0047804F01F050124AC401C4D32
:102670000678761145F8264070BD1A4A0A40024392
:10268000154B1B1F1A60704739B1134A121D12688F
:102690000243114B1B1D1A6006E00F4A121D1268FF
:1026A00082430D4B1B1D1A607047042808D14FF060
:1026B000E021096941F004014FF0E022116107E0D7
:1026C0004FF0E021096921F004014FF0E02211618F
:1026D000704700000000FA050CED00E000E400E0A7
:1026E00080E100E080FFFF1F10B5012000F03EFDFB
:1026F000002000F03BFD10BD2A49086070472949C1
:10270000091F0860704727498431086070470146F7
:102710000020254A10884FF67F4210400843224A85
:1027200010807047014600201F4A10884FF68072C3
:10273000104008431C4A1080704708B500220092E0
:10274000194A2C3A0092009A02440092009A1160B1
:1027500008BD08B501460020009013482C380090B1
:102760000098084400900098008808BD0D489C30EF
:102770000068C0B270470C480830008840F0010083
:1027800009490831088070470648A0300068C0B287
:10279000704705480830008840F0020002490831BF
:1027A0000880704704860D422C6C004001684FF68B
:1027B000FE72114001600021016041608160C160D2
:1027C0008D49884208D18C490839496841F00F0188
:1027D000894A083A51608AE087491431884208D111
:1027E00085490839496841F0F001834A083A516047
:1027F0007DE081492831884208D17F4908394968FC
:1028000041F470617C4A083A516070E07A493C3189
:10281000884208D178490839496841F47041764ABC
:10282000083A516063E074495031884208D17249D6
:102830000839496841F470216F4A083A516056E0FE
:102840006D496431884208D16B490839496841F4BF
:102850007001694A083A516049E067497831884215
:1028600008D165490839496841F07061624A083AFF
:1028700051603CE06149884206D1011F096841F07E
:102880000F01021F116032E05C491431884208D107
:102890005A49091F096841F0F001584A121F116096
:1028A00025E056492831884208D15449091F096852
:1028B00041F47061514A121F116018E04F493C31D8
:1028C000884208D14D49091F096841F470414B4ABB
:1028D000121F11600BE049495031884207D1474926
:1028E000091F096841F47021444A121F11607047A2
:1028F00010B50022026847F6F0739A430C6A8B68A1
:1029000023430C6923434C6923438C692343CC69DB
:1029100023434C6A23438C6A23431A430260CB68E7
:1029200043600B6883604B68C36010BD0021016089
:1029300041608160C160016141618161C161016289
:1029400041628162704721B1026842F00102026077
:1029500004E002684FF6FE731A40026070471AB135
:1029600003680B43036002E003688B430360704716
:10297000416070470146486880B2704701460020B8
:10298000002201F080531BB11C4B083B1A6802E087
:10299000194B083B1A6802EA01030BB1012000E061
:1029A0000020704700F0805119B11449091F0860D8
:1029B00002E01149083948607047014600200022B2
:1029C00001F080531BB10D4B083B1A6802E00A4B23
:1029D000083B1A6802EA01030BB1012000E0002065
:1029E000704700F0805119B10449091F086002E0E6
:1029F0000149083948607047080002400804024055
:102A000010B50446CC48844208D10121042000F0CE
:102A100093FB0021042000F08FFB46E0C74884426E
:102A200008D10121082000F087FB0021082000F0D8
:102A300083FB3AE0C248844208D10121102000F013
:102A40007BFB0021102000F077FB2EE0BD48844284
:102A500008D10121202000F06FFB0021202000F090
:102A60006BFB22E0B848844208D10121402000F0ED
:102A700063FB0021402000F05FFB16E0B348844276
:102A800008D10121802000F057FB0021802000F0B8
:102A900053FB0AE0AE48844207D10121801500F0C3
:102AA0004BFB0021A01500F047FB10BD10B5012124
:102AB000084600F041FB0021012000F03DFB10BD65
:102AC0002DE9F041024600250026002000230024C5
:102AD000002791F803C00CF00F0591F803C00CF02B
:102AE000100CBCF1000F03D091F802C04CEA0505B0
:102AF00091F800C0BCF1000F31D0146800202BE029
:102B00004FF0010C0CFA00F3B1F800C00CEA030618
:102B10009E4220D183004FF00F0C0CFA03F7BC4308
:102B200005FA03FC4CEA040491F803C0BCF1280F39
:102B300006D14FF0010C0CFA00FCC2F814C00AE0F8
:102B400091F803C0BCF1480F05D14FF0010C0CFA0D
:102B500000FCC2F810C0401C0828D1D31460B1F8A2
:102B600000C0BCF1FF0F34DD546800202EE000F1FE
:102B7000080C4FF0010808FA0CF3B1F800C00CEA99
:102B800003069E4221D183004FF00F0C0CFA03F78D
:102B9000BC4305FA03FC4CEA040491F803C0BCF101
:102BA000280F05D100F1080C08FA0CF8C2F81480BF
:102BB00091F803C0BCF1480F07D100F1080C4FF0A9
:102BC000010808FA0CF8C2F81080401C0828CED37F
:102BD0005460BDE8F0814FF6FF71018002218170E1
:102BE0000421C17070470246002093680B400BB16E
:102BF000012000E0002070470146886880B27047DD
:102C000002460020D3680B400BB1012000E00020F9
:102C100070470146C86880B27047016170474161E2
:102C200070470AB1016100E041617047C1607047BF
:102C30004FF480320A4382618161826182698269D4
:102C4000704702460020434B18684FF680731840C7
:102C500040EA021008433F4B186070473E49C86184
:102C60007047F0B50A46002300240021002500F03B
:102C70000046B6F1004F02D1364EF16901E0354E03
:102C80007168C0F3034583B200F44016B6F5401FE7
:102C900008D121F070612F4E766826F070662D4FB6
:102CA0007E6012E000F48016B6F5801F06D1032680
:102CB00006FA05F4A14341F0706106E0460D3601C5
:102CC00003FA06F6B14341F0706122B1460D3601B8
:102CD00003FA06F6314300F00046B6F1004F02D188
:102CE0001C4EF16101E01B4E7160F0BD30B5002259
:102CF0008B071C0F0F2303FA04F2164B08338C10BA
:102D000053F824309343134C08348D1044F8253085
:102D100023468C1053F824308C07240F00FA04F457
:102D200023430C4C08348D1044F8253030BD0A493B
:102D3000DC3108607047000000080140000C0140D1
:102D4000001001400014014000180140001C014027
:102D500000200140000001400000204210B5012188
:102D6000080700F0F6F900214FF0805000F0F1F96B
:102D700010BD2A490862704728490861704701461A
:102D80000020274A106820F0E000084310607047D8
:102D90002249A0310860704710B502460020204B40
:102DA000186820F00300104318601E4B1B6843F0A6
:102DB00004031C4C2360012901D130BF00E020BF77
:102DC000184B1B6823F00403164C236010BD1448F5
:102DD000006840F00400124908600846006840F0AE
:102DE000020008600F48006840F004000D490860C8
:102DF00000BF00BF30BF704701460020084A52683C
:102E00000A400AB1012000E0002070470449096827
:102E100041EA8001024A11607047000000000E4242
:102E20000070004010ED00E0DF48006840F0010055
:102E3000DD49086008464068DC490840DA494860D6
:102E400008460068DA490840D74908600846006823
:102E500020F4802008600846406820F4FE004860A6
:102E60004FF41F0088607047CF49096821F4803112
:102E7000CD4A11601146096821F480211160B0F536
:102E8000803F03D0B0F5802F0ED106E0C649096817
:102E900041F48031C44A116007E0C349096841F434
:102EA000A021C14A116000E000BF00BF704710B50B
:102EB00001460022002300204A11012A02D1BA4C07
:102EC000236806E0022A02D1B74C236A01E0B64C1F
:102ED000636A01F01F02012494401C400CB10120E0
:102EE00000E0002010BD38B500200090002400252F
:102EF00000BF3120FFF7DBFF05460098401C009023
:102F00000098B0F5A06F01D0002DF2D03120FFF76E
:102F1000CEFF08B1012400E00024204638BD014660
:102F20000020A14A106820F0F80040EAC1001060BB
:102F30007047A04908607047024600209A4B5868C5
:102F400020F47C1042EA01031843974B5860704705
:102F500098490866704701460020934A506820F05F
:102F600003000843506070478F48406800F00C0031
:102F70007047014600208C4A506820F0F00008435A
:102F80005060704701460020874A506820F4E06096
:102F900008435060704701460020834A506820F47F
:102FA000605040EAC1005060704729B17E4A527AB1
:102FB00002437D4B5A7204E07B4A527A82437A4B39
:102FC0005A7270477B49D83108607047014600202B
:102FD000754A506820F44040084350607047002113
:102FE000714A20321170704A82F82010012802D0F4
:102FF00004280AD104E001216B4A2032117005E057
:103000000521694A2032117000E000BF00BF7047FF
:103010006949086070476449096A0143624A11625C
:103020007047654944390860704730B50021002277
:10303000002400235C4D6D6805F00C0121B10429CA
:1030400005D0082923D105E05C4D056022E05B4DE9
:1030500005601FE0544D6D6805F47012524D6D68A7
:1030600005F48034022505EB92421CB9544D5543BA
:1030700005600BE04C4D6D6805F400351DB1504DF9
:103080005543056002E04D4D5543056002E04B4D50
:10309000056000BF00BF444D6D6805F0F0010909EF
:1030A000484D6B5C0568DD4045603F4D6D6805F43B
:1030B000E061090A434D6B5C4568DD4085603A4D2F
:1030C0006D6805F46051C90A3E4D6B5C4568DD4092
:1030D000C560354D6D6805F44041890B3A4D6B5C18
:1030E000C568B5FBF3F5056130BD29B12E4A5269BB
:1030F00002432D4B5A6104E02B4A526982432A4B0A
:103100005A61704729B1284A92690243264B9A6155
:1031100004E0254A92698243234B9A61704729B1A2
:10312000214AD2690243204BDA6104E01E4AD26987
:1031300082431D4BDA61704729B11B4AD2680243B2
:10314000194BDA6004E0184AD2688243164BDA6001
:10315000704729B1144A12690243134B1A6104E003
:10316000114A12698243104B1A6170471249403963
:10317000086070470F49C86470470B49C8717047B1
:103180000948406A40F0807007494862704701462C
:103190000020054A92680A400AB1012000E00020A0
:1031A0007047014988727047001002400000FFF824
:1031B000FFFFF6FE000042428004424200127A0005
:1031C00000093D00180000202800002029B1504AC5
:1031D000128802434E4B1A8004E04D4A1288824303
:1031E0004B4B1A8070474A48001D008840F0100081
:1031F0004749091D088070474548001D00884FF663
:10320000EF7108404249091D08807047002140487D
:103210001C300188001F008841EA0040704700B55B
:103220000246FFF7E0FF100C394918310880091DEC
:103230000A80FFF7E1FF00BD00B50246FFF7D3FFAC
:10324000C2F30340324908310880091D0A80FFF7A4
:10325000D3FF00BD00B50246FFF7C5FF100C2C4997
:1032600020310880091D0A80FFF7C6FF00BD00203D
:103270002749103109880907080B254914310988A5
:103280000843704700BF2248001D008800F020005E
:103290000028F8D070471E48001D00884FF6F771CF
:1032A00008401B49091D088000BF1948001D0088FF
:1032B00000F008000028F8D0704701460020144AAA
:1032C000121D12880A400AB1012000E00020704758
:1032D0000F49091D098881430D4A121D118070474D
:1032E000014600200A4A121D12880A40D0B2084A3C
:1032F00012880A4012B108B1012000E00020704796
:103300000349091D09888143014A121D1180704734
:103310000028004010B50446FE48844208D101212F
:10332000C014FFF709FF0021E014FFF705FFC4E018
:10333000B4F1804F08D101210846FFF70AFF0021B0
:103340000120FFF706FFB8E0F348844208D10121CD
:103350000220FFF7FEFE00210220FFF7FAFEACE09C
:10336000EE48844208D101210420FFF7F2FE00213B
:103370000420FFF7EEFEA0E0E948844208D10121D5
:103380000820FFF7E6FE00210820FFF7E2FE94E0A8
:10339000E448844208D101211020FFF7DAFE002121
:1033A0001020FFF7D6FE88E0DF48844208D10121D3
:1033B0002020FFF7CEFE00212020FFF7CAFE7CE090
:1033C000DA48844208D101214014FFF7B5FE0021FC
:1033D0006014FFF7B1FE70E0D548844209D10121A5
:1033E000C804FFF7A9FE00214FF40020FFF7A4FE58
:1033F00063E0D048844209D101210805FFF79CFE13
:1034000000214FF48010FFF797FE56E0CA4884422F
:1034100009D101214805FFF78FFE00214FF400106C
:10342000FFF78AFE49E0C548844208D101214020C7
:10343000FFF78FFE00214020FFF78BFE3DE0C048E4
:10344000844208D101218020FFF783FE00218020E3
:10345000FFF77FFE31E0BB48844208D1012180158F
:10346000FFF777FE0021A015FFF773FE25E0B648B1
:10347000844209D101210804FFF75EFE00214FF4C8
:103480008030FFF759FE18E0B048844209D101218D
:103490004804FFF751FE00214FF40030FFF74CFEC7
:1034A0000BE0AB48844208D101218804FFF744FEB9
:1034B00000214FF48020FFF73FFE10BD002202885C
:1034C000944B98420ED0994B98420BD0B0F1804F5C
:1034D00008D0914B984205D0904B984202D0904B27
:1034E000984204D14FF68F731A404B881A438D4B84
:1034F000984207D08C4B984204D04FF6FF431A40B5
:10350000CB881A4302808B8883850B880385814B87
:1035100098420BD0854B984208D08B4B984205D0EF
:103520008A4B984202D08A4B984201D10B7A03868B
:1035300001238382704770B5002400220023058C8C
:103540004FF6FE7635400584028C8388048B4FF657
:103550008F752C40B51E2C400D882C43751E2A40BB
:103560000D892A434D882A436A4DA8420BD06F4DDE
:10357000A84208D0744DA84205D0744DA84202D08C
:10358000734DA84213D14FF6F7752A404D892A434F
:103590004FF6FB752A408D882A434FF6FF652B4076
:1035A0004FF6FF552B408D892B43CD892B438380CC
:1035B0000483CD888586028470BD70B50024002206
:1035C0000023058C4FF6EF7635400584028C838806
:1035D000048B48F6FF752C404FF6FF452C400D88B4
:1035E0004FF6FF7606EA05252C434FF6DF752A4095
:1035F0000D8906EA05152A434D8806EA05152A4372
:10360000444DA84202D0494DA8421DD14FF67F75C6
:103610002A404D894FF6FF7606EA05152A434FF6F4
:10362000BF752A408D8806EA05152A434FF6FF35F7
:103630002B404FF2FF752B408D8906EA85052B4301
:10364000CD8906EA85052B4383800483CD880587D1
:10365000028470BD70B5002400220023058C4FF653
:10366000FF6635400584028C8388848B4FF68F7506
:103670002C404FF6FC752C400D882C434FF6FF551F
:103680002A400D894FF6FF7606EA05252A434D8824
:1036900006EA05252A431F4DA84202D0234DA84221
:1036A0001DD14FF2FF752A404D894FF6FF7606EA8D
:1036B00005252A434FF6FF352A408D8806EA052561
:1036C0002A434EF6FF752B404DF6FF752B408D8932
:1036D00006EA05152B43CD8906EA05152B438380A1
:1036E0008483CD888587028470BD70B50022002355
:1036F0000024058C4EF6FF7635400584038C8488C3
:10370000828B48F6FF752A404FF6FF452A400D8808
:1037100020E00000002C01400004004000080040B0
:10372000000C004000100040001400400034014034
:10373000004C01400050014000540140001800407E
:10374000001C0040002000400040014000440140B7
:10375000004801404FF6FF7606EA05252A434DF65C
:10376000FF752B400D8906EA05352B434D8806EA87
:1037700005352B43FA4DA84202D0FA4DA84208D194
:103780004BF6FF752C408D894FF6FF7606EA8515BE
:103790002C4384808283CD88A0F84050038470BD80
:1037A000828B4FF2FF331A408283828B4FF6FF7376
:1037B00003EA01231A4382837047F0B50C4615468D
:1037C000002200210026078C4EF6FF7C07EA0C073A
:1037D0000784828B018C4FF6FF7707EA043640F6A8
:1037E000FF473A404FF6FF7707EA05273A434FF67F
:1037F000FF7707EA03373A43D94FB8420ED0D94F83
:10380000B8420BD0B0F1804F08D0D74FB84205D0A6
:10381000D64FB84202D0D64FB84206D14DF6FF7708
:10382000394046F48057394305E047F6FF573940A1
:1038300044F48057394382830184F0BD828B4FF674
:10384000F3731A408283828B0A4382837047F0B5F8
:103850000C461546002200210026078C4FF6FF6C0F
:1038600007EA0C070784828B018C4FF6FF7707EA83
:1038700004264FF60C773A404FF6FF7707EA031716
:103880002F433A43B64FB8420ED0B64FB8420BD092
:10389000B0F1804F08D0B44FB84205D0B34FB84212
:1038A00002D0B34FB84206D14FF6FF57394046F425
:1038B0008077394305E04FF2FF57394044F4807771
:1038C000394382830184F0BD028B4FF2FF331A40EB
:1038D0000283028B4FF6FF7303EA01231A4302832C
:1038E0007047F0B50C461546002200210026078CD3
:1038F0004FF6EF7C07EA0C070784028B018C4FF62A
:10390000FF7707EA041640F6FF473A404FF6FF7785
:1039100007EA03373A434FF6FF7707EA05273A43AA
:103920008F4FB8420ED08F4FB8420BD0B0F1804FBE
:1039300008D08D4FB84205D08C4FB84202D08C4F82
:10394000B84206D14FF6DF77394046F010073943C9
:1039500005E04FF65F77394044F0100739430283A2
:103960000184F0BD028B4FF6F3731A400283028B81
:103970000A4302837047F0B50C4615460022002129
:10398000068C4FF6FE773E400684028B018C4FF684
:103990000C7632407E1C06EA03162E433243704EEC
:1039A000B0420ED06F4EB0420BD0B0F1804F08D075
:1039B0006D4EB04205D06D4EB04202D06C4EB0425A
:1039C00006D14FF6FD76314044F00106314305E063
:1039D0004FF6F576314044F001063143028301840D
:1039E000F0BD70B505460C465D4885420ED05D4879
:1039F00085420BD0B5F1804F08D05B48854205D099
:103A00005A48854202D05A48854200D100E000BFA2
:103A1000208850B92389A28861882846FFF7ABFF28
:103A2000E1882846FFF79EFF25E0208804280AD178
:103A30002389A28861882846FFF753FFE18828463A
:103A4000FFF742FF17E0208808280AD12389A288BF
:103A500061882846FFF7FBFEE1882846FFF7EEFE67
:103A600009E02389A28861882846FFF7A6FEE1883D
:103A70002846FFF795FE70BD2DE9F04105460C463E
:103A800000260127608808B9022600E00026A088E9
:103A9000012801D1022700E001272088A0B923894D
:103AA000A28861882846FFF766FFE1882846FFF76D
:103AB00059FF23893A4631462846FFF712FFE1882D
:103AC0002846FFF701FF13E02389A2886188284672
:103AD000FFF707FFE1882846FFF7F6FE23893A46FD
:103AE00031462846FFF747FFE1882846FFF73AFFAF
:103AF000BDE8F0810A884B881A438B881A43CB882B
:103B00001A430B891A434B891A438B891A43A0F82D
:103B1000442070474FF6FF71818000210180C180F1
:103B20004180017270470021018041808180C18005
:103B3000018141818181C1817047002101804180E3
:103B4000012181800021C180018170470021018015
:103B500041808180C1800181418181817047000065
:103B6000002C0140003401400004004000080040E7
:103B7000000C004021B1028842F00102028004E002
:103B800002884FF6FE731A400280704731B1B0F8D8
:103B9000442042F40042A0F8442005E0B0F844205C
:103BA000C2F30E02A0F8442070471AB183890B4378
:103BB000838102E083898B438381704781827047D0
:103BC00041EA0203A0F8483070471AB183890B43D9
:103BD000838102E083898B438381704701894FF69B
:103BE000F8721140018170470A46002101894FF6A1
:103BF0008F73194011430181704730B504460D465B
:103C000029462046FFF7F0FF208940F00700208179
:103C100030BD2DE9F04104460D4616461F46602D85
:103C200006D13B46012231462046FFF75AFE05E009
:103C30003B46012231462046FFF79DFE294620469D
:103C4000FFF7D2FF208940F007002081BDE8F08116
:103C500030B50C4600210189C9B24FF6FF7505EA5F
:103C60000325154325432943018130BD2DE9F0414A
:103C700005460E4617469846002443463A463146C6
:103C80002846FFF7E5FF2C894FF6F870044044F012
:103C900007044FF68F70044044F070042C81BDE897
:103CA000F081F0B504460D4616461F463B463246A7
:103CB00029462046FFF7CCFF208940F48040208130
:103CC000F0BD0185828270470A46002101884FF6C7
:103CD0008F731940114301807047F0B50C461546AB
:103CE0001E460021002200230189028B038C4FF61F
:103CF000F877394021434FF6FC473A4040F201172C
:103D00003A434FF6DD773B404FF6FF7707EA061759
:103D10002F433B43018102830384F0BD0A46002107
:103D2000018B4FF68F7319401143018370470A4688
:103D30000021018B48F6FF7319404FF6FF7303EA29
:103D400002231943018370470A460021818B4FF6F5
:103D50008F7319401143818370470A460021818B7C
:103D600048F6FF7319404FF6FF7303EA0223194325
:103D70008183704721B1028842F08002028004E012
:103D800002884FF67F731A400280704721B1828803
:103D900042F00402828004E082884FF6FB731A40EE
:103DA0008280704721B1828842F00802828004E05C
:103DB00082884FF6F7731A408280704721B182885B
:103DC00042F00102828004E082884FF6FE731A40BE
:103DD000828070470A460021018B4FF6F773194025
:103DE0001143018370470A460021018B4FF2FF7394
:103DF00019404FF6FF7303EA02231943018370470A
:103E00000A460021818B4FF6F773194011438183D5
:103E100070470A460021818B4FF2FF7319404FF61D
:103E2000FF7303EA02231943818370470A46002186
:103E3000018B4FF6FB7319401143018370470A460B
:103E40000021018B4FF6FF3319404FF6FF7303EA51
:103E500002231943018370470A460021818B4FF6E4
:103E6000FB7319401143818370470A460021818BFF
:103E70004FF6FF3319404FF6FF7303EA022319434D
:103E8000818370470A460021018B4FF67F731940EA
:103E90001143018370470A460021018BC1F30E01D3
:103EA0004FF6FF7303EA02231943018370470A4662
:103EB0000021818B4FF67F73194011438183704736
:103EC0000A460021818BC1F30E014FF6FF7303EA0E
:103ED00002231943818370470A460021018C4FF663
:103EE000FD7319401143018470470A460021018C7B
:103EF0004FF6F77319401143018470470A460021B9
:103F0000018C4FF6DF7319404FF6FF7303EA02137B
:103F10001943018470470A460021018C4FF67F73D4
:103F200019404FF6FF7303EA0213194301847047E7
:103F30000A460021018C4FF6FF5319404FF6FF73DC
:103F400003EA02231943018470470A460021018CC9
:103F50004FF2FF7319404FF6FF7303EA0223194330
:103F6000018470470A460021018C4DF6FF73194009
:103F70004FF6FF7303EA023319430184704730B5EB
:103F8000002301248C40A3B2048C9C430484048C41
:103F900002FA01F5ADB22C43048430BD30B50023E4
:103FA00004248C40A3B2048C9C430484048C02FA45
:103FB00001F5ADB22C43048430BD70B5034600203A
:103FC00000241846183001258D40ACB21D8CA54345
:103FD0001D8409B1082909D100EB6100056825F0AD
:103FE000700505600568154305600EE00D1FC5F3FB
:103FF0004E052844056825F4E045056005684FF640
:10400000FF7606EA02263543056070BD21B10288BD
:1040100042F00202028004E002884FF6FD731A406B
:104020000280704721B1028842F00402028004E05D
:1040300002884FF6FB731A400280704721B18288D4
:1040400042F08002828004E082884FF67F731A403B
:104050008280704702884FF6F7731A400280028808
:104060000A430280704782884FF68F731A4082801D
:1040700082880A438280704702894FF6F8731A409B
:10408000028102890A430281704702894FF67F73D9
:104090001A40028102890A43028170478184704775
:1040A0008185704781867047018770478187704797
:1040B000A0F84010704702884FF6FF431A40028074
:1040C00002880A43028070470146888E7047014685
:1040D000088F70470146888F70470146B1F840004D
:1040E00070470146888C70470146088D704702462C
:1040F0000020138A0B400BB1012000E00020704724
:10410000CA430282704730B50246002000230024D3
:10411000158A05EA0103958905EA010413B10CB17A
:10412000012000E0002030BDCA4302827047000039
:1041300010B50446FB48844209D101218803FEF7EB
:10414000FBFF00214FF48040FEF7F6FF32E0F64817
:10415000844209D101214804FEF7FBFF00214FF4FE
:104160000030FEF7F6FF25E0F048844209D1012136
:104170008804FEF7EEFF00214FF48020FEF7E9FFF0
:1041800018E0EB48844209D10121C804FEF7E1FFA1
:1041900000214FF40020FEF7DCFF0BE0E5488442ED
:1041A00008D101210805FEF7D4FF00214FF480104B
:1041B000FEF7CFFF10BD2DE9F04786B005460E464D
:1041C0000024A24600BFA1460027B08900B100BF6D
:1041D0002F462C8A4CF6FF700440F08804432C8252
:1041E000AC894EF6F3100440B088318908437189D8
:1041F00008430443AC81AC8A4FF6FF400440B089C9
:104200000443AC8201A8FEF710FFC648874202D1E2
:10421000DDF810A001E0DDF80CA0A88900F4004052
:1042200040B10AEBCA0000EB0A1031684900B0FB4C
:10423000F1F807E00AEBCA0000EB0A1031688900C8
:10424000B0FBF1F86420B8FBF0F004012009642110
:1042500001FB1089A88900F4004040B1322000EB36
:10426000C900B0FBF1F000F00700044308E0322081
:1042700000EB09106421B0FBF1F000F00F000443E3
:104280002C8106B0BDE8F0874FF416510160002183
:104290008180C18001810C21418100218181704791
:1042A00010B502460020108A4FF2FF0318400B8819
:1042B0004C8823438C882343CC88234318431082A3
:1042C00010BD0021018041808180C180704721B1F3
:1042D000828942F40052828104E082894DF6FF73A4
:1042E0001A4082817047F0B503460024002600255D
:1042F000002040F66A17B94200D100BF1846C1F34A
:10430000421401F01F06012707FA06F5012C01D11E
:104310000C3004E0022C01D1103000E014301AB14E
:1043200007682F43076002E00768AF430760F0BDEE
:104330001AB1838A0B43838202E0838A8B43838290
:104340007047028A4FF6F0731A400282028A0A43CB
:104350000282704782894FF2FF731A4082818289FC
:104360000A438281704721B1828942F00202828130
:1043700004E082894FF6FD731A4082817047028AF9
:104380004FF6DF731A400282028A0A4302827047A4
:1043900021B1028A42F48042028204E0028A4BF692
:1043A000FF731A4002827047C1F30802828070478F
:1043B00001468888C0F308007047818941F00101F7
:1043C00081817047028BD2B20283028B42EA0122C2
:1043D00002837047028B02F47F420283028B0A43FE
:1043E0000283704721B1828A42F02002828204E077
:1043F000828A4FF6DF731A408282704721B1828A27
:1044000042F01002828204E0828A4FF6EF731A4073
:104410008282704721B1828A42F00802828204E0DF
:10442000828A4FF6F7731A408282704721B18289DF
:1044300042F40042828103E08289C2F30E0282814B
:10444000704721B1828A42F40062828204E0828A4B
:104450004FF2FF731A4082827047828A4FF6FB73D5
:104460001A408282828A0A438282704721B1828AFC
:1044700042F00202828204E0828A4FF6FD731A4003
:104480008282704702460020B1F5007F00D100BF54
:1044900013880B400BB1012000E00020704701F4AD
:1044A0000072B2F5007F00D100BFCA43028070479E
:1044B00070B50246002400230025002040F66A164D
:1044C000B14200D100BFC1F3421501F01F03012624
:1044D00006FA03F3012D02D19689334006E0022D3E
:1044E00002D1168A334001E0968A33400C1201262D
:1044F00006FA04F41688344013B10CB1012000E030
:10450000002070BD10B50022002340F66A14A142BD
:1045100000D100BF0A1201249440A3B2DC430480FE
:1045200010BD000000380140004400400048004039
:10453000004C00400050004010B56FF00400FEF742
:10454000B4F82E4800682E49B0FBF1F02D490870F0
:104550000846007800EB4001C1EBC0104FF6FF7138
:1045600001EAC0002849088010BD0146254A12789A
:104570004A434FF0E0235A6100229A611A461269B9
:1045800042F001021A6100BF4FF0E022106900F012
:1045900001021AB100F48032002AF5D04FF0E02277
:1045A000126922F001024FF0E0231A6100229A61A1
:1045B00070470146144A12884A434FF0E0235A617B
:1045C00000229A611A46126942F001021A6100BF84
:1045D0004FF0E022106900F001021AB100F48032BD
:1045E000002AF5D04FF0E022126922F001024FF0CC
:1045F000E0231A6100229A61704700000400002045
:1046000000127A002C0000202E000020014600BF7E
:10461000704700BF494A128802F04002002AF9D0D0
:10462000C2B2464B1B1D1A80704710B586B00446B7
:10463000012144F20400FEF765FD4FF40070ADF86F
:10464000140003208DF8160018208DF8170005A916
:104650003B48FEF735FA4FF48060ADF814000420B3
:104660008DF8170005A93648FEF72AFA25208DF89F
:10467000000003208DF801008DF8020001208DF864
:1046800003006846FDF7C7FF01940020ADF808005D
:10469000ADF80A00ADF80C00ADF810000C20ADF834
:1046A0000E0001A92548FFF786FD012240F22551A1
:1046B0002248FFF718FE01212048FFF708FE06B048
:1046C00010BD10B540F225511C48FFF7F1FE10B3A4
:1046D0001A48FFF76DFEC4B21A48008800F4004083
:1046E000C8B91848008800F4804060B10A2C03D093
:1046F00000201449088020E01248008840F400405F
:104700001049088019E00D2C06D10E48008840F4AD
:1047100080400C49088010E00A480088C0F30D0072
:1047200009490C5407480088401C0649088008467F
:104730000088C72801DD0020088010BD0038014036
:1047400000080140340000208C00002070B50346B2
:104750000C4603E014F8015B03F8015B151EA2F19F
:104760000102F7D170BD30B5034601E003F8011B2B
:10477000141EA2F10102F9D130BD00B55A494FF41F
:104780002862C8680021FFF7EEFF57494FF428421E
:1047900088680021FFF7E7FF01205349087400BD36
:1047A0000022002106E05048C06830F8110000B136
:1047B000521C491CB1F5A86FF5D3642050434FF447
:1047C000A863B0FBF3F0C0B270472DE9F041064694
:1047D0000024A0464448007C10B94349086880473B
:1047E0001EB94FF0FF30BDE8F081C6F34F1506F05B
:1047F0001F0008B1681C85B240F23F541AE03A48E5
:10480000C06830F8140020B908F101001FFA80F8E0
:1048100001E04FF00008A8450BD1002705E0324821
:10482000C068E11920F811507F1CAF42F7D3600136
:10483000D9E7641E002CE2DA4FF0FF30D3E770B501
:1048400005462948007C20B927490868804701208F
:1048500070BDB5F5284F11D269092348C06830F8FA
:104860001120002406E000201F4BDB680E1923F8FE
:104870001600641C9442F6DB0020E9E70220E7E71B
:1048800070B5044604B970BD17488068251A2846DB
:10489000FFF7D5FF00BFF6E770B505462846FFF7DE
:1048A00094FF0446601C08B9002070BD0E48806863
:1048B0002044FAE770B506460C462046FFF785FF10
:1048C0000546681C08B9002070BD07498968481969
:1048D00022463146FFF73AFF3046FFF7D1FF024844
:1048E00080682844F0E700003800002008B58020E8
:1048F000ADF8000048208DF8030003208DF8020079
:1049000069467C48FEF7DCF808BD08B58020ADF8A4
:10491000000014208DF8030003208DF80200694682
:104920007448FEF7CDF808BD08B501210820FEF750
:10493000E9FBC020ADF8000014208DF8030003202F
:104940008DF8020069466B48FEF7BAF801206A4903
:1049500008606A49C1F89C0108BD10B5FFF7D5FF92
:1049600001206549091D08606449C1F898010420C7
:10497000FFF7FBFD00206049091D08600420FFF7D8
:10498000F4FD00205D49C1F8980110BD10B5FFF796
:10499000BCFF0020584908605849C1F89C01042018
:1049A000FFF7E3FD0120544908605449C1F89C0118
:1049B0000420FFF7DAFD10BD10B50024FFF796FFC5
:1049C00001204D49091D0860FFF7CFFD01204B492B
:1049D000C1F89801FFF7C9FD07E0601CC4B2FA2CCA
:1049E00003DDFFF7D3FF012010BD43487C3800688A
:1049F0000028F2D14049086000BFF5E710B500205B
:104A00003D490860FFF781FF00203C49C1F89C0147
:104A10000220FFF7AAFD0120374908600220FFF7B6
:104A2000A4FD00203549C1F8980110BD10B5002043
:104A300031490860FFF769FF01203049C1F89C0146
:104A40000220FFF792FD01202B4908600220FFF7AA
:104A50008CFD00202949C1F8980110BD70B50446AD
:104A6000FFF753FF002024490860002517E0E00904
:104A70002149091D08606006040E0220FFF775FD3C
:104A800001201E49C1F898010220FFF76EFD0020A9
:104A9000194908600220FFF768FD681CC5B2082D9F
:104AA000E5DB70BD70B505460024FFF71FFF00264B
:104AB00016E00020104908600220FFF756FD012093
:104AC0000E49C1F898016006040E0B487C38006856
:104AD00008B1601CC4B20120FFF747FD701CC6B2CC
:104AE000082EE6DB15B9FFF7A1FF01E0FFF786FF0F
:104AF000204670BD000C0140988121420080214277
:104B000010B586B0044601211120FEF7FBFA012101
:104B1000C804FEF704FB4FF48060ADF814000320D6
:104B20008DF8160018208DF8170005A9FA48FDF732
:104B3000C7FF4FF40060ADF8140004208DF8170093
:104B400005A9F548FDF7BCFF34208DF800000320CF
:104B50008DF801008DF8020001208DF803006846F1
:104B6000FDF759FD01940020ADF80800ADF80A00EA
:104B7000ADF80C00ADF810000C20ADF80E0001A946
:104B8000E648FFF718FB012240F22551E348FFF702
:104B9000AAFB0121E148FFF79AFB06B010BD2DE901
:104BA000F0410020DFF8788398F80080B8F1420FD8
:104BB0007DD1DFF86C8398F80180B8F14D0FF7D103
:104BC000DFF85C8398F80380B8F11C0F70D10025E2
:104BD00000240BE0DFF8488318F804C005EB0C084C
:104BE0001FFA88F504F1010808F0FF041E2CF1DB20
:104BF0002E12EFB2DFF8288398F81E80B0457DD1E1
:104C0000DFF81C8398F81F80B845F8D1DFF81083CF
:104C100098F8042098F805104FF47F4808EA022815
:104C200048EA0103DFF8FC82A8F80030DFF8F082E0
:104C300098F8062098F807104FF47F4808EA0228F1
:104C400048EA0103DFF8E082A8F80030DFF8D082FC
:104C500098F8082098F809104FF47F4808EA0228CD
:104C600048EA0103DFF8C482A8F80030DFF8B08218
:104C700098F80A2098F80B104FF47F4808EA0228A9
:104C800048EA0103DFF8A882A8F80030DFF8908234
:104C900098F80C2098F80D104FF47F4808EA022885
:104CA00048EA0103DFF88C82A8F8003001E088E0D0
:104CB00085E0DFF86C8298F80E2098F80F104FF41A
:104CC0007F4808EA022848EA0103DFF86C82A8F866
:104CD0000030DFF84C8298F8102098F811104FF44B
:104CE0007F4808EA022848EA0103DFF85082A8F862
:104CF0000030DFF82C8298F8122000E05DE098F890
:104D000013104FF47F4808EA022848EA0103DFF84D
:104D10003082A8F80030DFF8088298F8142098F85C
:104D200015104FF47F4808EA022848EA0103DFF82B
:104D30001482A8F80030DFF8E88198F8162098F877
:104D400017104FF47F4808EA022848EA0103DFF809
:104D5000F881A8F80030DFF8C88198F8182098F892
:104D600019104FF47F4808EA022848EA0103DFF8E7
:104D7000DC81A8F80030DFF8A88198F81A2098F8AC
:104D80001B104FF47F4808EA022848EA0103DFF8C5
:104D9000C081A8F80030DFF8888198F81C2098F8C6
:104DA0001D104FF47F4808EA022848EA0103DFF8A3
:104DB000A481A8F80030002004E0032002E00220D3
:104DC00000E00120BDE8F08170B540F22551534864
:104DD000FFF76EFB002854D05048FFF7E9FAC5B240
:104DE0005D48008800F4004000284AD15A480088F5
:104DF00000F48040F8B15948594909884554584849
:104E00000088401C5649088008460088202838D170
:104E1000002405E05148005D41490855601CC4B2BA
:104E2000202CF7DBFFF7BBFE4B48008840F4004026
:104E30004949088025E04848008800F40050A0B1A6
:104E40004D2D0ED14448008840F4804042490880EE
:104E50004220424908704D20487002204049088095
:104E60000FE000203C4908800BE0422D06D13A4873
:104E7000008840F400503849088002E0002036499C
:104E8000088070BD70B503464225364E35704D25FD
:104E900075703546AB700D12F5703171002000222F
:104EA00005E0304DAC5C0519A8B2551CEAB2052AE4
:104EB000F7DB05122B4E7571B07170BD70B50646EB
:104EC00000213046FFF7DEFF0A20FFF74EFB0025EA
:104ED00000BF00240DE02348015D1048FFF764FA8D
:104EE00000BF80210D48FFF7CDFA0028F9D0601CE3
:104EF000C4B2072CEFDBC820FFF737FB681CC5B234
:104F0000052DE6DB70BD10B54FF41650FFF7F8FD28
:104F1000C820FFF74EFB10BD00100140004C0040C0
:104F2000D4B300205A0000205C0000205E00002066
:104F30006000002062000020640000206600002065
:104F4000680000206A0000206C0000206E00002035
:104F5000700000205400002058000020F4B300200E
:104F6000560000204C00002010B5E220FFF7A6FFFD
:104F700010BD000010B586B0044601213120FEF7B7
:104F8000C1F801210805FEF7CAF84FF48050ADF8CA
:104F9000140003208DF8160018208DF8170005A9BD
:104FA0004F48FDF78DFD0420ADF814008DF8170073
:104FB00005A94C48FDF784FD35208DF8000003203D
:104FC0008DF8010001208DF802008DF8030068467D
:104FD000FDF721FB01940020ADF80800ADF80A00B0
:104FE000ADF80C00ADF810000C20ADF80E0001A9D2
:104FF0003D48FFF7E0F8012240F225513A48FFF71B
:1050000072F901213848FFF762F906B010BD10B5FA
:1050100040F225513448FFF74BFA10B33248FFF7FE
:10502000C7F9C4B23148008800F40040C8B92F481D
:10503000008800F4804060B10A2C03D000202B4986
:10504000088020E02948008840F400402749088073
:1050500019E00D2C06D12548008840F480402349F2
:10506000088010E021480088C0F30D0020490C544E
:105070001E480088401C1D490880084600883F28BB
:1050800001DD0020088010BD70B505460E460024E5
:105090000CE0295D1448FFF787F900BF8021124812
:1050A000FFF7F0F90028F9D0601CC4B2B442F0DB7D
:1050B00000240CE0FF210C48FFF776F900BF8021A7
:1050C0000948FFF7DFF90028F9D0601CC4B2032CAF
:1050D000F0DB70BD10B54FF41650FFF74BFF10BD5D
:1050E00000100140001401400050004074000020F6
:1050F00034B4002008B503208DF8000000208DF89E
:1051000001008DF8020001208DF803006846FDF7CC
:1051100082FA08BDF0B503460C461546642093FBA1
:10512000F0F0C6B2642093FBF0F700FB1730C1B279
:10513000132E02DD01F16400C1B20846CF1701EB66
:10514000977701EBA707BAB2072092FBF0F700FBB5
:10515000172082B25719601EDFF8E4C21CF8000065
:10516000384482B2CF1701EB9777BF10A1EB8707C6
:105170001FB9032C01DA501E82B2072092FBF0F710
:1051800000FB1720C0B2F0BD0146CA1701EB9272B6
:105190009210A1EB820292B9642091FBF0F200FB25
:1051A000121050B94FF4C87091FBF0F200FB1210CE
:1051B00008B9012070470020FCE70120FAE7002031
:1051C000F8E770B5002600240025FEF71FF8064614
:1051D0009C48B6FBF0F49C480088A0423CD09A4919
:1051E0000C8040F2B27510E02846FFF7CDFF40B1C9
:1051F000B4F5B77F02D3A4F5B77404E0681C85B298
:1052000006E0A4F26D14681C85B2B4F5B67FEBD845
:1052100000BF8E488580002516E08C498888FFF7FE
:10522000B3FF30B1012D04D11D2C01D31D3C09E089
:105230000CE08748405DA04203D88548405D241AB1
:1052400000E003E0681C85B21C2CE6D200BF681C9D
:105250007E498871601CC8717A48B6FBF0F100FB8A
:1052600011644FF46160B4FBF0F0784908704FF4BA
:105270006160B4FBF0F100FB11403C21B0FBF1F0A8
:10528000724948704FF46160B4FBF0F100FB1140CB
:105290003C21B0FBF1F201FB12006C4988700B4617
:1052A000DA7999799888FFF735FF68490872002004
:1052B00070BD10B5002401214FF0C050FDF72FFF45
:1052C0000120FDF756FD0420FDF743FA45F2500199
:1052D000884234D0FDF708FA0120FDF780FE04E093
:1052E000601CC4B20A20FFF764F94120FDF7DFFD1E
:1052F0000028F5D0FA2C01DB012010BD4FF480709E
:10530000FDF789FE0120FDF78CFEFDF7BBFFFDF7E1
:10531000C2FF01210846FDF759FFFDF7B3FFFDF776
:1053200062FF47F6FF70FDF787FFFDF7ABFFFDF764
:1053300063FF45F250010420FDF7FFF907E0FDF798
:10534000AAFF01210846FDF741FFFDF79BFFFFF78C
:10535000D1FEFFF736FF0020CFE710B50120FDF7A3
:10536000BFFF08B1FFF72DFF0220FDF7B9FF10B115
:105370000220FDF7C5FF0520FDF7C2FFFDF782FF04
:1053800010BD2DE9F05F06460F4690469946DDE9CF
:105390000AAB002440F2B270864203DB40F63300D1
:1053A000864202DD0120BDE8F09F40F2B2750AE0BE
:1053B0002846FFF7E9FE10B12648044401E02648DC
:1053C0000444681C85B2B542F2DB781EC7B20025E2
:1053D00010E01F48405D40F2A321484304EBC01495
:1053E0003046FFF7D1FE18B1012D01D11548044414
:1053F000681C85B2BD42ECDBA8F1010040F2A3219C
:10540000484304EBC014C9EB4910C0EB092004EB7E
:105410000014CAEB0A1004EB80045C4401214FF035
:10542000C050FDF77CFE0120FDF7A3FC2046FDF7F0
:10543000F6FEFDF727FFFFF7C4FE0020B3E70000EC
:10544000A0760008805101007600002074B400208E
:10545000AC7600080085E2018033E10110B5044616
:1054600044B10021FA48FEF719FE0121F848FEF781
:1054700081FB03E00021F648FEF77CFB10BD10B570
:1054800040F22551F348FFF713F800B3F148FEF757
:105490008FFFC4B2F0480088FF2812DC0021EC48DE
:1054A000FEF7FCFDEC48008810B90120FFF7D6FF9D
:1054B000E94801880088401CE74A1080E7484454C6
:1054C00005E0E548008840F40040E349088010BD4D
:1054D0007FB505460C4601210420FDF720FEADF8FE
:1054E0000450ADF800400020ADF80600ADF8020011
:1054F0006946D748FDF7E2FF01221146D448FEF77E
:1055000054FB1E208DF80C0001208DF80D000220A8
:105510008DF80E0001208DF80F0003A8FDF77BF831
:105520007FBD70B58CB006460C4615460121084675
:10553000FDF7DBFD3046FDF739F9019402951020A7
:105540000390002004900590802006900020079092
:10555000089009904FF480500A9000200B9001A908
:105560003046FDF7C5F90CB070BD10B586B00446E5
:1055700001210420FDF7C6FD01214804FDF7CFFD00
:10558000B448FEF7D5FD0420ADF8100003208DF8D7
:10559000120018208DF8130004A9B148FDF790FA05
:1055A0000820ADF8100004208DF8130004A9AC48C1
:1055B000FDF786FA00940020ADF80400ADF806006F
:1055C000ADF80800ADF80C000C20ADF80A006946F3
:1055D000A048FEF7F0FD012280219E48FEF7A8FEBC
:1055E000A04A9C49091DA048FFF79BFF012199484B
:1055F000FEF76DFE012240F225519648FEF773FE3C
:1056000026208DF8140002208DF8150003208DF857
:10561000160001208DF8170005A8FCF7FCFF41F6E5
:105620001F4140F2E730FFF753FF00208A4908800E
:10563000FFF714FF06B010BD70B504460D460021FB
:105640002046FDF780F929462046FDF791F9012112
:105650002046FDF778F970BD0FB438B505A8009065
:105660008048009A049901F09BFB0020009000BF45
:105670007D48FDF77FF90028FAD17A4801F022F839
:10568000C4B221467848FFF7D7FF38BC5DF814FB59
:1056900010B501216E48FEF736FD60B16E480088F6
:1056A00040F400406C49088001216948FEF73CFD48
:1056B0000020FFF7D3FE10BD10B5044666480088F1
:1056C00000F4004070B1002063490988C1F30E0165
:1056D000624A5054114665A001F03EFB14B100200F
:1056E0005D49088010BD70B5044600255A48008801
:1056F00000F4004058B1002057490988C1F30E0159
:10570000564A50542146104600F0CAFF0546284626
:1057100070BD2DE9F04106460D46144600270020D5
:105720004D490880314652A0FFF796FFC5B1BCB184
:105730000FE00A20FEF73DFF4748008800F40040D4
:1057400038B12846FFF7CFFF00B106E000204249FC
:105750000880601E80B2041EEBD100BF04B901278F
:105760003846BDE8F0812DE9F04106460D46144665
:10577000002700203849088031463CA0FFF76CFF25
:10578000C5B1BCB10FE00A20FEF713FF3248008814
:1057900000F4004038B12846FFF7A5FF00B106E04D
:1057A00000202D490880601E80B2041EEBD100BF8E
:1057B00004B901273846BDE8F08110B500BF25487F
:1057C000008800F040000028F9D02B202149091D55
:1057D00008800F20FEF7EDFE00BF1E48008800F095
:1057E00040000028F9D02B201A49091D08800F20FD
:1057F000FEF7DFFE00BF1748008800F040000028D9
:10580000F9D02B201349091D08804FF4FA70FEF7D8
:10581000D0FE142218A119A0FFF77BFF10BD10B510
:10582000FFF7CBFF08B1002010BD322214A115A054
:10583000FFF76FFF17A0FFF756FF40B119A0FFF762
:1058400052FF20B11BA0FFF74EFF00B13AE03FE04E
:1058500000080040004400407A000020F0B400201E
:1058600000080140F0B500208000024025730000D0
:1058700025730D0A000000004F4B0000415400004A
:105880003A00000041542B4349505354415455535E
:10589000000000002B4349505354415455533A30B3
:1058A000000000002B4349505354415455533A31A2
:1058B000000000002B4349505354415455533A3291
:1058C00000000000B4A0FFF70EFF08B10020ABE716
:1058D0000120A9E770B5FFF770FF08B1002070BD87
:1058E0003222AFF26401AFF26400FFF712FFAEA004
:1058F000FFF7F9FE05462C782046F0E770B505461F
:105900003222AFF28C01ABA0FFF703FF10B10020F1
:10591000287070BDAAA0FFF7E6FE0446A8A1601C8F
:1059200000F0BEFE064600203070621CAFF2C401DB
:10593000284601F021FA00BFEBE72DE9F047814648
:1059400088462020FEF7A8FF04462020FEF7A4FF8B
:1059500005462020FEF7A0FF06462020FEF79CFF0C
:1059600007462020FEF798FF82463222AFF2F80168
:1059700090A0FFF7CEFE10B10020387038E091A063
:10598000FFF7B1FE04468EA1A01D00F089FE05467A
:105990002E4600202870A71D3A46AFF23011484627
:1059A00001F0EAF989A1701C00F07AFE044684A196
:1059B000E01D00F075FE054600202870E71D3A4600
:1059C000AFF25811404601F0D7F959465046FFF75B
:1059D0005BFB2046FEF754FF2846FEF751FF30469A
:1059E000FEF74EFF3846FEF74BFF5046FEF748FFE6
:1059F000BDE8F0872DE9F04780468946174620200C
:105A0000FEF74AFF06462020FEF746FF0446202008
:105A1000FEF742FF05461422AFF2A4116DA0FFF776
:105A200078FE1422AFF2B0116DA0FFF772FE4FF4B2
:105A30007A70FEF7BEFD4FF47A70FEF7BAFD4FF4B0
:105A40007A70FEF7B6FD4FF47A70FEF7B2FD664B42
:105A5000664A67A1304601F08FF94FF47A72AFF2CF
:105A6000E8113046FFF755FE002F3DD11422AFF26A
:105A7000F81165A0FFF74DFE65A0FFF734FE06465E
:105A8000142267A169A0FFF744FEAFF20C20FFF7D4
:105A90002AFE0646142268A169A0FFF73AFE48A034
:105AA000FFF721FE064646A1701C00F0F9FD0446F2
:105AB00025460020207042A1681C00F0F1FD06463A
:105AC0003FA1701C00F0ECFD04462546002020702C
:105AD0005EA1681C00F0E4FD06465CA1701C00F0AD
